{
  "_format": "hh-sol-artifact-1",
  "contractName": "silo",
  "sourceName": "contracts/Silo.sol",
  "abi": [
    {
      "inputs": [
        {
          "internalType": "address",
          "name": "_dai",
          "type": "address"
        }
      ],
      "stateMutability": "nonpayable",
      "type": "constructor"
    },
    {
      "anonymous": false,
      "inputs": [
        {
          "indexed": true,
          "internalType": "address",
          "name": "account",
          "type": "address"
        },
        {
          "indexed": true,
          "internalType": "address",
          "name": "operator",
          "type": "address"
        },
        {
          "indexed": false,
          "internalType": "bool",
          "name": "approved",
          "type": "bool"
        }
      ],
      "name": "ApprovalForAll",
      "type": "event"
    },
    {
      "anonymous": false,
      "inputs": [
        {
          "components": [
            {
              "internalType": "string",
              "name": "name",
              "type": "string"
            },
            {
              "internalType": "uint256",
              "name": "UID",
              "type": "uint256"
            },
            {
              "internalType": "address",
              "name": "addressIssuer",
              "type": "address"
            },
            {
              "internalType": "uint256",
              "name": "supply",
              "type": "uint256"
            },
            {
              "internalType": "uint256",
              "name": "price",
              "type": "uint256"
            }
          ],
          "indexed": true,
          "internalType": "struct silo.Issuer",
          "name": "",
          "type": "tuple"
        }
      ],
      "name": "CreateCertif",
      "type": "event"
    },
    {
      "anonymous": false,
      "inputs": [
        {
          "indexed": true,
          "internalType": "address",
          "name": "operator",
          "type": "address"
        },
        {
          "indexed": true,
          "internalType": "address",
          "name": "from",
          "type": "address"
        },
        {
          "indexed": true,
          "internalType": "address",
          "name": "to",
          "type": "address"
        },
        {
          "indexed": false,
          "internalType": "uint256[]",
          "name": "ids",
          "type": "uint256[]"
        },
        {
          "indexed": false,
          "internalType": "uint256[]",
          "name": "values",
          "type": "uint256[]"
        }
      ],
      "name": "TransferBatch",
      "type": "event"
    },
    {
      "anonymous": false,
      "inputs": [
        {
          "indexed": true,
          "internalType": "address",
          "name": "operator",
          "type": "address"
        },
        {
          "indexed": true,
          "internalType": "address",
          "name": "from",
          "type": "address"
        },
        {
          "indexed": true,
          "internalType": "address",
          "name": "to",
          "type": "address"
        },
        {
          "indexed": false,
          "internalType": "uint256",
          "name": "id",
          "type": "uint256"
        },
        {
          "indexed": false,
          "internalType": "uint256",
          "name": "value",
          "type": "uint256"
        }
      ],
      "name": "TransferSingle",
      "type": "event"
    },
    {
      "anonymous": false,
      "inputs": [
        {
          "indexed": false,
          "internalType": "string",
          "name": "value",
          "type": "string"
        },
        {
          "indexed": true,
          "internalType": "uint256",
          "name": "id",
          "type": "uint256"
        }
      ],
      "name": "URI",
      "type": "event"
    },
    {
      "inputs": [
        {
          "internalType": "string",
          "name": "_name",
          "type": "string"
        }
      ],
      "name": "addIssuer",
      "outputs": [],
      "stateMutability": "payable",
      "type": "function"
    },
    {
      "inputs": [
        {
          "internalType": "address",
          "name": "account",
          "type": "address"
        },
        {
          "internalType": "uint256",
          "name": "id",
          "type": "uint256"
        }
      ],
      "name": "balanceOf",
      "outputs": [
        {
          "internalType": "uint256",
          "name": "",
          "type": "uint256"
        }
      ],
      "stateMutability": "view",
      "type": "function"
    },
    {
      "inputs": [
        {
          "internalType": "address[]",
          "name": "accounts",
          "type": "address[]"
        },
        {
          "internalType": "uint256[]",
          "name": "ids",
          "type": "uint256[]"
        }
      ],
      "name": "balanceOfBatch",
      "outputs": [
        {
          "internalType": "uint256[]",
          "name": "",
          "type": "uint256[]"
        }
      ],
      "stateMutability": "view",
      "type": "function"
    },
    {
      "inputs": [
        {
          "internalType": "uint256",
          "name": "_userSupply",
          "type": "uint256"
        },
        {
          "internalType": "uint256",
          "name": "_UIDIssuer",
          "type": "uint256"
        }
      ],
      "name": "buyCertificate",
      "outputs": [],
      "stateMutability": "nonpayable",
      "type": "function"
    },
    {
      "inputs": [
        {
          "internalType": "uint256",
          "name": "_UIDIssuer",
          "type": "uint256"
        },
        {
          "internalType": "uint256",
          "name": "_newPrice",
          "type": "uint256"
        }
      ],
      "name": "changePrice",
      "outputs": [],
      "stateMutability": "payable",
      "type": "function"
    },
    {
      "inputs": [
        {
          "internalType": "uint256",
          "name": "_UIDIssuer",
          "type": "uint256"
        },
        {
          "internalType": "uint256",
          "name": "_newSupply",
          "type": "uint256"
        }
      ],
      "name": "changeSupply",
      "outputs": [],
      "stateMutability": "payable",
      "type": "function"
    },
    {
      "inputs": [
        {
          "internalType": "uint256",
          "name": "_UIDIssuer",
          "type": "uint256"
        },
        {
          "internalType": "uint256",
          "name": "_supply",
          "type": "uint256"
        },
        {
          "internalType": "uint256",
          "name": "_price",
          "type": "uint256"
        }
      ],
      "name": "createCertificate",
      "outputs": [],
      "stateMutability": "nonpayable",
      "type": "function"
    },
    {
      "inputs": [],
      "name": "getBallance",
      "outputs": [
        {
          "internalType": "uint256",
          "name": "",
          "type": "uint256"
        }
      ],
      "stateMutability": "view",
      "type": "function"
    },
    {
      "inputs": [
        {
          "internalType": "string",
          "name": "_name",
          "type": "string"
        }
      ],
      "name": "getUidIssuer",
      "outputs": [
        {
          "internalType": "string",
          "name": "",
          "type": "string"
        }
      ],
      "stateMutability": "view",
      "type": "function"
    },
    {
      "inputs": [
        {
          "internalType": "uint256",
          "name": "_UIDIssuer",
          "type": "uint256"
        },
        {
          "internalType": "uint256",
          "name": "_userSupply",
          "type": "uint256"
        }
      ],
      "name": "getValue",
      "outputs": [
        {
          "internalType": "uint256",
          "name": "",
          "type": "uint256"
        }
      ],
      "stateMutability": "view",
      "type": "function"
    },
    {
      "inputs": [
        {
          "internalType": "address",
          "name": "account",
          "type": "address"
        },
        {
          "internalType": "address",
          "name": "operator",
          "type": "address"
        }
      ],
      "name": "isApprovedForAll",
      "outputs": [
        {
          "internalType": "bool",
          "name": "",
          "type": "bool"
        }
      ],
      "stateMutability": "view",
      "type": "function"
    },
    {
      "inputs": [
        {
          "internalType": "uint256",
          "name": "",
          "type": "uint256"
        }
      ],
      "name": "issuer",
      "outputs": [
        {
          "internalType": "string",
          "name": "name",
          "type": "string"
        },
        {
          "internalType": "uint256",
          "name": "UID",
          "type": "uint256"
        },
        {
          "internalType": "address",
          "name": "addressIssuer",
          "type": "address"
        },
        {
          "internalType": "uint256",
          "name": "supply",
          "type": "uint256"
        },
        {
          "internalType": "uint256",
          "name": "price",
          "type": "uint256"
        }
      ],
      "stateMutability": "view",
      "type": "function"
    },
    {
      "inputs": [
        {
          "internalType": "address",
          "name": "from",
          "type": "address"
        },
        {
          "internalType": "address",
          "name": "to",
          "type": "address"
        },
        {
          "internalType": "uint256[]",
          "name": "ids",
          "type": "uint256[]"
        },
        {
          "internalType": "uint256[]",
          "name": "amounts",
          "type": "uint256[]"
        },
        {
          "internalType": "bytes",
          "name": "data",
          "type": "bytes"
        }
      ],
      "name": "safeBatchTransferFrom",
      "outputs": [],
      "stateMutability": "nonpayable",
      "type": "function"
    },
    {
      "inputs": [
        {
          "internalType": "address",
          "name": "from",
          "type": "address"
        },
        {
          "internalType": "address",
          "name": "to",
          "type": "address"
        },
        {
          "internalType": "uint256",
          "name": "id",
          "type": "uint256"
        },
        {
          "internalType": "uint256",
          "name": "amount",
          "type": "uint256"
        },
        {
          "internalType": "bytes",
          "name": "data",
          "type": "bytes"
        }
      ],
      "name": "safeTransferFrom",
      "outputs": [],
      "stateMutability": "nonpayable",
      "type": "function"
    },
    {
      "inputs": [
        {
          "internalType": "string",
          "name": "_name",
          "type": "string"
        }
      ],
      "name": "sellCertifaicateToOwnerIssuer",
      "outputs": [],
      "stateMutability": "nonpayable",
      "type": "function"
    },
    {
      "inputs": [
        {
          "internalType": "address",
          "name": "operator",
          "type": "address"
        },
        {
          "internalType": "bool",
          "name": "approved",
          "type": "bool"
        }
      ],
      "name": "setApprovalForAll",
      "outputs": [],
      "stateMutability": "nonpayable",
      "type": "function"
    },
    {
      "inputs": [
        {
          "internalType": "bytes4",
          "name": "interfaceId",
          "type": "bytes4"
        }
      ],
      "name": "supportsInterface",
      "outputs": [
        {
          "internalType": "bool",
          "name": "",
          "type": "bool"
        }
      ],
      "stateMutability": "view",
      "type": "function"
    },
    {
      "inputs": [
        {
          "internalType": "uint256",
          "name": "",
          "type": "uint256"
        }
      ],
      "name": "uri",
      "outputs": [
        {
          "internalType": "string",
          "name": "",
          "type": "string"
        }
      ],
      "stateMutability": "view",
      "type": "function"
    }
  ],
  "bytecode": "0x608060405260006004553480156200001657600080fd5b506040516200475f3803806200475f83398181016040528101906200003c919062000193565b6040518060800160405280604d815260200162004712604d91396200006781620000b060201b60201c565b5080600360006101000a81548173ffffffffffffffffffffffffffffffffffffffff021916908373ffffffffffffffffffffffffffffffffffffffff1602179055505062000272565b8060029080519060200190620000c8929190620000cc565b5050565b828054620000da90620001f3565b90600052602060002090601f016020900481019282620000fe57600085556200014a565b82601f106200011957805160ff19168380011785556200014a565b828001600101855582156200014a579182015b82811115620001495782518255916020019190600101906200012c565b5b5090506200015991906200015d565b5090565b5b80821115620001785760008160009055506001016200015e565b5090565b6000815190506200018d8162000258565b92915050565b600060208284031215620001a657600080fd5b6000620001b6848285016200017c565b91505092915050565b6000620001cc82620001d3565b9050919050565b600073ffffffffffffffffffffffffffffffffffffffff82169050919050565b600060028204905060018216806200020c57607f821691505b6020821081141562000223576200022262000229565b5b50919050565b7f4e487b7100000000000000000000000000000000000000000000000000000000600052602260045260246000fd5b6200026381620001bf565b81146200026f57600080fd5b50565b61449080620002826000396000f3fe6080604052600436106101075760003560e01c80636c69440c11610095578063b3de019c11610064578063b3de019c14610397578063c9ca902c146103b3578063e89e14ee146103dc578063e985e9c514610407578063f242432a1461044457610107565b80636c69440c146102f9578063a22cb46514610336578063a28e0bea1461035f578063a6a53fe91461037b57610107565b80631011f395116100dc5780631011f395146102045780632eb2c2d61461022d5780634e1273f41461025657806359dbd4dd146102935780636a19e6de146102bc57610107565b806268fe8b1461010c578062fdd58e1461014d57806301ffc9a71461018a5780630e89341c146101c7575b600080fd5b34801561011857600080fd5b50610133600480360381019061012e9190612d7e565b61046d565b604051610144959493929190613604565b60405180910390f35b34801561015957600080fd5b50610174600480360381019061016f9190612bd5565b61054b565b604051610181919061385e565b60405180910390f35b34801561019657600080fd5b506101b160048036038101906101ac9190612ca6565b610614565b6040516101be91906135c7565b60405180910390f35b3480156101d357600080fd5b506101ee60048036038101906101e99190612d7e565b6106f6565b6040516101fb91906135e2565b60405180910390f35b34801561021057600080fd5b5061022b60048036038101906102269190612d3d565b61078a565b005b34801561023957600080fd5b50610254600480360381019061024f9190612a4b565b61078d565b005b34801561026257600080fd5b5061027d60048036038101906102789190612c11565b61082e565b60405161028a919061356e565b60405180910390f35b34801561029f57600080fd5b506102ba60048036038101906102b59190612dd0565b6109df565b005b3480156102c857600080fd5b506102e360048036038101906102de9190612dd0565b610ca9565b6040516102f0919061385e565b60405180910390f35b34801561030557600080fd5b50610320600480360381019061031b9190612cf8565b610cda565b60405161032d91906135e2565b60405180910390f35b34801561034257600080fd5b5061035d60048036038101906103589190612b99565b610dce565b005b61037960048036038101906103749190612d3d565b610de4565b005b61039560048036038101906103909190612dd0565b610fb6565b005b6103b160048036038101906103ac9190612dd0565b611079565b005b3480156103bf57600080fd5b506103da60048036038101906103d59190612e0c565b61127b565b005b3480156103e857600080fd5b506103f16114e9565b6040516103fe919061385e565b60405180910390f35b34801561041357600080fd5b5061042e60048036038101906104299190612a0f565b61159b565b60405161043b91906135c7565b60405180910390f35b34801561045057600080fd5b5061046b60048036038101906104669190612b0a565b61162f565b005b600560205280600052604060002060009150905080600001805461049090613c12565b80601f01602080910402602001604051908101604052809291908181526020018280546104bc90613c12565b80156105095780601f106104de57610100808354040283529160200191610509565b820191906000526020600020905b8154815290600101906020018083116104ec57829003601f168201915b5050505050908060010154908060020160009054906101000a900473ffffffffffffffffffffffffffffffffffffffff16908060030154908060040154905085565b60008073ffffffffffffffffffffffffffffffffffffffff168373ffffffffffffffffffffffffffffffffffffffff1614156105bc576040517f08c379a00000000000000000000000000000000000000000000000000000000081526004016105b3906136be565b60405180910390fd5b60008083815260200190815260200160002060008473ffffffffffffffffffffffffffffffffffffffff1673ffffffffffffffffffffffffffffffffffffffff16815260200190815260200160002054905092915050565b60007fd9b67a26000000000000000000000000000000000000000000000000000000007bffffffffffffffffffffffffffffffffffffffffffffffffffffffff1916827bffffffffffffffffffffffffffffffffffffffffffffffffffffffff191614806106df57507f0e89341c000000000000000000000000000000000000000000000000000000007bffffffffffffffffffffffffffffffffffffffffffffffffffffffff1916827bffffffffffffffffffffffffffffffffffffffffffffffffffffffff1916145b806106ef57506106ee826116d0565b5b9050919050565b60606002805461070590613c12565b80601f016020809104026020016040519081016040528092919081815260200182805461073190613c12565b801561077e5780601f106107535761010080835404028352916020019161077e565b820191906000526020600020905b81548152906001019060200180831161076157829003601f168201915b50505050509050919050565b50565b61079561173a565b73ffffffffffffffffffffffffffffffffffffffff168573ffffffffffffffffffffffffffffffffffffffff1614806107db57506107da856107d561173a565b61159b565b5b61081a576040517f08c379a00000000000000000000000000000000000000000000000000000000081526004016108119061371e565b60405180910390fd5b6108278585858585611742565b5050505050565b60608151835114610874576040517f08c379a000000000000000000000000000000000000000000000000000000000815260040161086b906137fe565b60405180910390fd5b6000835167ffffffffffffffff8111156108b7577f4e487b7100000000000000000000000000000000000000000000000000000000600052604160045260246000fd5b6040519080825280602002602001820160405280156108e55781602001602082028036833780820191505090505b50905060005b84518110156109d45761097e858281518110610930577f4e487b7100000000000000000000000000000000000000000000000000000000600052603260045260246000fd5b6020026020010151858381518110610971577f4e487b7100000000000000000000000000000000000000000000000000000000600052603260045260246000fd5b602002602001015161054b565b8282815181106109b7577f4e487b7100000000000000000000000000000000000000000000000000000000600052603260045260246000fd5b602002602001018181525050806109cd90613ca9565b90506108eb565b508091505092915050565b6000670de0b6b3a7640000600560008481526020019081526020016000206004015484610a0c9190613aa4565b610a169190613aa4565b90508260056000848152602001908152602001600020600301541015610a71576040517f08c379a0000000000000000000000000000000000000000000000000000000008152600401610a689061373e565b60405180910390fd5b80600360009054906101000a900473ffffffffffffffffffffffffffffffffffffffff1673ffffffffffffffffffffffffffffffffffffffff166370a08231336040518263ffffffff1660e01b8152600401610acd919061345a565b60206040518083038186803b158015610ae557600080fd5b505afa158015610af9573d6000803e3d6000fd5b505050506040513d601f19601f82011682018060405250810190610b1d9190612da7565b1015610b5e576040517f08c379a0000000000000000000000000000000000000000000000000000000008152600401610b559061369e565b60405180910390fd5b600360009054906101000a900473ffffffffffffffffffffffffffffffffffffffff1673ffffffffffffffffffffffffffffffffffffffff166323b872dd336005600086815260200190815260200160002060020160009054906101000a900473ffffffffffffffffffffffffffffffffffffffff16846040518463ffffffff1660e01b8152600401610bf3939291906134dd565b602060405180830381600087803b158015610c0d57600080fd5b505af1158015610c21573d6000803e3d6000fd5b505050506040513d601f19601f82011682018060405250810190610c459190612c7d565b5082600560008481526020019081526020016000206003016000828254610c6c9190613afe565b92505081905550610ca43360056000858152602001908152602001600020600101548560405180602001604052806000815250611aa2565b505050565b600080600560008581526020019081526020016000206004015483610cce9190613aa4565b90508091505092915050565b606060005b600454811015610d8e578383604051602001610cfc9291906133fc565b6040516020818303038152906040528051906020012060056000838152602001908152602001600020600001604051602001610d38919061342c565b604051602081830303815290604052805190602001201415610d7b57610d736005600083815260200190815260200160002060010154611c38565b915050610dc8565b8080610d8690613ca9565b915050610cdf565b506040518060400160405280601381526020017f4e616d65206e6f74207265636f676e697a65640000000000000000000000000081525090505b92915050565b610de0610dd961173a565b8383611de5565b5050565b6000805b600454811015610e735782604051602001610e039190613415565b6040516020818303038152906040528051906020012060056000838152602001908152602001600020600001604051602001610e3f919061342c565b604051602081830303815290604052805190602001201415610e6057600191505b8080610e6b90613ca9565b915050610de8565b506000151581151514610ebb576040517f08c379a0000000000000000000000000000000000000000000000000000000008152600401610eb29061377e565b60405180910390fd5b816005600060045481526020019081526020016000206000019080519060200190610ee7929190612693565b50600454600560006004548152602001908152602001600020600101819055503360056000600454815260200190815260200160002060020160006101000a81548173ffffffffffffffffffffffffffffffffffffffff021916908373ffffffffffffffffffffffffffffffffffffffff16021790555060006005600060045481526020019081526020016000206003018190555060006005600060045481526020019081526020016000206004018190555060046000815480929190610fad90613ca9565b91905055505050565b3373ffffffffffffffffffffffffffffffffffffffff166005600084815260200190815260200160002060020160009054906101000a900473ffffffffffffffffffffffffffffffffffffffff1673ffffffffffffffffffffffffffffffffffffffff161461105a576040517f08c379a0000000000000000000000000000000000000000000000000000000008152600401611051906137be565b60405180910390fd5b8060056000848152602001908152602001600020600301819055505050565b6000670de0b6b3a76400008260056000868152602001908152602001600020600301546110a69190613aa4565b6110b09190613aa4565b90503373ffffffffffffffffffffffffffffffffffffffff166005600085815260200190815260200160002060020160009054906101000a900473ffffffffffffffffffffffffffffffffffffffff1673ffffffffffffffffffffffffffffffffffffffff1614611156576040517f08c379a000000000000000000000000000000000000000000000000000000000815260040161114d906137be565b60405180910390fd5b60026003826111659190613aa4565b61116f9190613a73565b600360009054906101000a900473ffffffffffffffffffffffffffffffffffffffff1673ffffffffffffffffffffffffffffffffffffffff166370a08231336040518263ffffffff1660e01b81526004016111ca919061345a565b60206040518083038186803b1580156111e257600080fd5b505afa1580156111f6573d6000803e3d6000fd5b505050506040513d601f19601f8201168201806040525081019061121a9190612da7565b101561125b576040517f08c379a00000000000000000000000000000000000000000000000000000000081526004016112529061379e565b60405180910390fd5b816005600085815260200190815260200160002060040181905550505050565b6000670de0b6b3a764000082846112929190613aa4565b61129c9190613aa4565b90503373ffffffffffffffffffffffffffffffffffffffff166005600086815260200190815260200160002060020160009054906101000a900473ffffffffffffffffffffffffffffffffffffffff1673ffffffffffffffffffffffffffffffffffffffff1614611342576040517f08c379a0000000000000000000000000000000000000000000000000000000008152600401611339906137be565b60405180910390fd5b60026003826113519190613aa4565b61135b9190613a73565b600360009054906101000a900473ffffffffffffffffffffffffffffffffffffffff1673ffffffffffffffffffffffffffffffffffffffff166370a08231336040518263ffffffff1660e01b81526004016113b6919061345a565b60206040518083038186803b1580156113ce57600080fd5b505afa1580156113e2573d6000803e3d6000fd5b505050506040513d601f19601f820116820180604052508101906114069190612da7565b1015611447576040517f08c379a000000000000000000000000000000000000000000000000000000000815260040161143e9061379e565b60405180910390fd5b8260056000868152602001908152602001600020600301600082825461146d9190613a1d565b92505081905550816005600086815260200190815260200160002060040181905550600560008581526020019081526020016000206040516114af9190613443565b60405180910390207fa138615bacf4b38407d1add01c0ca7d0c83b8ad4e047908fcd3549a14350469160405160405180910390a250505050565b6000600360009054906101000a900473ffffffffffffffffffffffffffffffffffffffff1673ffffffffffffffffffffffffffffffffffffffff166370a08231336040518263ffffffff1660e01b8152600401611546919061345a565b60206040518083038186803b15801561155e57600080fd5b505afa158015611572573d6000803e3d6000fd5b505050506040513d601f19601f820116820180604052508101906115969190612da7565b905090565b6000600160008473ffffffffffffffffffffffffffffffffffffffff1673ffffffffffffffffffffffffffffffffffffffff16815260200190815260200160002060008373ffffffffffffffffffffffffffffffffffffffff1673ffffffffffffffffffffffffffffffffffffffff16815260200190815260200160002060009054906101000a900460ff16905092915050565b61163761173a565b73ffffffffffffffffffffffffffffffffffffffff168573ffffffffffffffffffffffffffffffffffffffff16148061167d575061167c8561167761173a565b61159b565b5b6116bc576040517f08c379a00000000000000000000000000000000000000000000000000000000081526004016116b3906136de565b60405180910390fd5b6116c98585858585611f52565b5050505050565b60007f01ffc9a7000000000000000000000000000000000000000000000000000000007bffffffffffffffffffffffffffffffffffffffffffffffffffffffff1916827bffffffffffffffffffffffffffffffffffffffffffffffffffffffff1916149050919050565b600033905090565b8151835114611786576040517f08c379a000000000000000000000000000000000000000000000000000000000815260040161177d9061381e565b60405180910390fd5b600073ffffffffffffffffffffffffffffffffffffffff168473ffffffffffffffffffffffffffffffffffffffff1614156117f6576040517f08c379a00000000000000000000000000000000000000000000000000000000081526004016117ed906136fe565b60405180910390fd5b600061180061173a565b90506118108187878787876121d4565b60005b8451811015611a0d576000858281518110611857577f4e487b7100000000000000000000000000000000000000000000000000000000600052603260045260246000fd5b60200260200101519050600085838151811061189c577f4e487b7100000000000000000000000000000000000000000000000000000000600052603260045260246000fd5b60200260200101519050600080600084815260200190815260200160002060008b73ffffffffffffffffffffffffffffffffffffffff1673ffffffffffffffffffffffffffffffffffffffff1681526020019081526020016000205490508181101561193d576040517f08c379a00000000000000000000000000000000000000000000000000000000081526004016119349061375e565b60405180910390fd5b81810360008085815260200190815260200160002060008c73ffffffffffffffffffffffffffffffffffffffff1673ffffffffffffffffffffffffffffffffffffffff168152602001908152602001600020819055508160008085815260200190815260200160002060008b73ffffffffffffffffffffffffffffffffffffffff1673ffffffffffffffffffffffffffffffffffffffff16815260200190815260200160002060008282546119f29190613a1d565b9250508190555050505080611a0690613ca9565b9050611813565b508473ffffffffffffffffffffffffffffffffffffffff168673ffffffffffffffffffffffffffffffffffffffff168273ffffffffffffffffffffffffffffffffffffffff167f4a39dc06d4c0dbc64b70af90fd698a233a518aa5d07e595d983b8c0526c8f7fb8787604051611a84929190613590565b60405180910390a4611a9a8187878787876121dc565b505050505050565b600073ffffffffffffffffffffffffffffffffffffffff168473ffffffffffffffffffffffffffffffffffffffff161415611b12576040517f08c379a0000000000000000000000000000000000000000000000000000000008152600401611b099061383e565b60405180910390fd5b6000611b1c61173a565b9050611b3d81600087611b2e886123c3565b611b37886123c3565b876121d4565b8260008086815260200190815260200160002060008773ffffffffffffffffffffffffffffffffffffffff1673ffffffffffffffffffffffffffffffffffffffff1681526020019081526020016000206000828254611b9c9190613a1d565b925050819055508473ffffffffffffffffffffffffffffffffffffffff16600073ffffffffffffffffffffffffffffffffffffffff168273ffffffffffffffffffffffffffffffffffffffff167fc3d58168c5ae7397731d063d5bbf3d657854427343f4c083240f7aacaa2d0f628787604051611c1a929190613879565b60405180910390a4611c3181600087878787612489565b5050505050565b60606000821415611c80576040518060400160405280600181526020017f30000000000000000000000000000000000000000000000000000000000000008152509050611de0565b600082905060005b60008214611cb2578080611c9b90613ca9565b915050600a82611cab9190613a73565b9150611c88565b60008167ffffffffffffffff811115611cf4577f4e487b7100000000000000000000000000000000000000000000000000000000600052604160045260246000fd5b6040519080825280601f01601f191660200182016040528015611d265781602001600182028036833780820191505090505b5090505b60008514611dd957600182611d3f9190613afe565b9150600a85611d4e9190613cf2565b6030611d5a9190613a1d565b60f81b818381518110611d96577f4e487b7100000000000000000000000000000000000000000000000000000000600052603260045260246000fd5b60200101907effffffffffffffffffffffffffffffffffffffffffffffffffffffffffffff1916908160001a905350600a85611dd29190613a73565b9450611d2a565b8093505050505b919050565b8173ffffffffffffffffffffffffffffffffffffffff168373ffffffffffffffffffffffffffffffffffffffff161415611e54576040517f08c379a0000000000000000000000000000000000000000000000000000000008152600401611e4b906137de565b60405180910390fd5b80600160008573ffffffffffffffffffffffffffffffffffffffff1673ffffffffffffffffffffffffffffffffffffffff16815260200190815260200160002060008473ffffffffffffffffffffffffffffffffffffffff1673ffffffffffffffffffffffffffffffffffffffff16815260200190815260200160002060006101000a81548160ff0219169083151502179055508173ffffffffffffffffffffffffffffffffffffffff168373ffffffffffffffffffffffffffffffffffffffff167f17307eab39ab6107e8899845ad3d59bd9653f200f220920489ca2b5937696c3183604051611f4591906135c7565b60405180910390a3505050565b600073ffffffffffffffffffffffffffffffffffffffff168473ffffffffffffffffffffffffffffffffffffffff161415611fc2576040517f08c379a0000000000000000000000000000000000000000000000000000000008152600401611fb9906136fe565b60405180910390fd5b6000611fcc61173a565b9050611fec818787611fdd886123c3565b611fe6886123c3565b876121d4565b600080600086815260200190815260200160002060008873ffffffffffffffffffffffffffffffffffffffff1673ffffffffffffffffffffffffffffffffffffffff16815260200190815260200160002054905083811015612083576040517f08c379a000000000000000000000000000000000000000000000000000000000815260040161207a9061375e565b60405180910390fd5b83810360008087815260200190815260200160002060008973ffffffffffffffffffffffffffffffffffffffff1673ffffffffffffffffffffffffffffffffffffffff168152602001908152602001600020819055508360008087815260200190815260200160002060008873ffffffffffffffffffffffffffffffffffffffff1673ffffffffffffffffffffffffffffffffffffffff16815260200190815260200160002060008282546121389190613a1d565b925050819055508573ffffffffffffffffffffffffffffffffffffffff168773ffffffffffffffffffffffffffffffffffffffff168373ffffffffffffffffffffffffffffffffffffffff167fc3d58168c5ae7397731d063d5bbf3d657854427343f4c083240f7aacaa2d0f6288886040516121b5929190613879565b60405180910390a46121cb828888888888612489565b50505050505050565b505050505050565b6121fb8473ffffffffffffffffffffffffffffffffffffffff16612670565b156123bb578373ffffffffffffffffffffffffffffffffffffffff1663bc197c8187878686866040518663ffffffff1660e01b8152600401612241959493929190613475565b602060405180830381600087803b15801561225b57600080fd5b505af192505050801561228c57506040513d601f19601f820116820180604052508101906122899190612ccf565b60015b61233257612298613ddf565b806308c379a014156122f557506122ad614368565b806122b857506122f7565b806040517f08c379a00000000000000000000000000000000000000000000000000000000081526004016122ec91906135e2565b60405180910390fd5b505b6040517f08c379a00000000000000000000000000000000000000000000000000000000081526004016123299061365e565b60405180910390fd5b63bc197c8160e01b7bffffffffffffffffffffffffffffffffffffffffffffffffffffffff1916817bffffffffffffffffffffffffffffffffffffffffffffffffffffffff1916146123b9576040517f08c379a00000000000000000000000000000000000000000000000000000000081526004016123b09061367e565b60405180910390fd5b505b505050505050565b60606000600167ffffffffffffffff811115612408577f4e487b7100000000000000000000000000000000000000000000000000000000600052604160045260246000fd5b6040519080825280602002602001820160405280156124365781602001602082028036833780820191505090505b5090508281600081518110612474577f4e487b7100000000000000000000000000000000000000000000000000000000600052603260045260246000fd5b60200260200101818152505080915050919050565b6124a88473ffffffffffffffffffffffffffffffffffffffff16612670565b15612668578373ffffffffffffffffffffffffffffffffffffffff1663f23a6e6187878686866040518663ffffffff1660e01b81526004016124ee959493929190613514565b602060405180830381600087803b15801561250857600080fd5b505af192505050801561253957506040513d601f19601f820116820180604052508101906125369190612ccf565b60015b6125df57612545613ddf565b806308c379a014156125a2575061255a614368565b8061256557506125a4565b806040517f08c379a000000000000000000000000000000000000000000000000000000000815260040161259991906135e2565b60405180910390fd5b505b6040517f08c379a00000000000000000000000000000000000000000000000000000000081526004016125d69061365e565b60405180910390fd5b63f23a6e6160e01b7bffffffffffffffffffffffffffffffffffffffffffffffffffffffff1916817bffffffffffffffffffffffffffffffffffffffffffffffffffffffff191614612666576040517f08c379a000000000000000000000000000000000000000000000000000000000815260040161265d9061367e565b60405180910390fd5b505b505050505050565b6000808273ffffffffffffffffffffffffffffffffffffffff163b119050919050565b82805461269f90613c12565b90600052602060002090601f0160209004810192826126c15760008555612708565b82601f106126da57805160ff1916838001178555612708565b82800160010185558215612708579182015b828111156127075782518255916020019190600101906126ec565b5b5090506127159190612719565b5090565b5b8082111561273257600081600090555060010161271a565b5090565b6000612749612744846138c7565b6138a2565b9050808382526020820190508285602086028201111561276857600080fd5b60005b85811015612798578161277e888261288a565b84526020840193506020830192505060018101905061276b565b5050509392505050565b60006127b56127b0846138f3565b6138a2565b905080838252602082019050828560208602820111156127d457600080fd5b60005b8581101561280457816127ea88826129e5565b8452602084019350602083019250506001810190506127d7565b5050509392505050565b600061282161281c8461391f565b6138a2565b90508281526020810184848401111561283957600080fd5b612844848285613bd0565b509392505050565b600061285f61285a84613950565b6138a2565b90508281526020810184848401111561287757600080fd5b612882848285613bd0565b509392505050565b600081359050612899816143fe565b92915050565b600082601f8301126128b057600080fd5b81356128c0848260208601612736565b91505092915050565b600082601f8301126128da57600080fd5b81356128ea8482602086016127a2565b91505092915050565b60008135905061290281614415565b92915050565b60008151905061291781614415565b92915050565b60008135905061292c8161442c565b92915050565b6000815190506129418161442c565b92915050565b600082601f83011261295857600080fd5b813561296884826020860161280e565b91505092915050565b60008083601f84011261298357600080fd5b8235905067ffffffffffffffff81111561299c57600080fd5b6020830191508360018202830111156129b457600080fd5b9250929050565b600082601f8301126129cc57600080fd5b81356129dc84826020860161284c565b91505092915050565b6000813590506129f481614443565b92915050565b600081519050612a0981614443565b92915050565b60008060408385031215612a2257600080fd5b6000612a308582860161288a565b9250506020612a418582860161288a565b9150509250929050565b600080600080600060a08688031215612a6357600080fd5b6000612a718882890161288a565b9550506020612a828882890161288a565b945050604086013567ffffffffffffffff811115612a9f57600080fd5b612aab888289016128c9565b935050606086013567ffffffffffffffff811115612ac857600080fd5b612ad4888289016128c9565b925050608086013567ffffffffffffffff811115612af157600080fd5b612afd88828901612947565b9150509295509295909350565b600080600080600060a08688031215612b2257600080fd5b6000612b308882890161288a565b9550506020612b418882890161288a565b9450506040612b52888289016129e5565b9350506060612b63888289016129e5565b925050608086013567ffffffffffffffff811115612b8057600080fd5b612b8c88828901612947565b9150509295509295909350565b60008060408385031215612bac57600080fd5b6000612bba8582860161288a565b9250506020612bcb858286016128f3565b9150509250929050565b60008060408385031215612be857600080fd5b6000612bf68582860161288a565b9250506020612c07858286016129e5565b9150509250929050565b60008060408385031215612c2457600080fd5b600083013567ffffffffffffffff811115612c3e57600080fd5b612c4a8582860161289f565b925050602083013567ffffffffffffffff811115612c6757600080fd5b612c73858286016128c9565b9150509250929050565b600060208284031215612c8f57600080fd5b6000612c9d84828501612908565b91505092915050565b600060208284031215612cb857600080fd5b6000612cc68482850161291d565b91505092915050565b600060208284031215612ce157600080fd5b6000612cef84828501612932565b91505092915050565b60008060208385031215612d0b57600080fd5b600083013567ffffffffffffffff811115612d2557600080fd5b612d3185828601612971565b92509250509250929050565b600060208284031215612d4f57600080fd5b600082013567ffffffffffffffff811115612d6957600080fd5b612d75848285016129bb565b91505092915050565b600060208284031215612d9057600080fd5b6000612d9e848285016129e5565b91505092915050565b600060208284031215612db957600080fd5b6000612dc7848285016129fa565b91505092915050565b60008060408385031215612de357600080fd5b6000612df1858286016129e5565b9250506020612e02858286016129e5565b9150509250929050565b600080600060608486031215612e2157600080fd5b6000612e2f868287016129e5565b9350506020612e40868287016129e5565b9250506040612e51868287016129e5565b9150509250925092565b6000612e678383612ec6565b60208301905092915050565b6000612e7f838361300a565b905092915050565b6000612e9383836133cf565b60208301905092915050565b6000612eab83836133ed565b60208301905092915050565b612ec081613b5c565b82525050565b612ecf81613b5c565b82525050565b6000612ee0826139a6565b612eea81856139d4565b9350612ef583613981565b8060005b83811015612f26578151612f0d8882612e87565b9750612f18836139c7565b925050600181019050612ef9565b5085935050505092915050565b612f3c81613b6e565b82525050565b6000612f4d826139b1565b612f5781856139e5565b9350612f67818560208601613bdf565b612f7081613e01565b840191505092915050565b6000612f878385613a12565b9350612f94838584613bd0565b82840190509392505050565b6000612fab826139bc565b612fb581856139f6565b9350612fc5818560208601613bdf565b612fce81613e01565b840191505092915050565b6000612fe4826139bc565b612fee8185613a12565b9350612ffe818560208601613bdf565b80840191505092915050565b6000815461301781613c12565b6130218186613a07565b9450600182166000811461303c576001811461304e57613081565b60ff1983168652602086019350613081565b61305785613991565b60005b838110156130795781548189015260018201915060208101905061305a565b808801955050505b50505092915050565b6000815461309781613c12565b6130a18186613a12565b945060018216600081146130bc57600181146130cd57613100565b60ff19831686528186019350613100565b6130d685613991565b60005b838110156130f8578154818901526001820191506020810190506130d9565b838801955050505b50505092915050565b60006131166034836139f6565b915061312182613e2c565b604082019050919050565b60006131396028836139f6565b915061314482613e7b565b604082019050919050565b600061315c601d836139f6565b915061316782613eca565b602082019050919050565b600061317f602b836139f6565b915061318a82613ef3565b604082019050919050565b60006131a26029836139f6565b91506131ad82613f42565b604082019050919050565b60006131c56025836139f6565b91506131d082613f91565b604082019050919050565b60006131e86032836139f6565b91506131f382613fe0565b604082019050919050565b600061320b6041836139f6565b91506132168261402f565b606082019050919050565b600061322e602a836139f6565b9150613239826140a4565b604082019050919050565b60006132516026836139f6565b915061325c826140f3565b604082019050919050565b60006132746065836139f6565b915061327f82614142565b608082019050919050565b60006132976040836139f6565b91506132a2826141dd565b604082019050919050565b60006132ba6029836139f6565b91506132c58261422c565b604082019050919050565b60006132dd6029836139f6565b91506132e88261427b565b604082019050919050565b60006133006028836139f6565b915061330b826142ca565b604082019050919050565b60006133236021836139f6565b915061332e82614319565b604082019050919050565b6000808301600080840161334d8682612e73565b9550506001840154905061336081613c5e565b61336a8682612e9f565b9550506002840154905061337d81613c44565b6133878682612e5b565b9550506003840154905061339a81613c5e565b6133a48682612e9f565b955050600484015490506133b781613c5e565b6133c18682612e9f565b955050849250505092915050565b6133d881613bc6565b82525050565b6133e781613bc6565b82525050565b6133f681613bc6565b82525050565b6000613409828486612f7b565b91508190509392505050565b60006134218284612fd9565b915081905092915050565b6000613438828461308a565b915081905092915050565b600061344f8284613339565b915081905092915050565b600060208201905061346f6000830184612eb7565b92915050565b600060a08201905061348a6000830188612eb7565b6134976020830187612eb7565b81810360408301526134a98186612ed5565b905081810360608301526134bd8185612ed5565b905081810360808301526134d18184612f42565b90509695505050505050565b60006060820190506134f26000830186612eb7565b6134ff6020830185612eb7565b61350c60408301846133de565b949350505050565b600060a0820190506135296000830188612eb7565b6135366020830187612eb7565b61354360408301866133de565b61355060608301856133de565b81810360808301526135628184612f42565b90509695505050505050565b600060208201905081810360008301526135888184612ed5565b905092915050565b600060408201905081810360008301526135aa8185612ed5565b905081810360208301526135be8184612ed5565b90509392505050565b60006020820190506135dc6000830184612f33565b92915050565b600060208201905081810360008301526135fc8184612fa0565b905092915050565b600060a082019050818103600083015261361e8188612fa0565b905061362d60208301876133de565b61363a6040830186612eb7565b61364760608301856133de565b61365460808301846133de565b9695505050505050565b6000602082019050818103600083015261367781613109565b9050919050565b600060208201905081810360008301526136978161312c565b9050919050565b600060208201905081810360008301526136b78161314f565b9050919050565b600060208201905081810360008301526136d781613172565b9050919050565b600060208201905081810360008301526136f781613195565b9050919050565b60006020820190508181036000830152613717816131b8565b9050919050565b60006020820190508181036000830152613737816131db565b9050919050565b60006020820190508181036000830152613757816131fe565b9050919050565b6000602082019050818103600083015261377781613221565b9050919050565b6000602082019050818103600083015261379781613244565b9050919050565b600060208201905081810360008301526137b781613267565b9050919050565b600060208201905081810360008301526137d78161328a565b9050919050565b600060208201905081810360008301526137f7816132ad565b9050919050565b60006020820190508181036000830152613817816132d0565b9050919050565b60006020820190508181036000830152613837816132f3565b9050919050565b6000602082019050818103600083015261385781613316565b9050919050565b600060208201905061387360008301846133de565b92915050565b600060408201905061388e60008301856133de565b61389b60208301846133de565b9392505050565b60006138ac6138bd565b90506138b88282613c78565b919050565b6000604051905090565b600067ffffffffffffffff8211156138e2576138e1613db0565b5b602082029050602081019050919050565b600067ffffffffffffffff82111561390e5761390d613db0565b5b602082029050602081019050919050565b600067ffffffffffffffff82111561393a57613939613db0565b5b61394382613e01565b9050602081019050919050565b600067ffffffffffffffff82111561396b5761396a613db0565b5b61397482613e01565b9050602081019050919050565b6000819050602082019050919050565b60008190508160005260206000209050919050565b600081519050919050565b600081519050919050565b600081519050919050565b6000602082019050919050565b600082825260208201905092915050565b600082825260208201905092915050565b600082825260208201905092915050565b600081905092915050565b600081905092915050565b6000613a2882613bc6565b9150613a3383613bc6565b9250827fffffffffffffffffffffffffffffffffffffffffffffffffffffffffffffffff03821115613a6857613a67613d23565b5b828201905092915050565b6000613a7e82613bc6565b9150613a8983613bc6565b925082613a9957613a98613d52565b5b828204905092915050565b6000613aaf82613bc6565b9150613aba83613bc6565b9250817fffffffffffffffffffffffffffffffffffffffffffffffffffffffffffffffff0483118215151615613af357613af2613d23565b5b828202905092915050565b6000613b0982613bc6565b9150613b1483613bc6565b925082821015613b2757613b26613d23565b5b828203905092915050565b600073ffffffffffffffffffffffffffffffffffffffff82169050919050565b6000819050919050565b6000613b6782613ba6565b9050919050565b60008115159050919050565b60007fffffffff0000000000000000000000000000000000000000000000000000000082169050919050565b600073ffffffffffffffffffffffffffffffffffffffff82169050919050565b6000819050919050565b82818337600083830152505050565b60005b83811015613bfd578082015181840152602081019050613be2565b83811115613c0c576000848401525b50505050565b60006002820490506001821680613c2a57607f821691505b60208210811415613c3e57613c3d613d81565b5b50919050565b6000613c57613c5283613e12565b613b32565b9050919050565b6000613c71613c6c83613e12565b613b52565b9050919050565b613c8182613e01565b810181811067ffffffffffffffff82111715613ca057613c9f613db0565b5b80604052505050565b6000613cb482613bc6565b91507fffffffffffffffffffffffffffffffffffffffffffffffffffffffffffffffff821415613ce757613ce6613d23565b5b600182019050919050565b6000613cfd82613bc6565b9150613d0883613bc6565b925082613d1857613d17613d52565b5b828206905092915050565b7f4e487b7100000000000000000000000000000000000000000000000000000000600052601160045260246000fd5b7f4e487b7100000000000000000000000000000000000000000000000000000000600052601260045260246000fd5b7f4e487b7100000000000000000000000000000000000000000000000000000000600052602260045260246000fd5b7f4e487b7100000000000000000000000000000000000000000000000000000000600052604160045260246000fd5b600060033d1115613dfe5760046000803e613dfb600051613e1f565b90505b90565b6000601f19601f8301169050919050565b60008160001c9050919050565b60008160e01c9050919050565b7f455243313135353a207472616e7366657220746f206e6f6e204552433131353560008201527f526563656976657220696d706c656d656e746572000000000000000000000000602082015250565b7f455243313135353a204552433131353552656365697665722072656a6563746560008201527f6420746f6b656e73000000000000000000000000000000000000000000000000602082015250565b7f596f7520646f6e2774206861766520656e6f756768206d6f6e65792021000000600082015250565b7f455243313135353a2062616c616e636520717565727920666f7220746865207a60008201527f65726f2061646472657373000000000000000000000000000000000000000000602082015250565b7f455243313135353a2063616c6c6572206973206e6f74206f776e6572206e6f7260008201527f20617070726f7665640000000000000000000000000000000000000000000000602082015250565b7f455243313135353a207472616e7366657220746f20746865207a65726f20616460008201527f6472657373000000000000000000000000000000000000000000000000000000602082015250565b7f455243313135353a207472616e736665722063616c6c6572206973206e6f742060008201527f6f776e6572206e6f7220617070726f7665640000000000000000000000000000602082015250565b7f596f752061736b20666f7220746f6f206d7563683a20706c656173652063686560008201527f636b207468652063757272656e7420617661696c61626c6520737570706c792060208201527f2100000000000000000000000000000000000000000000000000000000000000604082015250565b7f455243313135353a20696e73756666696369656e742062616c616e636520666f60008201527f72207472616e7366657200000000000000000000000000000000000000000000602082015250565b7f596f7572204973737565722068617320616c7265616479206265656e2063726560008201527f6174656420210000000000000000000000000000000000000000000000000000602082015250565b7f596f7520646f6e2774206861766520656e6f756768206d6f6e657920666f722060008201527f637265617465206365727469666963617465202120596f75206e65656420746f60208201527f206861766520322074696d6520746865207072696365206f6e20796f7572207760408201527f616c6c6574000000000000000000000000000000000000000000000000000000606082015250565b7f596f757220617265206e6f7420746865206f776e6572206f662074686520497360008201527f73756572202120596f752063616e277420646f207468697320616374696f6e2e602082015250565b7f455243313135353a2073657474696e6720617070726f76616c2073746174757360008201527f20666f722073656c660000000000000000000000000000000000000000000000602082015250565b7f455243313135353a206163636f756e747320616e6420696473206c656e67746860008201527f206d69736d617463680000000000000000000000000000000000000000000000602082015250565b7f455243313135353a2069647320616e6420616d6f756e7473206c656e6774682060008201527f6d69736d61746368000000000000000000000000000000000000000000000000602082015250565b7f455243313135353a206d696e7420746f20746865207a65726f2061646472657360008201527f7300000000000000000000000000000000000000000000000000000000000000602082015250565b600060443d1015614378576143fb565b6143806138bd565b60043d036004823e80513d602482011167ffffffffffffffff821117156143a85750506143fb565b808201805167ffffffffffffffff8111156143c657505050506143fb565b80602083010160043d0385018111156143e35750505050506143fb565b6143f282602001850186613c78565b82955050505050505b90565b61440781613b5c565b811461441257600080fd5b50565b61441e81613b6e565b811461442957600080fd5b50565b61443581613b7a565b811461444057600080fd5b50565b61444c81613bc6565b811461445757600080fd5b5056fea264697066735822122023e1c636b371d54df607a833b4d8d7693186bea869b9e3ef020caa9a0c3dc22464736f6c6343000804003368747470733a2f2f697066732e696f2f697066732f516d55457951326a6635476634577855417047694c627a756957436f5a786e4d75477a6f716851704832746632782f7b69647d2e6a736f6e",
  "linkReferences": {},
  "deployedLinkReferences": {}
}