{
  "_format": "hh-sol-artifact-1",
  "contractName": "silo",
  "sourceName": "contracts/Silo.sol",
  "abi": [
    {
      "inputs": [
        {
          "internalType": "address",
          "name": "_dai",
          "type": "address"
        }
      ],
      "stateMutability": "nonpayable",
      "type": "constructor"
    },
    {
      "anonymous": false,
      "inputs": [
        {
          "indexed": true,
          "internalType": "address",
          "name": "account",
          "type": "address"
        },
        {
          "indexed": true,
          "internalType": "address",
          "name": "operator",
          "type": "address"
        },
        {
          "indexed": false,
          "internalType": "bool",
          "name": "approved",
          "type": "bool"
        }
      ],
      "name": "ApprovalForAll",
      "type": "event"
    },
    {
      "anonymous": false,
      "inputs": [
        {
          "indexed": true,
          "internalType": "address",
          "name": "operator",
          "type": "address"
        },
        {
          "indexed": true,
          "internalType": "address",
          "name": "from",
          "type": "address"
        },
        {
          "indexed": true,
          "internalType": "address",
          "name": "to",
          "type": "address"
        },
        {
          "indexed": false,
          "internalType": "uint256[]",
          "name": "ids",
          "type": "uint256[]"
        },
        {
          "indexed": false,
          "internalType": "uint256[]",
          "name": "values",
          "type": "uint256[]"
        }
      ],
      "name": "TransferBatch",
      "type": "event"
    },
    {
      "anonymous": false,
      "inputs": [
        {
          "indexed": true,
          "internalType": "address",
          "name": "operator",
          "type": "address"
        },
        {
          "indexed": true,
          "internalType": "address",
          "name": "from",
          "type": "address"
        },
        {
          "indexed": true,
          "internalType": "address",
          "name": "to",
          "type": "address"
        },
        {
          "indexed": false,
          "internalType": "uint256",
          "name": "id",
          "type": "uint256"
        },
        {
          "indexed": false,
          "internalType": "uint256",
          "name": "value",
          "type": "uint256"
        }
      ],
      "name": "TransferSingle",
      "type": "event"
    },
    {
      "anonymous": false,
      "inputs": [
        {
          "indexed": false,
          "internalType": "string",
          "name": "value",
          "type": "string"
        },
        {
          "indexed": true,
          "internalType": "uint256",
          "name": "id",
          "type": "uint256"
        }
      ],
      "name": "URI",
      "type": "event"
    },
    {
      "inputs": [
        {
          "internalType": "string",
          "name": "_name",
          "type": "string"
        },
        {
          "internalType": "string",
          "name": "_companyInfo",
          "type": "string"
        }
      ],
      "name": "addIssuer",
      "outputs": [],
      "stateMutability": "payable",
      "type": "function"
    },
    {
      "inputs": [
        {
          "internalType": "address",
          "name": "account",
          "type": "address"
        },
        {
          "internalType": "uint256",
          "name": "id",
          "type": "uint256"
        }
      ],
      "name": "balanceOf",
      "outputs": [
        {
          "internalType": "uint256",
          "name": "",
          "type": "uint256"
        }
      ],
      "stateMutability": "view",
      "type": "function"
    },
    {
      "inputs": [
        {
          "internalType": "address[]",
          "name": "accounts",
          "type": "address[]"
        },
        {
          "internalType": "uint256[]",
          "name": "ids",
          "type": "uint256[]"
        }
      ],
      "name": "balanceOfBatch",
      "outputs": [
        {
          "internalType": "uint256[]",
          "name": "",
          "type": "uint256[]"
        }
      ],
      "stateMutability": "view",
      "type": "function"
    },
    {
      "inputs": [
        {
          "internalType": "uint256",
          "name": "_UIDIssuer",
          "type": "uint256"
        },
        {
          "internalType": "uint256",
          "name": "_typeItem",
          "type": "uint256"
        },
        {
          "internalType": "uint256",
          "name": "_supply",
          "type": "uint256"
        }
      ],
      "name": "buy",
      "outputs": [],
      "stateMutability": "nonpayable",
      "type": "function"
    },
    {
      "inputs": [
        {
          "internalType": "uint256",
          "name": "_UIDIssuer",
          "type": "uint256"
        },
        {
          "internalType": "string",
          "name": "_compagnyInfo",
          "type": "string"
        }
      ],
      "name": "changeCompagnyInfo",
      "outputs": [],
      "stateMutability": "payable",
      "type": "function"
    },
    {
      "inputs": [
        {
          "internalType": "uint256",
          "name": "_UIDIssuer",
          "type": "uint256"
        },
        {
          "internalType": "uint256",
          "name": "_typeItem",
          "type": "uint256"
        },
        {
          "internalType": "uint256",
          "name": "_newPrice",
          "type": "uint256"
        }
      ],
      "name": "changePrice",
      "outputs": [],
      "stateMutability": "payable",
      "type": "function"
    },
    {
      "inputs": [
        {
          "internalType": "uint256",
          "name": "_UIDIssuer",
          "type": "uint256"
        },
        {
          "internalType": "uint256",
          "name": "_typeItem",
          "type": "uint256"
        },
        {
          "internalType": "uint256",
          "name": "_newSupply",
          "type": "uint256"
        }
      ],
      "name": "changeSupply",
      "outputs": [],
      "stateMutability": "payable",
      "type": "function"
    },
    {
      "inputs": [
        {
          "internalType": "uint256",
          "name": "_UIDIssuer",
          "type": "uint256"
        },
        {
          "internalType": "uint256",
          "name": "_typeItem",
          "type": "uint256"
        },
        {
          "internalType": "uint256",
          "name": "_price",
          "type": "uint256"
        },
        {
          "internalType": "uint256",
          "name": "_supply",
          "type": "uint256"
        }
      ],
      "name": "create",
      "outputs": [],
      "stateMutability": "nonpayable",
      "type": "function"
    },
    {
      "inputs": [
        {
          "internalType": "uint256",
          "name": "_UID",
          "type": "uint256"
        },
        {
          "internalType": "uint256",
          "name": "_item",
          "type": "uint256"
        }
      ],
      "name": "getItem",
      "outputs": [
        {
          "components": [
            {
              "internalType": "uint256",
              "name": "price",
              "type": "uint256"
            },
            {
              "internalType": "uint256",
              "name": "supply",
              "type": "uint256"
            },
            {
              "internalType": "address",
              "name": "issuerHolder",
              "type": "address"
            }
          ],
          "internalType": "struct silo.Item",
          "name": "",
          "type": "tuple"
        }
      ],
      "stateMutability": "view",
      "type": "function"
    },
    {
      "inputs": [
        {
          "internalType": "string",
          "name": "_name",
          "type": "string"
        }
      ],
      "name": "getUidIssuer",
      "outputs": [
        {
          "internalType": "string",
          "name": "",
          "type": "string"
        }
      ],
      "stateMutability": "view",
      "type": "function"
    },
    {
      "inputs": [
        {
          "internalType": "address",
          "name": "account",
          "type": "address"
        },
        {
          "internalType": "address",
          "name": "operator",
          "type": "address"
        }
      ],
      "name": "isApprovedForAll",
      "outputs": [
        {
          "internalType": "bool",
          "name": "",
          "type": "bool"
        }
      ],
      "stateMutability": "view",
      "type": "function"
    },
    {
      "inputs": [
        {
          "internalType": "uint256",
          "name": "",
          "type": "uint256"
        }
      ],
      "name": "issuer",
      "outputs": [
        {
          "internalType": "string",
          "name": "name",
          "type": "string"
        },
        {
          "internalType": "uint256",
          "name": "UID",
          "type": "uint256"
        },
        {
          "internalType": "address",
          "name": "addressIssuer",
          "type": "address"
        },
        {
          "internalType": "string",
          "name": "companyInfo",
          "type": "string"
        },
        {
          "internalType": "uint256",
          "name": "typeItem",
          "type": "uint256"
        }
      ],
      "stateMutability": "view",
      "type": "function"
    },
    {
      "inputs": [
        {
          "internalType": "address",
          "name": "from",
          "type": "address"
        },
        {
          "internalType": "address",
          "name": "to",
          "type": "address"
        },
        {
          "internalType": "uint256[]",
          "name": "ids",
          "type": "uint256[]"
        },
        {
          "internalType": "uint256[]",
          "name": "amounts",
          "type": "uint256[]"
        },
        {
          "internalType": "bytes",
          "name": "data",
          "type": "bytes"
        }
      ],
      "name": "safeBatchTransferFrom",
      "outputs": [],
      "stateMutability": "nonpayable",
      "type": "function"
    },
    {
      "inputs": [
        {
          "internalType": "address",
          "name": "from",
          "type": "address"
        },
        {
          "internalType": "address",
          "name": "to",
          "type": "address"
        },
        {
          "internalType": "uint256",
          "name": "id",
          "type": "uint256"
        },
        {
          "internalType": "uint256",
          "name": "amount",
          "type": "uint256"
        },
        {
          "internalType": "bytes",
          "name": "data",
          "type": "bytes"
        }
      ],
      "name": "safeTransferFrom",
      "outputs": [],
      "stateMutability": "nonpayable",
      "type": "function"
    },
    {
      "inputs": [
        {
          "internalType": "string",
          "name": "_name",
          "type": "string"
        }
      ],
      "name": "sell",
      "outputs": [],
      "stateMutability": "nonpayable",
      "type": "function"
    },
    {
      "inputs": [
        {
          "internalType": "address",
          "name": "operator",
          "type": "address"
        },
        {
          "internalType": "bool",
          "name": "approved",
          "type": "bool"
        }
      ],
      "name": "setApprovalForAll",
      "outputs": [],
      "stateMutability": "nonpayable",
      "type": "function"
    },
    {
      "inputs": [
        {
          "internalType": "bytes4",
          "name": "interfaceId",
          "type": "bytes4"
        }
      ],
      "name": "supportsInterface",
      "outputs": [
        {
          "internalType": "bool",
          "name": "",
          "type": "bool"
        }
      ],
      "stateMutability": "view",
      "type": "function"
    },
    {
      "inputs": [
        {
          "internalType": "uint256",
          "name": "",
          "type": "uint256"
        }
      ],
      "name": "uri",
      "outputs": [
        {
          "internalType": "string",
          "name": "",
          "type": "string"
        }
      ],
      "stateMutability": "view",
      "type": "function"
    }
  ],
  "bytecode": "0x608060405260006004553480156200001657600080fd5b506040516200458d3803806200458d83398181016040528101906200003c919062000193565b6040518060800160405280604d815260200162004540604d91396200006781620000b060201b60201c565b5080600360006101000a81548173ffffffffffffffffffffffffffffffffffffffff021916908373ffffffffffffffffffffffffffffffffffffffff1602179055505062000272565b8060029080519060200190620000c8929190620000cc565b5050565b828054620000da90620001f3565b90600052602060002090601f016020900481019282620000fe57600085556200014a565b82601f106200011957805160ff19168380011785556200014a565b828001600101855582156200014a579182015b82811115620001495782518255916020019190600101906200012c565b5b5090506200015991906200015d565b5090565b5b80821115620001785760008160009055506001016200015e565b5090565b6000815190506200018d8162000258565b92915050565b600060208284031215620001a657600080fd5b6000620001b6848285016200017c565b91505092915050565b6000620001cc82620001d3565b9050919050565b600073ffffffffffffffffffffffffffffffffffffffff82169050919050565b600060028204905060018216806200020c57607f821691505b6020821081141562000223576200022262000229565b5b50919050565b7f4e487b7100000000000000000000000000000000000000000000000000000000600052602260045260246000fd5b6200026381620001bf565b81146200026f57600080fd5b50565b6142be80620002826000396000f3fe6080604052600436106101075760003560e01c806359cc334a11610095578063badcd02711610064578063badcd02714610397578063bf717b7a146103b3578063e985e9c5146103cf578063eb48e53c1461040c578063f242432a1461043557610107565b806359cc334a146102cb5780636c69440c1461030857806392848c9e14610345578063a22cb4651461036e57610107565b80632eb2c2d6116100dc5780632eb2c2d61461020457806340993b261461022d57806340e2b4b8146102565780634ca1801d146102725780634e1273f41461028e57610107565b806268fe8b1461010c578062fdd58e1461014d57806301ffc9a71461018a5780630e89341c146101c7575b600080fd5b34801561011857600080fd5b50610133600480360381019061012e9190612d65565b61045e565b604051610144959493929190613541565b60405180910390f35b34801561015957600080fd5b50610174600480360381019061016f9190612b50565b6105c4565b604051610181919061379d565b60405180910390f35b34801561019657600080fd5b506101b160048036038101906101ac9190612c21565b61068d565b6040516101be9190613504565b60405180910390f35b3480156101d357600080fd5b506101ee60048036038101906101e99190612d65565b61076f565b6040516101fb919061351f565b60405180910390f35b34801561021057600080fd5b5061022b600480360381019061022691906129c6565b610803565b005b34801561023957600080fd5b50610254600480360381019061024f9190612e47565b6108a4565b005b610270600480360381019061026b9190612e47565b610bab565b005b61028c60048036038101906102879190612db7565b610c83565b005b34801561029a57600080fd5b506102b560048036038101906102b09190612b8c565b610d56565b6040516102c291906134ab565b60405180910390f35b3480156102d757600080fd5b506102f260048036038101906102ed9190612e0b565b610f07565b6040516102ff9190613782565b60405180910390f35b34801561031457600080fd5b5061032f600480360381019061032a9190612c73565b610fb3565b60405161033c919061351f565b60405180910390f35b34801561035157600080fd5b5061036c60048036038101906103679190612e96565b6110a7565b005b34801561037a57600080fd5b5061039560048036038101906103909190612b14565b61122a565b005b6103b160048036038101906103ac9190612e47565b611240565b005b6103cd60048036038101906103c89190612cf9565b611318565b005b3480156103db57600080fd5b506103f660048036038101906103f1919061298a565b6114dc565b6040516104039190613504565b60405180910390f35b34801561041857600080fd5b50610433600480360381019061042e9190612cb8565b611570565b005b34801561044157600080fd5b5061045c60048036038101906104579190612a85565b611573565b005b600560205280600052604060002060009150905080600001805461048190613b1c565b80601f01602080910402602001604051908101604052809291908181526020018280546104ad90613b1c565b80156104fa5780601f106104cf576101008083540402835291602001916104fa565b820191906000526020600020905b8154815290600101906020018083116104dd57829003601f168201915b5050505050908060010154908060020160009054906101000a900473ffffffffffffffffffffffffffffffffffffffff169080600301805461053b90613b1c565b80601f016020809104026020016040519081016040528092919081815260200182805461056790613b1c565b80156105b45780601f10610589576101008083540402835291602001916105b4565b820191906000526020600020905b81548152906001019060200180831161059757829003601f168201915b5050505050908060040154905085565b60008073ffffffffffffffffffffffffffffffffffffffff168373ffffffffffffffffffffffffffffffffffffffff161415610635576040517f08c379a000000000000000000000000000000000000000000000000000000000815260040161062c90613602565b60405180910390fd5b60008083815260200190815260200160002060008473ffffffffffffffffffffffffffffffffffffffff1673ffffffffffffffffffffffffffffffffffffffff16815260200190815260200160002054905092915050565b60007fd9b67a26000000000000000000000000000000000000000000000000000000007bffffffffffffffffffffffffffffffffffffffffffffffffffffffff1916827bffffffffffffffffffffffffffffffffffffffffffffffffffffffff1916148061075857507f0e89341c000000000000000000000000000000000000000000000000000000007bffffffffffffffffffffffffffffffffffffffffffffffffffffffff1916827bffffffffffffffffffffffffffffffffffffffffffffffffffffffff1916145b80610768575061076782611614565b5b9050919050565b60606002805461077e90613b1c565b80601f01602080910402602001604051908101604052809291908181526020018280546107aa90613b1c565b80156107f75780601f106107cc576101008083540402835291602001916107f7565b820191906000526020600020905b8154815290600101906020018083116107da57829003601f168201915b50505050509050919050565b61080b61167e565b73ffffffffffffffffffffffffffffffffffffffff168573ffffffffffffffffffffffffffffffffffffffff16148061085157506108508561084b61167e565b6114dc565b5b610890576040517f08c379a000000000000000000000000000000000000000000000000000000000815260040161088790613662565b60405180910390fd5b61089d8585858585611686565b5050505050565b6000670de0b6b3a764000060056000868152602001908152602001600020600501600085815260200190815260200160002060000154836108e591906139d8565b6108ef91906139d8565b90508160056000868152602001908152602001600020600501600085815260200190815260200160002060010154101561095e576040517f08c379a000000000000000000000000000000000000000000000000000000000815260040161095590613682565b60405180910390fd5b80600360009054906101000a900473ffffffffffffffffffffffffffffffffffffffff1673ffffffffffffffffffffffffffffffffffffffff166370a08231336040518263ffffffff1660e01b81526004016109ba9190613397565b60206040518083038186803b1580156109d257600080fd5b505afa1580156109e6573d6000803e3d6000fd5b505050506040513d601f19601f82011682018060405250810190610a0a9190612d8e565b1015610a4b576040517f08c379a0000000000000000000000000000000000000000000000000000000008152600401610a42906135e2565b60405180910390fd5b600360009054906101000a900473ffffffffffffffffffffffffffffffffffffffff1673ffffffffffffffffffffffffffffffffffffffff166323b872dd336005600088815260200190815260200160002060020160009054906101000a900473ffffffffffffffffffffffffffffffffffffffff16846040518463ffffffff1660e01b8152600401610ae09392919061341a565b602060405180830381600087803b158015610afa57600080fd5b505af1158015610b0e573d6000803e3d6000fd5b505050506040513d601f19601f82011682018060405250810190610b329190612bf8565b50816005600086815260200190815260200160002060050160008481526020019081526020016000206001016000828254610b6d9190613a32565b92505081905550610ba533600560008781526020019081526020016000206001015484604051806020016040528060008152506119e6565b50505050565b3373ffffffffffffffffffffffffffffffffffffffff166005600085815260200190815260200160002060020160009054906101000a900473ffffffffffffffffffffffffffffffffffffffff1673ffffffffffffffffffffffffffffffffffffffff1614610c4f576040517f08c379a0000000000000000000000000000000000000000000000000000000008152600401610c46906136e2565b60405180910390fd5b8060056000858152602001908152602001600020600501600084815260200190815260200160002060000181905550505050565b3373ffffffffffffffffffffffffffffffffffffffff166005600084815260200190815260200160002060020160009054906101000a900473ffffffffffffffffffffffffffffffffffffffff1673ffffffffffffffffffffffffffffffffffffffff1614610d27576040517f08c379a0000000000000000000000000000000000000000000000000000000008152600401610d1e906136e2565b60405180910390fd5b80600560008481526020019081526020016000206003019080519060200190610d519291906125d7565b505050565b60608151835114610d9c576040517f08c379a0000000000000000000000000000000000000000000000000000000008152600401610d9390613722565b60405180910390fd5b6000835167ffffffffffffffff811115610ddf577f4e487b7100000000000000000000000000000000000000000000000000000000600052604160045260246000fd5b604051908082528060200260200182016040528015610e0d5781602001602082028036833780820191505090505b50905060005b8451811015610efc57610ea6858281518110610e58577f4e487b7100000000000000000000000000000000000000000000000000000000600052603260045260246000fd5b6020026020010151858381518110610e99577f4e487b7100000000000000000000000000000000000000000000000000000000600052603260045260246000fd5b60200260200101516105c4565b828281518110610edf577f4e487b7100000000000000000000000000000000000000000000000000000000600052603260045260246000fd5b60200260200101818152505080610ef590613b7f565b9050610e13565b508091505092915050565b610f0f61265d565b60056000848152602001908152602001600020600501600083815260200190815260200160002060405180606001604052908160008201548152602001600182015481526020016002820160009054906101000a900473ffffffffffffffffffffffffffffffffffffffff1673ffffffffffffffffffffffffffffffffffffffff1673ffffffffffffffffffffffffffffffffffffffff1681525050905092915050565b606060005b600454811015611067578383604051602001610fd5929190613350565b60405160208183030381529060405280519060200120600560008381526020019081526020016000206000016040516020016110119190613380565b6040516020818303038152906040528051906020012014156110545761104c6005600083815260200190815260200160002060010154611b7c565b9150506110a1565b808061105f90613b7f565b915050610fb8565b506040518060400160405280601381526020017f4e616d65206e6f74207265636f676e697a65640000000000000000000000000081525090505b92915050565b3373ffffffffffffffffffffffffffffffffffffffff166005600086815260200190815260200160002060020160009054906101000a900473ffffffffffffffffffffffffffffffffffffffff1673ffffffffffffffffffffffffffffffffffffffff161461114b576040517f08c379a0000000000000000000000000000000000000000000000000000000008152600401611142906136e2565b60405180910390fd5b81600560008681526020019081526020016000206005016000858152602001908152602001600020600001819055503360056000868152602001908152602001600020600501600085815260200190815260200160002060020160006101000a81548173ffffffffffffffffffffffffffffffffffffffff021916908373ffffffffffffffffffffffffffffffffffffffff16021790555080600560008681526020019081526020016000206005016000858152602001908152602001600020600101600082825461121d9190613951565b9250508190555050505050565b61123c61123561167e565b8383611d29565b5050565b3373ffffffffffffffffffffffffffffffffffffffff166005600085815260200190815260200160002060020160009054906101000a900473ffffffffffffffffffffffffffffffffffffffff1673ffffffffffffffffffffffffffffffffffffffff16146112e4576040517f08c379a00000000000000000000000000000000000000000000000000000000081526004016112db906136e2565b60405180910390fd5b8060056000858152602001908152602001600020600501600084815260200190815260200160002060010181905550505050565b6000805b6004548110156113a757836040516020016113379190613369565b60405160208183030381529060405280519060200120600560008381526020019081526020016000206000016040516020016113739190613380565b60405160208183030381529060405280519060200120141561139457600191505b808061139f90613b7f565b91505061131c565b5060001515811515146113ef576040517f08c379a00000000000000000000000000000000000000000000000000000000081526004016113e6906136c2565b60405180910390fd5b82600560006004548152602001908152602001600020600001908051906020019061141b9291906125d7565b50600454600560006004548152602001908152602001600020600101819055503360056000600454815260200190815260200160002060020160006101000a81548173ffffffffffffffffffffffffffffffffffffffff021916908373ffffffffffffffffffffffffffffffffffffffff1602179055508160056000600454815260200190815260200160002060030190805190602001906114be9291906125d7565b50600460008154809291906114d290613b7f565b9190505550505050565b6000600160008473ffffffffffffffffffffffffffffffffffffffff1673ffffffffffffffffffffffffffffffffffffffff16815260200190815260200160002060008373ffffffffffffffffffffffffffffffffffffffff1673ffffffffffffffffffffffffffffffffffffffff16815260200190815260200160002060009054906101000a900460ff16905092915050565b50565b61157b61167e565b73ffffffffffffffffffffffffffffffffffffffff168573ffffffffffffffffffffffffffffffffffffffff1614806115c157506115c0856115bb61167e565b6114dc565b5b611600576040517f08c379a00000000000000000000000000000000000000000000000000000000081526004016115f790613622565b60405180910390fd5b61160d8585858585611e96565b5050505050565b60007f01ffc9a7000000000000000000000000000000000000000000000000000000007bffffffffffffffffffffffffffffffffffffffffffffffffffffffff1916827bffffffffffffffffffffffffffffffffffffffffffffffffffffffff1916149050919050565b600033905090565b81518351146116ca576040517f08c379a00000000000000000000000000000000000000000000000000000000081526004016116c190613742565b60405180910390fd5b600073ffffffffffffffffffffffffffffffffffffffff168473ffffffffffffffffffffffffffffffffffffffff16141561173a576040517f08c379a000000000000000000000000000000000000000000000000000000000815260040161173190613642565b60405180910390fd5b600061174461167e565b9050611754818787878787612118565b60005b845181101561195157600085828151811061179b577f4e487b7100000000000000000000000000000000000000000000000000000000600052603260045260246000fd5b6020026020010151905060008583815181106117e0577f4e487b7100000000000000000000000000000000000000000000000000000000600052603260045260246000fd5b60200260200101519050600080600084815260200190815260200160002060008b73ffffffffffffffffffffffffffffffffffffffff1673ffffffffffffffffffffffffffffffffffffffff16815260200190815260200160002054905081811015611881576040517f08c379a0000000000000000000000000000000000000000000000000000000008152600401611878906136a2565b60405180910390fd5b81810360008085815260200190815260200160002060008c73ffffffffffffffffffffffffffffffffffffffff1673ffffffffffffffffffffffffffffffffffffffff168152602001908152602001600020819055508160008085815260200190815260200160002060008b73ffffffffffffffffffffffffffffffffffffffff1673ffffffffffffffffffffffffffffffffffffffff16815260200190815260200160002060008282546119369190613951565b925050819055505050508061194a90613b7f565b9050611757565b508473ffffffffffffffffffffffffffffffffffffffff168673ffffffffffffffffffffffffffffffffffffffff168273ffffffffffffffffffffffffffffffffffffffff167f4a39dc06d4c0dbc64b70af90fd698a233a518aa5d07e595d983b8c0526c8f7fb87876040516119c89291906134cd565b60405180910390a46119de818787878787612120565b505050505050565b600073ffffffffffffffffffffffffffffffffffffffff168473ffffffffffffffffffffffffffffffffffffffff161415611a56576040517f08c379a0000000000000000000000000000000000000000000000000000000008152600401611a4d90613762565b60405180910390fd5b6000611a6061167e565b9050611a8181600087611a7288612307565b611a7b88612307565b87612118565b8260008086815260200190815260200160002060008773ffffffffffffffffffffffffffffffffffffffff1673ffffffffffffffffffffffffffffffffffffffff1681526020019081526020016000206000828254611ae09190613951565b925050819055508473ffffffffffffffffffffffffffffffffffffffff16600073ffffffffffffffffffffffffffffffffffffffff168273ffffffffffffffffffffffffffffffffffffffff167fc3d58168c5ae7397731d063d5bbf3d657854427343f4c083240f7aacaa2d0f628787604051611b5e9291906137b8565b60405180910390a4611b75816000878787876123cd565b5050505050565b60606000821415611bc4576040518060400160405280600181526020017f30000000000000000000000000000000000000000000000000000000000000008152509050611d24565b600082905060005b60008214611bf6578080611bdf90613b7f565b915050600a82611bef91906139a7565b9150611bcc565b60008167ffffffffffffffff811115611c38577f4e487b7100000000000000000000000000000000000000000000000000000000600052604160045260246000fd5b6040519080825280601f01601f191660200182016040528015611c6a5781602001600182028036833780820191505090505b5090505b60008514611d1d57600182611c839190613a32565b9150600a85611c929190613bc8565b6030611c9e9190613951565b60f81b818381518110611cda577f4e487b7100000000000000000000000000000000000000000000000000000000600052603260045260246000fd5b60200101907effffffffffffffffffffffffffffffffffffffffffffffffffffffffffffff1916908160001a905350600a85611d1691906139a7565b9450611c6e565b8093505050505b919050565b8173ffffffffffffffffffffffffffffffffffffffff168373ffffffffffffffffffffffffffffffffffffffff161415611d98576040517f08c379a0000000000000000000000000000000000000000000000000000000008152600401611d8f90613702565b60405180910390fd5b80600160008573ffffffffffffffffffffffffffffffffffffffff1673ffffffffffffffffffffffffffffffffffffffff16815260200190815260200160002060008473ffffffffffffffffffffffffffffffffffffffff1673ffffffffffffffffffffffffffffffffffffffff16815260200190815260200160002060006101000a81548160ff0219169083151502179055508173ffffffffffffffffffffffffffffffffffffffff168373ffffffffffffffffffffffffffffffffffffffff167f17307eab39ab6107e8899845ad3d59bd9653f200f220920489ca2b5937696c3183604051611e899190613504565b60405180910390a3505050565b600073ffffffffffffffffffffffffffffffffffffffff168473ffffffffffffffffffffffffffffffffffffffff161415611f06576040517f08c379a0000000000000000000000000000000000000000000000000000000008152600401611efd90613642565b60405180910390fd5b6000611f1061167e565b9050611f30818787611f2188612307565b611f2a88612307565b87612118565b600080600086815260200190815260200160002060008873ffffffffffffffffffffffffffffffffffffffff1673ffffffffffffffffffffffffffffffffffffffff16815260200190815260200160002054905083811015611fc7576040517f08c379a0000000000000000000000000000000000000000000000000000000008152600401611fbe906136a2565b60405180910390fd5b83810360008087815260200190815260200160002060008973ffffffffffffffffffffffffffffffffffffffff1673ffffffffffffffffffffffffffffffffffffffff168152602001908152602001600020819055508360008087815260200190815260200160002060008873ffffffffffffffffffffffffffffffffffffffff1673ffffffffffffffffffffffffffffffffffffffff168152602001908152602001600020600082825461207c9190613951565b925050819055508573ffffffffffffffffffffffffffffffffffffffff168773ffffffffffffffffffffffffffffffffffffffff168373ffffffffffffffffffffffffffffffffffffffff167fc3d58168c5ae7397731d063d5bbf3d657854427343f4c083240f7aacaa2d0f6288886040516120f99291906137b8565b60405180910390a461210f8288888888886123cd565b50505050505050565b505050505050565b61213f8473ffffffffffffffffffffffffffffffffffffffff166125b4565b156122ff578373ffffffffffffffffffffffffffffffffffffffff1663bc197c8187878686866040518663ffffffff1660e01b81526004016121859594939291906133b2565b602060405180830381600087803b15801561219f57600080fd5b505af19250505080156121d057506040513d601f19601f820116820180604052508101906121cd9190612c4a565b60015b612276576121dc613cb5565b806308c379a0141561223957506121f1614196565b806121fc575061223b565b806040517f08c379a0000000000000000000000000000000000000000000000000000000008152600401612230919061351f565b60405180910390fd5b505b6040517f08c379a000000000000000000000000000000000000000000000000000000000815260040161226d906135a2565b60405180910390fd5b63bc197c8160e01b7bffffffffffffffffffffffffffffffffffffffffffffffffffffffff1916817bffffffffffffffffffffffffffffffffffffffffffffffffffffffff1916146122fd576040517f08c379a00000000000000000000000000000000000000000000000000000000081526004016122f4906135c2565b60405180910390fd5b505b505050505050565b60606000600167ffffffffffffffff81111561234c577f4e487b7100000000000000000000000000000000000000000000000000000000600052604160045260246000fd5b60405190808252806020026020018201604052801561237a5781602001602082028036833780820191505090505b50905082816000815181106123b8577f4e487b7100000000000000000000000000000000000000000000000000000000600052603260045260246000fd5b60200260200101818152505080915050919050565b6123ec8473ffffffffffffffffffffffffffffffffffffffff166125b4565b156125ac578373ffffffffffffffffffffffffffffffffffffffff1663f23a6e6187878686866040518663ffffffff1660e01b8152600401612432959493929190613451565b602060405180830381600087803b15801561244c57600080fd5b505af192505050801561247d57506040513d601f19601f8201168201806040525081019061247a9190612c4a565b60015b61252357612489613cb5565b806308c379a014156124e6575061249e614196565b806124a957506124e8565b806040517f08c379a00000000000000000000000000000000000000000000000000000000081526004016124dd919061351f565b60405180910390fd5b505b6040517f08c379a000000000000000000000000000000000000000000000000000000000815260040161251a906135a2565b60405180910390fd5b63f23a6e6160e01b7bffffffffffffffffffffffffffffffffffffffffffffffffffffffff1916817bffffffffffffffffffffffffffffffffffffffffffffffffffffffff1916146125aa576040517f08c379a00000000000000000000000000000000000000000000000000000000081526004016125a1906135c2565b60405180910390fd5b505b505050505050565b6000808273ffffffffffffffffffffffffffffffffffffffff163b119050919050565b8280546125e390613b1c565b90600052602060002090601f016020900481019282612605576000855561264c565b82601f1061261e57805160ff191683800117855561264c565b8280016001018555821561264c579182015b8281111561264b578251825591602001919060010190612630565b5b5090506126599190612694565b5090565b60405180606001604052806000815260200160008152602001600073ffffffffffffffffffffffffffffffffffffffff1681525090565b5b808211156126ad576000816000905550600101612695565b5090565b60006126c46126bf84613806565b6137e1565b905080838252602082019050828560208602820111156126e357600080fd5b60005b8581101561271357816126f98882612805565b8452602084019350602083019250506001810190506126e6565b5050509392505050565b600061273061272b84613832565b6137e1565b9050808382526020820190508285602086028201111561274f57600080fd5b60005b8581101561277f57816127658882612960565b845260208401935060208301925050600181019050612752565b5050509392505050565b600061279c6127978461385e565b6137e1565b9050828152602081018484840111156127b457600080fd5b6127bf848285613ada565b509392505050565b60006127da6127d58461388f565b6137e1565b9050828152602081018484840111156127f257600080fd5b6127fd848285613ada565b509392505050565b6000813590506128148161422c565b92915050565b600082601f83011261282b57600080fd5b813561283b8482602086016126b1565b91505092915050565b600082601f83011261285557600080fd5b813561286584826020860161271d565b91505092915050565b60008135905061287d81614243565b92915050565b60008151905061289281614243565b92915050565b6000813590506128a78161425a565b92915050565b6000815190506128bc8161425a565b92915050565b600082601f8301126128d357600080fd5b81356128e3848260208601612789565b91505092915050565b60008083601f8401126128fe57600080fd5b8235905067ffffffffffffffff81111561291757600080fd5b60208301915083600182028301111561292f57600080fd5b9250929050565b600082601f83011261294757600080fd5b81356129578482602086016127c7565b91505092915050565b60008135905061296f81614271565b92915050565b60008151905061298481614271565b92915050565b6000806040838503121561299d57600080fd5b60006129ab85828601612805565b92505060206129bc85828601612805565b9150509250929050565b600080600080600060a086880312156129de57600080fd5b60006129ec88828901612805565b95505060206129fd88828901612805565b945050604086013567ffffffffffffffff811115612a1a57600080fd5b612a2688828901612844565b935050606086013567ffffffffffffffff811115612a4357600080fd5b612a4f88828901612844565b925050608086013567ffffffffffffffff811115612a6c57600080fd5b612a78888289016128c2565b9150509295509295909350565b600080600080600060a08688031215612a9d57600080fd5b6000612aab88828901612805565b9550506020612abc88828901612805565b9450506040612acd88828901612960565b9350506060612ade88828901612960565b925050608086013567ffffffffffffffff811115612afb57600080fd5b612b07888289016128c2565b9150509295509295909350565b60008060408385031215612b2757600080fd5b6000612b3585828601612805565b9250506020612b468582860161286e565b9150509250929050565b60008060408385031215612b6357600080fd5b6000612b7185828601612805565b9250506020612b8285828601612960565b9150509250929050565b60008060408385031215612b9f57600080fd5b600083013567ffffffffffffffff811115612bb957600080fd5b612bc58582860161281a565b925050602083013567ffffffffffffffff811115612be257600080fd5b612bee85828601612844565b9150509250929050565b600060208284031215612c0a57600080fd5b6000612c1884828501612883565b91505092915050565b600060208284031215612c3357600080fd5b6000612c4184828501612898565b91505092915050565b600060208284031215612c5c57600080fd5b6000612c6a848285016128ad565b91505092915050565b60008060208385031215612c8657600080fd5b600083013567ffffffffffffffff811115612ca057600080fd5b612cac858286016128ec565b92509250509250929050565b600060208284031215612cca57600080fd5b600082013567ffffffffffffffff811115612ce457600080fd5b612cf084828501612936565b91505092915050565b60008060408385031215612d0c57600080fd5b600083013567ffffffffffffffff811115612d2657600080fd5b612d3285828601612936565b925050602083013567ffffffffffffffff811115612d4f57600080fd5b612d5b85828601612936565b9150509250929050565b600060208284031215612d7757600080fd5b6000612d8584828501612960565b91505092915050565b600060208284031215612da057600080fd5b6000612dae84828501612975565b91505092915050565b60008060408385031215612dca57600080fd5b6000612dd885828601612960565b925050602083013567ffffffffffffffff811115612df557600080fd5b612e0185828601612936565b9150509250929050565b60008060408385031215612e1e57600080fd5b6000612e2c85828601612960565b9250506020612e3d85828601612960565b9150509250929050565b600080600060608486031215612e5c57600080fd5b6000612e6a86828701612960565b9350506020612e7b86828701612960565b9250506040612e8c86828701612960565b9150509250925092565b60008060008060808587031215612eac57600080fd5b6000612eba87828801612960565b9450506020612ecb87828801612960565b9350506040612edc87828801612960565b9250506060612eed87828801612960565b91505092959194509250565b6000612f058383613332565b60208301905092915050565b612f1a81613a66565b82525050565b612f2981613a66565b82525050565b6000612f3a826138e5565b612f448185613913565b9350612f4f836138c0565b8060005b83811015612f80578151612f678882612ef9565b9750612f7283613906565b925050600181019050612f53565b5085935050505092915050565b612f9681613a78565b82525050565b6000612fa7826138f0565b612fb18185613924565b9350612fc1818560208601613ae9565b612fca81613cd7565b840191505092915050565b6000612fe18385613946565b9350612fee838584613ada565b82840190509392505050565b6000613005826138fb565b61300f8185613935565b935061301f818560208601613ae9565b61302881613cd7565b840191505092915050565b600061303e826138fb565b6130488185613946565b9350613058818560208601613ae9565b80840191505092915050565b6000815461307181613b1c565b61307b8186613946565b9450600182166000811461309657600181146130a7576130da565b60ff198316865281860193506130da565b6130b0856138d0565b60005b838110156130d2578154818901526001820191506020810190506130b3565b838801955050505b50505092915050565b60006130f0603483613935565b91506130fb82613cf5565b604082019050919050565b6000613113602883613935565b915061311e82613d44565b604082019050919050565b6000613136601d83613935565b915061314182613d93565b602082019050919050565b6000613159602b83613935565b915061316482613dbc565b604082019050919050565b600061317c602983613935565b915061318782613e0b565b604082019050919050565b600061319f602583613935565b91506131aa82613e5a565b604082019050919050565b60006131c2603283613935565b91506131cd82613ea9565b604082019050919050565b60006131e5604183613935565b91506131f082613ef8565b606082019050919050565b6000613208602a83613935565b915061321382613f6d565b604082019050919050565b600061322b602683613935565b915061323682613fbc565b604082019050919050565b600061324e604083613935565b91506132598261400b565b604082019050919050565b6000613271602983613935565b915061327c8261405a565b604082019050919050565b6000613294602983613935565b915061329f826140a9565b604082019050919050565b60006132b7602883613935565b91506132c2826140f8565b604082019050919050565b60006132da602183613935565b91506132e582614147565b604082019050919050565b6060820160008201516133066000850182613332565b5060208201516133196020850182613332565b50604082015161332c6040850182612f11565b50505050565b61333b81613ad0565b82525050565b61334a81613ad0565b82525050565b600061335d828486612fd5565b91508190509392505050565b60006133758284613033565b915081905092915050565b600061338c8284613064565b915081905092915050565b60006020820190506133ac6000830184612f20565b92915050565b600060a0820190506133c76000830188612f20565b6133d46020830187612f20565b81810360408301526133e68186612f2f565b905081810360608301526133fa8185612f2f565b9050818103608083015261340e8184612f9c565b90509695505050505050565b600060608201905061342f6000830186612f20565b61343c6020830185612f20565b6134496040830184613341565b949350505050565b600060a0820190506134666000830188612f20565b6134736020830187612f20565b6134806040830186613341565b61348d6060830185613341565b818103608083015261349f8184612f9c565b90509695505050505050565b600060208201905081810360008301526134c58184612f2f565b905092915050565b600060408201905081810360008301526134e78185612f2f565b905081810360208301526134fb8184612f2f565b90509392505050565b60006020820190506135196000830184612f8d565b92915050565b600060208201905081810360008301526135398184612ffa565b905092915050565b600060a082019050818103600083015261355b8188612ffa565b905061356a6020830187613341565b6135776040830186612f20565b81810360608301526135898185612ffa565b90506135986080830184613341565b9695505050505050565b600060208201905081810360008301526135bb816130e3565b9050919050565b600060208201905081810360008301526135db81613106565b9050919050565b600060208201905081810360008301526135fb81613129565b9050919050565b6000602082019050818103600083015261361b8161314c565b9050919050565b6000602082019050818103600083015261363b8161316f565b9050919050565b6000602082019050818103600083015261365b81613192565b9050919050565b6000602082019050818103600083015261367b816131b5565b9050919050565b6000602082019050818103600083015261369b816131d8565b9050919050565b600060208201905081810360008301526136bb816131fb565b9050919050565b600060208201905081810360008301526136db8161321e565b9050919050565b600060208201905081810360008301526136fb81613241565b9050919050565b6000602082019050818103600083015261371b81613264565b9050919050565b6000602082019050818103600083015261373b81613287565b9050919050565b6000602082019050818103600083015261375b816132aa565b9050919050565b6000602082019050818103600083015261377b816132cd565b9050919050565b600060608201905061379760008301846132f0565b92915050565b60006020820190506137b26000830184613341565b92915050565b60006040820190506137cd6000830185613341565b6137da6020830184613341565b9392505050565b60006137eb6137fc565b90506137f78282613b4e565b919050565b6000604051905090565b600067ffffffffffffffff82111561382157613820613c86565b5b602082029050602081019050919050565b600067ffffffffffffffff82111561384d5761384c613c86565b5b602082029050602081019050919050565b600067ffffffffffffffff82111561387957613878613c86565b5b61388282613cd7565b9050602081019050919050565b600067ffffffffffffffff8211156138aa576138a9613c86565b5b6138b382613cd7565b9050602081019050919050565b6000819050602082019050919050565b60008190508160005260206000209050919050565b600081519050919050565b600081519050919050565b600081519050919050565b6000602082019050919050565b600082825260208201905092915050565b600082825260208201905092915050565b600082825260208201905092915050565b600081905092915050565b600061395c82613ad0565b915061396783613ad0565b9250827fffffffffffffffffffffffffffffffffffffffffffffffffffffffffffffffff0382111561399c5761399b613bf9565b5b828201905092915050565b60006139b282613ad0565b91506139bd83613ad0565b9250826139cd576139cc613c28565b5b828204905092915050565b60006139e382613ad0565b91506139ee83613ad0565b9250817fffffffffffffffffffffffffffffffffffffffffffffffffffffffffffffffff0483118215151615613a2757613a26613bf9565b5b828202905092915050565b6000613a3d82613ad0565b9150613a4883613ad0565b925082821015613a5b57613a5a613bf9565b5b828203905092915050565b6000613a7182613ab0565b9050919050565b60008115159050919050565b60007fffffffff0000000000000000000000000000000000000000000000000000000082169050919050565b600073ffffffffffffffffffffffffffffffffffffffff82169050919050565b6000819050919050565b82818337600083830152505050565b60005b83811015613b07578082015181840152602081019050613aec565b83811115613b16576000848401525b50505050565b60006002820490506001821680613b3457607f821691505b60208210811415613b4857613b47613c57565b5b50919050565b613b5782613cd7565b810181811067ffffffffffffffff82111715613b7657613b75613c86565b5b80604052505050565b6000613b8a82613ad0565b91507fffffffffffffffffffffffffffffffffffffffffffffffffffffffffffffffff821415613bbd57613bbc613bf9565b5b600182019050919050565b6000613bd382613ad0565b9150613bde83613ad0565b925082613bee57613bed613c28565b5b828206905092915050565b7f4e487b7100000000000000000000000000000000000000000000000000000000600052601160045260246000fd5b7f4e487b7100000000000000000000000000000000000000000000000000000000600052601260045260246000fd5b7f4e487b7100000000000000000000000000000000000000000000000000000000600052602260045260246000fd5b7f4e487b7100000000000000000000000000000000000000000000000000000000600052604160045260246000fd5b600060033d1115613cd45760046000803e613cd1600051613ce8565b90505b90565b6000601f19601f8301169050919050565b60008160e01c9050919050565b7f455243313135353a207472616e7366657220746f206e6f6e204552433131353560008201527f526563656976657220696d706c656d656e746572000000000000000000000000602082015250565b7f455243313135353a204552433131353552656365697665722072656a6563746560008201527f6420746f6b656e73000000000000000000000000000000000000000000000000602082015250565b7f596f7520646f6e2774206861766520656e6f756768206d6f6e65792021000000600082015250565b7f455243313135353a2062616c616e636520717565727920666f7220746865207a60008201527f65726f2061646472657373000000000000000000000000000000000000000000602082015250565b7f455243313135353a2063616c6c6572206973206e6f74206f776e6572206e6f7260008201527f20617070726f7665640000000000000000000000000000000000000000000000602082015250565b7f455243313135353a207472616e7366657220746f20746865207a65726f20616460008201527f6472657373000000000000000000000000000000000000000000000000000000602082015250565b7f455243313135353a207472616e736665722063616c6c6572206973206e6f742060008201527f6f776e6572206e6f7220617070726f7665640000000000000000000000000000602082015250565b7f596f752061736b20666f7220746f6f206d7563683a20706c656173652063686560008201527f636b207468652063757272656e7420617661696c61626c6520737570706c792060208201527f2100000000000000000000000000000000000000000000000000000000000000604082015250565b7f455243313135353a20696e73756666696369656e742062616c616e636520666f60008201527f72207472616e7366657200000000000000000000000000000000000000000000602082015250565b7f596f7572204973737565722068617320616c7265616479206265656e2063726560008201527f6174656420210000000000000000000000000000000000000000000000000000602082015250565b7f596f757220617265206e6f7420746865206f776e6572206f662074686520497360008201527f73756572202120596f752063616e277420646f207468697320616374696f6e2e602082015250565b7f455243313135353a2073657474696e6720617070726f76616c2073746174757360008201527f20666f722073656c660000000000000000000000000000000000000000000000602082015250565b7f455243313135353a206163636f756e747320616e6420696473206c656e67746860008201527f206d69736d617463680000000000000000000000000000000000000000000000602082015250565b7f455243313135353a2069647320616e6420616d6f756e7473206c656e6774682060008201527f6d69736d61746368000000000000000000000000000000000000000000000000602082015250565b7f455243313135353a206d696e7420746f20746865207a65726f2061646472657360008201527f7300000000000000000000000000000000000000000000000000000000000000602082015250565b600060443d10156141a657614229565b6141ae6137fc565b60043d036004823e80513d602482011167ffffffffffffffff821117156141d6575050614229565b808201805167ffffffffffffffff8111156141f45750505050614229565b80602083010160043d038501811115614211575050505050614229565b61422082602001850186613b4e565b82955050505050505b90565b61423581613a66565b811461424057600080fd5b50565b61424c81613a78565b811461425757600080fd5b50565b61426381613a84565b811461426e57600080fd5b50565b61427a81613ad0565b811461428557600080fd5b5056fea264697066735822122063980c891dabf655a0bd9edd659fb6be96f8ea41c5047e3066a9650127691e7f64736f6c6343000804003368747470733a2f2f697066732e696f2f697066732f516d55457951326a6635476634577855417047694c627a756957436f5a786e4d75477a6f716851704832746632782f7b69647d2e6a736f6e",
  "linkReferences": {},
  "deployedLinkReferences": {}
}