{
  "_format": "hh-sol-artifact-1",
  "contractName": "silo",
  "sourceName": "contracts/Silo.sol",
  "abi": [
    {
      "inputs": [
        {
          "internalType": "address",
          "name": "_dai",
          "type": "address"
        }
      ],
      "stateMutability": "nonpayable",
      "type": "constructor"
    },
    {
      "anonymous": false,
      "inputs": [
        {
          "indexed": true,
          "internalType": "address",
          "name": "owner",
          "type": "address"
        },
        {
          "indexed": true,
          "internalType": "address",
          "name": "approved",
          "type": "address"
        },
        {
          "indexed": true,
          "internalType": "uint256",
          "name": "tokenId",
          "type": "uint256"
        }
      ],
      "name": "Approval",
      "type": "event"
    },
    {
      "anonymous": false,
      "inputs": [
        {
          "indexed": true,
          "internalType": "address",
          "name": "owner",
          "type": "address"
        },
        {
          "indexed": true,
          "internalType": "address",
          "name": "operator",
          "type": "address"
        },
        {
          "indexed": false,
          "internalType": "bool",
          "name": "approved",
          "type": "bool"
        }
      ],
      "name": "ApprovalForAll",
      "type": "event"
    },
    {
      "anonymous": false,
      "inputs": [
        {
          "indexed": true,
          "internalType": "address",
          "name": "_from",
          "type": "address"
        },
        {
          "indexed": false,
          "internalType": "uint256",
          "name": "_tokenId",
          "type": "uint256"
        }
      ],
      "name": "Burn",
      "type": "event"
    },
    {
      "anonymous": false,
      "inputs": [
        {
          "indexed": true,
          "internalType": "address",
          "name": "_buyer",
          "type": "address"
        },
        {
          "indexed": true,
          "internalType": "address",
          "name": "_holder",
          "type": "address"
        },
        {
          "indexed": false,
          "internalType": "uint256",
          "name": "_tokenId",
          "type": "uint256"
        },
        {
          "indexed": false,
          "internalType": "uint256",
          "name": "_price",
          "type": "uint256"
        }
      ],
      "name": "Buy",
      "type": "event"
    },
    {
      "anonymous": false,
      "inputs": [
        {
          "indexed": false,
          "internalType": "string",
          "name": "_name",
          "type": "string"
        },
        {
          "indexed": false,
          "internalType": "uint256",
          "name": "_UID",
          "type": "uint256"
        },
        {
          "indexed": false,
          "internalType": "address",
          "name": "_issuerAddress",
          "type": "address"
        },
        {
          "indexed": false,
          "internalType": "string",
          "name": "_companyInfo",
          "type": "string"
        }
      ],
      "name": "NewIssuer",
      "type": "event"
    },
    {
      "anonymous": false,
      "inputs": [
        {
          "indexed": true,
          "internalType": "address",
          "name": "_from",
          "type": "address"
        },
        {
          "indexed": true,
          "internalType": "address",
          "name": "_to",
          "type": "address"
        },
        {
          "indexed": false,
          "internalType": "uint256",
          "name": "_tokenId",
          "type": "uint256"
        },
        {
          "indexed": false,
          "internalType": "string",
          "name": "_newURI",
          "type": "string"
        }
      ],
      "name": "Sell",
      "type": "event"
    },
    {
      "anonymous": false,
      "inputs": [
        {
          "indexed": true,
          "internalType": "address",
          "name": "from",
          "type": "address"
        },
        {
          "indexed": true,
          "internalType": "address",
          "name": "to",
          "type": "address"
        },
        {
          "indexed": true,
          "internalType": "uint256",
          "name": "tokenId",
          "type": "uint256"
        }
      ],
      "name": "Transfer",
      "type": "event"
    },
    {
      "inputs": [
        {
          "internalType": "string",
          "name": "_name",
          "type": "string"
        },
        {
          "internalType": "string",
          "name": "_companyInfo",
          "type": "string"
        }
      ],
      "name": "addIssuer",
      "outputs": [],
      "stateMutability": "payable",
      "type": "function"
    },
    {
      "inputs": [
        {
          "internalType": "address",
          "name": "to",
          "type": "address"
        },
        {
          "internalType": "uint256",
          "name": "tokenId",
          "type": "uint256"
        }
      ],
      "name": "approve",
      "outputs": [],
      "stateMutability": "nonpayable",
      "type": "function"
    },
    {
      "inputs": [
        {
          "internalType": "address",
          "name": "owner",
          "type": "address"
        }
      ],
      "name": "balanceOf",
      "outputs": [
        {
          "internalType": "uint256",
          "name": "",
          "type": "uint256"
        }
      ],
      "stateMutability": "view",
      "type": "function"
    },
    {
      "inputs": [
        {
          "internalType": "uint256",
          "name": "_UIDIssuer",
          "type": "uint256"
        }
      ],
      "name": "buy",
      "outputs": [],
      "stateMutability": "payable",
      "type": "function"
    },
    {
      "inputs": [
        {
          "internalType": "uint256",
          "name": "_UIDIssuer",
          "type": "uint256"
        },
        {
          "internalType": "string",
          "name": "_compagnyInfo",
          "type": "string"
        }
      ],
      "name": "changeCompanyInfo",
      "outputs": [],
      "stateMutability": "payable",
      "type": "function"
    },
    {
      "inputs": [
        {
          "internalType": "uint256",
          "name": "_UIDIssuer",
          "type": "uint256"
        },
        {
          "internalType": "uint256",
          "name": "_newPrice",
          "type": "uint256"
        }
      ],
      "name": "changePrice",
      "outputs": [],
      "stateMutability": "payable",
      "type": "function"
    },
    {
      "inputs": [
        {
          "internalType": "uint256",
          "name": "_UIDIssuer",
          "type": "uint256"
        },
        {
          "internalType": "uint256",
          "name": "_supply",
          "type": "uint256"
        },
        {
          "internalType": "uint256",
          "name": "_price",
          "type": "uint256"
        },
        {
          "internalType": "string",
          "name": "_URI",
          "type": "string"
        }
      ],
      "name": "create",
      "outputs": [],
      "stateMutability": "nonpayable",
      "type": "function"
    },
    {
      "inputs": [
        {
          "internalType": "uint256",
          "name": "tokenId",
          "type": "uint256"
        }
      ],
      "name": "getApproved",
      "outputs": [
        {
          "internalType": "address",
          "name": "",
          "type": "address"
        }
      ],
      "stateMutability": "view",
      "type": "function"
    },
    {
      "inputs": [
        {
          "internalType": "uint256",
          "name": "_UIDIssuer",
          "type": "uint256"
        }
      ],
      "name": "getItem",
      "outputs": [
        {
          "components": [
            {
              "internalType": "uint256",
              "name": "price",
              "type": "uint256"
            },
            {
              "internalType": "uint256",
              "name": "supply",
              "type": "uint256"
            },
            {
              "internalType": "address",
              "name": "issuerAddress",
              "type": "address"
            },
            {
              "internalType": "string",
              "name": "URI",
              "type": "string"
            }
          ],
          "internalType": "struct silo.Item",
          "name": "",
          "type": "tuple"
        }
      ],
      "stateMutability": "view",
      "type": "function"
    },
    {
      "inputs": [
        {
          "internalType": "address",
          "name": "owner",
          "type": "address"
        },
        {
          "internalType": "address",
          "name": "operator",
          "type": "address"
        }
      ],
      "name": "isApprovedForAll",
      "outputs": [
        {
          "internalType": "bool",
          "name": "",
          "type": "bool"
        }
      ],
      "stateMutability": "view",
      "type": "function"
    },
    {
      "inputs": [
        {
          "internalType": "uint256",
          "name": "",
          "type": "uint256"
        }
      ],
      "name": "issuer",
      "outputs": [
        {
          "internalType": "string",
          "name": "name",
          "type": "string"
        },
        {
          "internalType": "uint256",
          "name": "UID",
          "type": "uint256"
        },
        {
          "internalType": "address",
          "name": "issuerAddress",
          "type": "address"
        },
        {
          "internalType": "string",
          "name": "companyInfo",
          "type": "string"
        },
        {
          "internalType": "uint256",
          "name": "numItem",
          "type": "uint256"
        }
      ],
      "stateMutability": "view",
      "type": "function"
    },
    {
      "inputs": [],
      "name": "name",
      "outputs": [
        {
          "internalType": "string",
          "name": "",
          "type": "string"
        }
      ],
      "stateMutability": "view",
      "type": "function"
    },
    {
      "inputs": [
        {
          "internalType": "uint256",
          "name": "tokenId",
          "type": "uint256"
        }
      ],
      "name": "ownerOf",
      "outputs": [
        {
          "internalType": "address",
          "name": "",
          "type": "address"
        }
      ],
      "stateMutability": "view",
      "type": "function"
    },
    {
      "inputs": [
        {
          "internalType": "uint256",
          "name": "tokenId",
          "type": "uint256"
        }
      ],
      "name": "redeem",
      "outputs": [],
      "stateMutability": "nonpayable",
      "type": "function"
    },
    {
      "inputs": [
        {
          "internalType": "address",
          "name": "from",
          "type": "address"
        },
        {
          "internalType": "address",
          "name": "to",
          "type": "address"
        },
        {
          "internalType": "uint256",
          "name": "tokenId",
          "type": "uint256"
        }
      ],
      "name": "safeTransferFrom",
      "outputs": [],
      "stateMutability": "nonpayable",
      "type": "function"
    },
    {
      "inputs": [
        {
          "internalType": "address",
          "name": "from",
          "type": "address"
        },
        {
          "internalType": "address",
          "name": "to",
          "type": "address"
        },
        {
          "internalType": "uint256",
          "name": "tokenId",
          "type": "uint256"
        },
        {
          "internalType": "bytes",
          "name": "_data",
          "type": "bytes"
        }
      ],
      "name": "safeTransferFrom",
      "outputs": [],
      "stateMutability": "nonpayable",
      "type": "function"
    },
    {
      "inputs": [
        {
          "internalType": "uint256",
          "name": "tokenId",
          "type": "uint256"
        },
        {
          "internalType": "string",
          "name": "_nameIssuer",
          "type": "string"
        },
        {
          "internalType": "string",
          "name": "_newURI",
          "type": "string"
        }
      ],
      "name": "sell",
      "outputs": [],
      "stateMutability": "nonpayable",
      "type": "function"
    },
    {
      "inputs": [
        {
          "internalType": "address",
          "name": "operator",
          "type": "address"
        },
        {
          "internalType": "bool",
          "name": "approved",
          "type": "bool"
        }
      ],
      "name": "setApprovalForAll",
      "outputs": [],
      "stateMutability": "nonpayable",
      "type": "function"
    },
    {
      "inputs": [
        {
          "internalType": "bytes4",
          "name": "interfaceId",
          "type": "bytes4"
        }
      ],
      "name": "supportsInterface",
      "outputs": [
        {
          "internalType": "bool",
          "name": "",
          "type": "bool"
        }
      ],
      "stateMutability": "view",
      "type": "function"
    },
    {
      "inputs": [],
      "name": "symbol",
      "outputs": [
        {
          "internalType": "string",
          "name": "",
          "type": "string"
        }
      ],
      "stateMutability": "view",
      "type": "function"
    },
    {
      "inputs": [
        {
          "internalType": "uint256",
          "name": "tokenId",
          "type": "uint256"
        }
      ],
      "name": "tokenURI",
      "outputs": [
        {
          "internalType": "string",
          "name": "",
          "type": "string"
        }
      ],
      "stateMutability": "view",
      "type": "function"
    },
    {
      "inputs": [
        {
          "internalType": "address",
          "name": "from",
          "type": "address"
        },
        {
          "internalType": "address",
          "name": "to",
          "type": "address"
        },
        {
          "internalType": "uint256",
          "name": "tokenId",
          "type": "uint256"
        }
      ],
      "name": "transferFrom",
      "outputs": [],
      "stateMutability": "nonpayable",
      "type": "function"
    }
  ],
  "bytecode": "0x608060405260006009553480156200001657600080fd5b50604051620050623803806200506283398181016040528101906200003c9190620001eb565b6040518060400160405280600481526020017f53696c6f000000000000000000000000000000000000000000000000000000008152506040518060400160405280600481526020017f53494c4f000000000000000000000000000000000000000000000000000000008152508160009080519060200190620000c092919062000124565b508060019080519060200190620000d992919062000124565b50505080600860006101000a81548173ffffffffffffffffffffffffffffffffffffffff021916908373ffffffffffffffffffffffffffffffffffffffff16021790555050620002ca565b82805462000132906200024b565b90600052602060002090601f016020900481019282620001565760008555620001a2565b82601f106200017157805160ff1916838001178555620001a2565b82800160010185558215620001a2579182015b82811115620001a157825182559160200191906001019062000184565b5b509050620001b19190620001b5565b5090565b5b80821115620001d0576000816000905550600101620001b6565b5090565b600081519050620001e581620002b0565b92915050565b600060208284031215620001fe57600080fd5b60006200020e84828501620001d4565b91505092915050565b600062000224826200022b565b9050919050565b600073ffffffffffffffffffffffffffffffffffffffff82169050919050565b600060028204905060018216806200026457607f821691505b602082108114156200027b576200027a62000281565b5b50919050565b7f4e487b7100000000000000000000000000000000000000000000000000000000600052602260045260246000fd5b620002bb8162000217565b8114620002c757600080fd5b50565b614d8880620002da6000396000f3fe6080604052600436106101345760003560e01c806395d89b41116100ab578063c87b56dd1161006f578063c87b56dd14610422578063d0e8743f1461045f578063d96a094a14610488578063db006a75146104a4578063e985e9c5146104cd578063f10fc8c61461050a57610134565b806395d89b411461036d578063a22cb46514610398578063b3de019c146103c1578063b88d4fde146103dd578063bf717b7a1461040657610134565b806323b872dd116100fd57806323b872dd146102485780633129e7731461027157806342842e0e146102ae5780636352211e146102d757806370a08231146103145780639544624e1461035157610134565b806268fe8b1461013957806301ffc9a71461017a57806306fdde03146101b7578063081812fc146101e2578063095ea7b31461021f575b600080fd5b34801561014557600080fd5b50610160600480360381019061015b91906133e1565b610533565b604051610171959493929190613d03565b60405180910390f35b34801561018657600080fd5b506101a1600480360381019061019c9190613323565b610699565b6040516101ae9190613cc6565b60405180910390f35b3480156101c357600080fd5b506101cc61077b565b6040516101d99190613ce1565b60405180910390f35b3480156101ee57600080fd5b50610209600480360381019061020491906133e1565b61080d565b6040516102169190613c28565b60405180910390f35b34801561022b57600080fd5b50610246600480360381019061024191906132be565b610892565b005b34801561025457600080fd5b5061026f600480360381019061026a91906131b8565b6109aa565b005b34801561027d57600080fd5b50610298600480360381019061029391906133e1565b610a0a565b6040516102a591906140b7565b60405180910390f35b3480156102ba57600080fd5b506102d560048036038101906102d091906131b8565b610b6f565b005b3480156102e357600080fd5b506102fe60048036038101906102f991906133e1565b610b8f565b60405161030b9190613c28565b60405180910390f35b34801561032057600080fd5b5061033b60048036038101906103369190613153565b610c41565b60405161034891906140d9565b60405180910390f35b61036b600480360381019061036691906134b7565b610cf9565b005b34801561037957600080fd5b50610382610dcc565b60405161038f9190613ce1565b60405180910390f35b3480156103a457600080fd5b506103bf60048036038101906103ba9190613282565b610e5e565b005b6103db60048036038101906103d6919061350b565b610e74565b005b3480156103e957600080fd5b5061040460048036038101906103ff9190613207565b610f80565b005b610420600480360381019061041b9190613375565b610fe2565b005b34801561042e57600080fd5b50610449600480360381019061044491906133e1565b61127f565b6040516104569190613ce1565b60405180910390f35b34801561046b57600080fd5b5061048660048036038101906104819190613547565b611291565b005b6104a2600480360381019061049d91906133e1565b6114b4565b005b3480156104b057600080fd5b506104cb60048036038101906104c691906133e1565b611960565b005b3480156104d957600080fd5b506104f460048036038101906104ef919061317c565b6119ba565b6040516105019190613cc6565b60405180910390f35b34801561051657600080fd5b50610531600480360381019061052c9190613433565b611a4e565b005b600a60205280600052604060002060009150905080600001805461055690614579565b80601f016020809104026020016040519081016040528092919081815260200182805461058290614579565b80156105cf5780601f106105a4576101008083540402835291602001916105cf565b820191906000526020600020905b8154815290600101906020018083116105b257829003601f168201915b5050505050908060010154908060020160009054906101000a900473ffffffffffffffffffffffffffffffffffffffff169080600301805461061090614579565b80601f016020809104026020016040519081016040528092919081815260200182805461063c90614579565b80156106895780601f1061065e57610100808354040283529160200191610689565b820191906000526020600020905b81548152906001019060200180831161066c57829003601f168201915b5050505050908060040154905085565b60007f80ac58cd000000000000000000000000000000000000000000000000000000007bffffffffffffffffffffffffffffffffffffffffffffffffffffffff1916827bffffffffffffffffffffffffffffffffffffffffffffffffffffffff1916148061076457507f5b5e139f000000000000000000000000000000000000000000000000000000007bffffffffffffffffffffffffffffffffffffffffffffffffffffffff1916827bffffffffffffffffffffffffffffffffffffffffffffffffffffffff1916145b80610774575061077382611b9e565b5b9050919050565b60606000805461078a90614579565b80601f01602080910402602001604051908101604052809291908181526020018280546107b690614579565b80156108035780601f106107d857610100808354040283529160200191610803565b820191906000526020600020905b8154815290600101906020018083116107e657829003601f168201915b5050505050905090565b600061081882611c08565b610857576040517f08c379a000000000000000000000000000000000000000000000000000000000815260040161084e90613fd7565b60405180910390fd5b6004600083815260200190815260200160002060009054906101000a900473ffffffffffffffffffffffffffffffffffffffff169050919050565b600061089d82610b8f565b90508073ffffffffffffffffffffffffffffffffffffffff168373ffffffffffffffffffffffffffffffffffffffff16141561090e576040517f08c379a000000000000000000000000000000000000000000000000000000000815260040161090590614017565b60405180910390fd5b8073ffffffffffffffffffffffffffffffffffffffff1661092d611c74565b73ffffffffffffffffffffffffffffffffffffffff16148061095c575061095b81610956611c74565b6119ba565b5b61099b576040517f08c379a000000000000000000000000000000000000000000000000000000000815260040161099290613ef7565b60405180910390fd5b6109a58383611c7c565b505050565b6109bb6109b5611c74565b82611d35565b6109fa576040517f08c379a00000000000000000000000000000000000000000000000000000000081526004016109f190614037565b60405180910390fd5b610a05838383611e13565b505050565b610a12612dff565b60006001600a600085815260200190815260200160002060040154610a37919061448f565b9050600a6000848152602001908152602001600020600501600082815260200190815260200160002060405180608001604052908160008201548152602001600182015481526020016002820160009054906101000a900473ffffffffffffffffffffffffffffffffffffffff1673ffffffffffffffffffffffffffffffffffffffff1673ffffffffffffffffffffffffffffffffffffffff168152602001600382018054610ae590614579565b80601f0160208091040260200160405190810160405280929190818152602001828054610b1190614579565b8015610b5e5780601f10610b3357610100808354040283529160200191610b5e565b820191906000526020600020905b815481529060010190602001808311610b4157829003601f168201915b505050505081525050915050919050565b610b8a83838360405180602001604052806000815250610f80565b505050565b6000806002600084815260200190815260200160002060009054906101000a900473ffffffffffffffffffffffffffffffffffffffff169050600073ffffffffffffffffffffffffffffffffffffffff168173ffffffffffffffffffffffffffffffffffffffff161415610c38576040517f08c379a0000000000000000000000000000000000000000000000000000000008152600401610c2f90613f37565b60405180910390fd5b80915050919050565b60008073ffffffffffffffffffffffffffffffffffffffff168273ffffffffffffffffffffffffffffffffffffffff161415610cb2576040517f08c379a0000000000000000000000000000000000000000000000000000000008152600401610ca990613f17565b60405180910390fd5b600360008373ffffffffffffffffffffffffffffffffffffffff1673ffffffffffffffffffffffffffffffffffffffff168152602001908152602001600020549050919050565b3373ffffffffffffffffffffffffffffffffffffffff16600a600084815260200190815260200160002060020160009054906101000a900473ffffffffffffffffffffffffffffffffffffffff1673ffffffffffffffffffffffffffffffffffffffff1614610d9d576040517f08c379a0000000000000000000000000000000000000000000000000000000008152600401610d9490613f77565b60405180910390fd5b80600a60008481526020019081526020016000206003019080519060200190610dc7929190612e3d565b505050565b606060018054610ddb90614579565b80601f0160208091040260200160405190810160405280929190818152602001828054610e0790614579565b8015610e545780601f10610e2957610100808354040283529160200191610e54565b820191906000526020600020905b815481529060010190602001808311610e3757829003601f168201915b5050505050905090565b610e70610e69611c74565b838361207a565b5050565b3373ffffffffffffffffffffffffffffffffffffffff16600a600084815260200190815260200160002060020160009054906101000a900473ffffffffffffffffffffffffffffffffffffffff1673ffffffffffffffffffffffffffffffffffffffff1614610f18576040517f08c379a0000000000000000000000000000000000000000000000000000000008152600401610f0f90613eb7565b60405180910390fd5b60005b600a600084815260200190815260200160002060040154811015610f7b5781600a60008581526020019081526020016000206005016000838152602001908152602001600020600001819055508080610f73906145dc565b915050610f1b565b505050565b610f91610f8b611c74565b83611d35565b610fd0576040517f08c379a0000000000000000000000000000000000000000000000000000000008152600401610fc790614037565b60405180910390fd5b610fdc848484846121e7565b50505050565b6000805b60095481101561107157836040516020016110019190613bd6565b60405160208183030381529060405280519060200120600a600083815260200190815260200160002060000160405160200161103d9190613c11565b60405160208183030381529060405280519060200120141561105e57600191505b8080611069906145dc565b915050610fe6565b5060001515811515146110b9576040517f08c379a00000000000000000000000000000000000000000000000000000000081526004016110b090614077565b60405180910390fd5b82600a6000600954815260200190815260200160002060000190805190602001906110e5929190612e3d565b50600954600a600060095481526020019081526020016000206001018190555033600a6000600954815260200190815260200160002060020160006101000a81548173ffffffffffffffffffffffffffffffffffffffff021916908373ffffffffffffffffffffffffffffffffffffffff16021790555081600a600060095481526020019081526020016000206003019080519060200190611188929190612e3d565b506000600a6000600954815260200190815260200160002060040181905550600960008154809291906111ba906145dc565b91905055507f0ee35c6da89d9ba5f7f9f9256826684eac23a5f59b1d0f802a1ae8b8337e8913600a60006009548152602001908152602001600020600001600a6000600954815260200190815260200160002060010154600a6000600954815260200190815260200160002060020160009054906101000a900473ffffffffffffffffffffffffffffffffffffffff16600a600060095481526020019081526020016000206003016040516112729493929190613d64565b60405180910390a1505050565b606061128a82612243565b9050919050565b3373ffffffffffffffffffffffffffffffffffffffff16600a600087815260200190815260200160002060020160009054906101000a900473ffffffffffffffffffffffffffffffffffffffff1673ffffffffffffffffffffffffffffffffffffffff1614611335576040517f08c379a000000000000000000000000000000000000000000000000000000000815260040161132c90614097565b60405180910390fd5b6000600a600087815260200190815260200160002060040154905060008190505b8582611362919061423d565b81101561147e5784600a600089815260200190815260200160002060050160008381526020019081526020016000206000018190555033600a6000898152602001908152602001600020600501600083815260200190815260200160002060020160006101000a81548173ffffffffffffffffffffffffffffffffffffffff021916908373ffffffffffffffffffffffffffffffffffffffff1602179055506001600a60008981526020019081526020016000206005016000838152602001908152602001600020600101819055508383600a60008a81526020019081526020016000206005016000848152602001908152602001600020600301919061146a929190612ec3565b508080611476906145dc565b915050611356565b5084600a600088815260200190815260200160002060040160008282546114a5919061423d565b92505081905550505050505050565b60006001600a6000848152602001908152602001600020600401546114d9919061448f565b101561151a576040517f08c379a000000000000000000000000000000000000000000000000000000000815260040161151190613e77565b60405180910390fd5b60006001600a60008481526020019081526020016000206004015461153f919061448f565b90506000670de0b6b3a7640000600a60008581526020019081526020016000206005016000848152602001908152602001600020600001546115819190614435565b90506000600a600085815260200190815260200160002060040154116115dc576040517f08c379a00000000000000000000000000000000000000000000000000000000081526004016115d390614057565b60405180910390fd5b80600860009054906101000a900473ffffffffffffffffffffffffffffffffffffffff1673ffffffffffffffffffffffffffffffffffffffff166370a08231336040518263ffffffff1660e01b81526004016116389190613c28565b60206040518083038186803b15801561165057600080fd5b505afa158015611664573d6000803e3d6000fd5b505050506040513d601f19601f82011682018060405250810190611688919061340a565b10156116c9576040517f08c379a00000000000000000000000000000000000000000000000000000000081526004016116c090613df7565b60405180910390fd5b60006116d56007612395565b90506116e160076123a3565b600860009054906101000a900473ffffffffffffffffffffffffffffffffffffffff1673ffffffffffffffffffffffffffffffffffffffff166323b872dd33600a600088815260200190815260200160002060020160009054906101000a900473ffffffffffffffffffffffffffffffffffffffff16856040518463ffffffff1660e01b815260040161177693929190613c43565b602060405180830381600087803b15801561179057600080fd5b505af11580156117a4573d6000803e3d6000fd5b505050506040513d601f19601f820116820180604052508101906117c891906132fa565b506001600a600086815260200190815260200160002060040160008282546117f0919061448f565b9250508190555061180133826123b9565b6118bd81600a60008781526020019081526020016000206005016000868152602001908152602001600020600301805461183a90614579565b80601f016020809104026020016040519081016040528092919081815260200182805461186690614579565b80156118b35780601f10611888576101008083540402835291602001916118b3565b820191906000526020600020905b81548152906001019060200180831161189657829003601f168201915b50505050506123d7565b600a600085815260200190815260200160002060020160009054906101000a900473ffffffffffffffffffffffffffffffffffffffff1673ffffffffffffffffffffffffffffffffffffffff163373ffffffffffffffffffffffffffffffffffffffff167f89f5adc174562e07c9c9b1cae7109bbecb21cf9d1b2847e550042b8653c54a0e8385604051611952929190614124565b60405180910390a350505050565b6119698161244b565b3373ffffffffffffffffffffffffffffffffffffffff167fcc16f5dbb4873280815c1ee09dbd06736cffcc184412cf7a71a0fdb75d397ca5826040516119af91906140d9565b60405180910390a250565b6000600560008473ffffffffffffffffffffffffffffffffffffffff1673ffffffffffffffffffffffffffffffffffffffff16815260200190815260200160002060008373ffffffffffffffffffffffffffffffffffffffff1673ffffffffffffffffffffffffffffffffffffffff16815260200190815260200160002060009054906101000a900460ff16905092915050565b6000611a5933610c41565b11611a99576040517f08c379a0000000000000000000000000000000000000000000000000000000008152600401611a9090613ed7565b60405180910390fd5b6000611aad611aa88585612457565b61254b565b9050611ab985836123d7565b611afa33600a600084815260200190815260200160002060020160009054906101000a900473ffffffffffffffffffffffffffffffffffffffff1687610b6f565b600a600082815260200190815260200160002060020160009054906101000a900473ffffffffffffffffffffffffffffffffffffffff1673ffffffffffffffffffffffffffffffffffffffff163373ffffffffffffffffffffffffffffffffffffffff167fcdbf94308476d0eaeae73ed2d3c7c0e0dbd862982f2d8418a8ed372d81e595ed8785604051611b8f9291906140f4565b60405180910390a35050505050565b60007f01ffc9a7000000000000000000000000000000000000000000000000000000007bffffffffffffffffffffffffffffffffffffffffffffffffffffffff1916827bffffffffffffffffffffffffffffffffffffffffffffffffffffffff1916149050919050565b60008073ffffffffffffffffffffffffffffffffffffffff166002600084815260200190815260200160002060009054906101000a900473ffffffffffffffffffffffffffffffffffffffff1673ffffffffffffffffffffffffffffffffffffffff1614159050919050565b600033905090565b816004600083815260200190815260200160002060006101000a81548173ffffffffffffffffffffffffffffffffffffffff021916908373ffffffffffffffffffffffffffffffffffffffff160217905550808273ffffffffffffffffffffffffffffffffffffffff16611cef83610b8f565b73ffffffffffffffffffffffffffffffffffffffff167f8c5be1e5ebec7d5bd14f71427d1e84f3dd0314c0f7b2291e5b200ac8c7c3b92560405160405180910390a45050565b6000611d4082611c08565b611d7f576040517f08c379a0000000000000000000000000000000000000000000000000000000008152600401611d7690613e97565b60405180910390fd5b6000611d8a83610b8f565b90508073ffffffffffffffffffffffffffffffffffffffff168473ffffffffffffffffffffffffffffffffffffffff161480611df957508373ffffffffffffffffffffffffffffffffffffffff16611de18461080d565b73ffffffffffffffffffffffffffffffffffffffff16145b80611e0a5750611e0981856119ba565b5b91505092915050565b8273ffffffffffffffffffffffffffffffffffffffff16611e3382610b8f565b73ffffffffffffffffffffffffffffffffffffffff1614611e89576040517f08c379a0000000000000000000000000000000000000000000000000000000008152600401611e8090613dd7565b60405180910390fd5b600073ffffffffffffffffffffffffffffffffffffffff168273ffffffffffffffffffffffffffffffffffffffff161415611ef9576040517f08c379a0000000000000000000000000000000000000000000000000000000008152600401611ef090613e37565b60405180910390fd5b611f0483838361262b565b611f0f600082611c7c565b6001600360008573ffffffffffffffffffffffffffffffffffffffff1673ffffffffffffffffffffffffffffffffffffffff1681526020019081526020016000206000828254611f5f919061448f565b925050819055506001600360008473ffffffffffffffffffffffffffffffffffffffff1673ffffffffffffffffffffffffffffffffffffffff1681526020019081526020016000206000828254611fb6919061423d565b92505081905550816002600083815260200190815260200160002060006101000a81548173ffffffffffffffffffffffffffffffffffffffff021916908373ffffffffffffffffffffffffffffffffffffffff160217905550808273ffffffffffffffffffffffffffffffffffffffff168473ffffffffffffffffffffffffffffffffffffffff167fddf252ad1be2c89b69c2b068fc378daa952ba7f163c4a11628f55a4df523b3ef60405160405180910390a4612075838383612630565b505050565b8173ffffffffffffffffffffffffffffffffffffffff168373ffffffffffffffffffffffffffffffffffffffff1614156120e9576040517f08c379a00000000000000000000000000000000000000000000000000000000081526004016120e090613e57565b60405180910390fd5b80600560008573ffffffffffffffffffffffffffffffffffffffff1673ffffffffffffffffffffffffffffffffffffffff16815260200190815260200160002060008473ffffffffffffffffffffffffffffffffffffffff1673ffffffffffffffffffffffffffffffffffffffff16815260200190815260200160002060006101000a81548160ff0219169083151502179055508173ffffffffffffffffffffffffffffffffffffffff168373ffffffffffffffffffffffffffffffffffffffff167f17307eab39ab6107e8899845ad3d59bd9653f200f220920489ca2b5937696c31836040516121da9190613cc6565b60405180910390a3505050565b6121f2848484611e13565b6121fe84848484612635565b61223d576040517f08c379a000000000000000000000000000000000000000000000000000000000815260040161223490613db7565b60405180910390fd5b50505050565b606061224e82611c08565b61228d576040517f08c379a000000000000000000000000000000000000000000000000000000000815260040161228490613fb7565b60405180910390fd5b60006006600084815260200190815260200160002080546122ad90614579565b80601f01602080910402602001604051908101604052809291908181526020018280546122d990614579565b80156123265780601f106122fb57610100808354040283529160200191612326565b820191906000526020600020905b81548152906001019060200180831161230957829003601f168201915b5050505050905060006123376127cc565b905060008151141561234d578192505050612390565b60008251111561238257808260405160200161236a929190613bed565b60405160208183030381529060405292505050612390565b61238b846127e3565b925050505b919050565b600081600001549050919050565b6001816000016000828254019250508190555050565b6123d382826040518060200160405280600081525061288a565b5050565b6123e082611c08565b61241f576040517f08c379a000000000000000000000000000000000000000000000000000000000815260040161241690613f57565b60405180910390fd5b80600660008481526020019081526020016000209080519060200190612446929190612e3d565b505050565b612454816128e5565b50565b606060005b60095481101561250b578383604051602001612479929190613bbd565b60405160208183030381529060405280519060200120600a60008381526020019081526020016000206000016040516020016124b59190613c11565b6040516020818303038152906040528051906020012014156124f8576124f0600a600083815260200190815260200160002060010154612938565b915050612545565b8080612503906145dc565b91505061245c565b506040518060400160405280601281526020017f57524f4e475f434f4d50414e595f4e414d45000000000000000000000000000081525090505b92915050565b60008060009050600083905060005b8151811015612620576000818351612572919061448f565b905060008383815181106125af577f4e487b7100000000000000000000000000000000000000000000000000000000600052603260045260246000fd5b602001015160f81c60f81b905060008160f81c9050600060308260ff166125d6919061448f565b90506001846125e5919061448f565b600a6125f19190614317565b816125fc9190614435565b87612607919061423d565b9650505050508080612618906145dc565b91505061255a565b508192505050919050565b505050565b505050565b60006126568473ffffffffffffffffffffffffffffffffffffffff16612ae5565b156127bf578373ffffffffffffffffffffffffffffffffffffffff1663150b7a0261267f611c74565b8786866040518563ffffffff1660e01b81526004016126a19493929190613c7a565b602060405180830381600087803b1580156126bb57600080fd5b505af19250505080156126ec57506040513d601f19601f820116820180604052508101906126e9919061334c565b60015b61276f573d806000811461271c576040519150601f19603f3d011682016040523d82523d6000602084013e612721565b606091505b50600081511415612767576040517f08c379a000000000000000000000000000000000000000000000000000000000815260040161275e90613db7565b60405180910390fd5b805181602001fd5b63150b7a0260e01b7bffffffffffffffffffffffffffffffffffffffffffffffffffffffff1916817bffffffffffffffffffffffffffffffffffffffffffffffffffffffff1916149150506127c4565b600190505b949350505050565b606060405180602001604052806000815250905090565b60606127ee82611c08565b61282d576040517f08c379a000000000000000000000000000000000000000000000000000000000815260040161282490613ff7565b60405180910390fd5b60006128376127cc565b905060008151116128575760405180602001604052806000815250612882565b8061286184612938565b604051602001612872929190613bed565b6040516020818303038152906040525b915050919050565b6128948383612b08565b6128a16000848484612635565b6128e0576040517f08c379a00000000000000000000000000000000000000000000000000000000081526004016128d790613db7565b60405180910390fd5b505050565b6128ee81612ce2565b600060066000838152602001908152602001600020805461290e90614579565b905014612935576006600082815260200190815260200160002060006129349190612f49565b5b50565b60606000821415612980576040518060400160405280600181526020017f30000000000000000000000000000000000000000000000000000000000000008152509050612ae0565b600082905060005b600082146129b257808061299b906145dc565b915050600a826129ab9190614293565b9150612988565b60008167ffffffffffffffff8111156129f4577f4e487b7100000000000000000000000000000000000000000000000000000000600052604160045260246000fd5b6040519080825280601f01601f191660200182016040528015612a265781602001600182028036833780820191505090505b5090505b60008514612ad957600182612a3f919061448f565b9150600a85612a4e9190614625565b6030612a5a919061423d565b60f81b818381518110612a96577f4e487b7100000000000000000000000000000000000000000000000000000000600052603260045260246000fd5b60200101907effffffffffffffffffffffffffffffffffffffffffffffffffffffffffffff1916908160001a905350600a85612ad29190614293565b9450612a2a565b8093505050505b919050565b6000808273ffffffffffffffffffffffffffffffffffffffff163b119050919050565b600073ffffffffffffffffffffffffffffffffffffffff168273ffffffffffffffffffffffffffffffffffffffff161415612b78576040517f08c379a0000000000000000000000000000000000000000000000000000000008152600401612b6f90613f97565b60405180910390fd5b612b8181611c08565b15612bc1576040517f08c379a0000000000000000000000000000000000000000000000000000000008152600401612bb890613e17565b60405180910390fd5b612bcd6000838361262b565b6001600360008473ffffffffffffffffffffffffffffffffffffffff1673ffffffffffffffffffffffffffffffffffffffff1681526020019081526020016000206000828254612c1d919061423d565b92505081905550816002600083815260200190815260200160002060006101000a81548173ffffffffffffffffffffffffffffffffffffffff021916908373ffffffffffffffffffffffffffffffffffffffff160217905550808273ffffffffffffffffffffffffffffffffffffffff16600073ffffffffffffffffffffffffffffffffffffffff167fddf252ad1be2c89b69c2b068fc378daa952ba7f163c4a11628f55a4df523b3ef60405160405180910390a4612cde60008383612630565b5050565b6000612ced82610b8f565b9050612cfb8160008461262b565b612d06600083611c7c565b6001600360008373ffffffffffffffffffffffffffffffffffffffff1673ffffffffffffffffffffffffffffffffffffffff1681526020019081526020016000206000828254612d56919061448f565b925050819055506002600083815260200190815260200160002060006101000a81549073ffffffffffffffffffffffffffffffffffffffff021916905581600073ffffffffffffffffffffffffffffffffffffffff168273ffffffffffffffffffffffffffffffffffffffff167fddf252ad1be2c89b69c2b068fc378daa952ba7f163c4a11628f55a4df523b3ef60405160405180910390a4612dfb81600084612630565b5050565b60405180608001604052806000815260200160008152602001600073ffffffffffffffffffffffffffffffffffffffff168152602001606081525090565b828054612e4990614579565b90600052602060002090601f016020900481019282612e6b5760008555612eb2565b82601f10612e8457805160ff1916838001178555612eb2565b82800160010185558215612eb2579182015b82811115612eb1578251825591602001919060010190612e96565b5b509050612ebf9190612f89565b5090565b828054612ecf90614579565b90600052602060002090601f016020900481019282612ef15760008555612f38565b82601f10612f0a57803560ff1916838001178555612f38565b82800160010185558215612f38579182015b82811115612f37578235825591602001919060010190612f1c565b5b509050612f459190612f89565b5090565b508054612f5590614579565b6000825580601f10612f675750612f86565b601f016020900490600052602060002090810190612f859190612f89565b5b50565b5b80821115612fa2576000816000905550600101612f8a565b5090565b6000612fb9612fb484614172565b61414d565b905082815260208101848484011115612fd157600080fd5b612fdc848285614537565b509392505050565b6000612ff7612ff2846141a3565b61414d565b90508281526020810184848401111561300f57600080fd5b61301a848285614537565b509392505050565b60008135905061303181614cf6565b92915050565b60008135905061304681614d0d565b92915050565b60008151905061305b81614d0d565b92915050565b60008135905061307081614d24565b92915050565b60008151905061308581614d24565b92915050565b600082601f83011261309c57600080fd5b81356130ac848260208601612fa6565b91505092915050565b60008083601f8401126130c757600080fd5b8235905067ffffffffffffffff8111156130e057600080fd5b6020830191508360018202830111156130f857600080fd5b9250929050565b600082601f83011261311057600080fd5b8135613120848260208601612fe4565b91505092915050565b60008135905061313881614d3b565b92915050565b60008151905061314d81614d3b565b92915050565b60006020828403121561316557600080fd5b600061317384828501613022565b91505092915050565b6000806040838503121561318f57600080fd5b600061319d85828601613022565b92505060206131ae85828601613022565b9150509250929050565b6000806000606084860312156131cd57600080fd5b60006131db86828701613022565b93505060206131ec86828701613022565b92505060406131fd86828701613129565b9150509250925092565b6000806000806080858703121561321d57600080fd5b600061322b87828801613022565b945050602061323c87828801613022565b935050604061324d87828801613129565b925050606085013567ffffffffffffffff81111561326a57600080fd5b6132768782880161308b565b91505092959194509250565b6000806040838503121561329557600080fd5b60006132a385828601613022565b92505060206132b485828601613037565b9150509250929050565b600080604083850312156132d157600080fd5b60006132df85828601613022565b92505060206132f085828601613129565b9150509250929050565b60006020828403121561330c57600080fd5b600061331a8482850161304c565b91505092915050565b60006020828403121561333557600080fd5b600061334384828501613061565b91505092915050565b60006020828403121561335e57600080fd5b600061336c84828501613076565b91505092915050565b6000806040838503121561338857600080fd5b600083013567ffffffffffffffff8111156133a257600080fd5b6133ae858286016130ff565b925050602083013567ffffffffffffffff8111156133cb57600080fd5b6133d7858286016130ff565b9150509250929050565b6000602082840312156133f357600080fd5b600061340184828501613129565b91505092915050565b60006020828403121561341c57600080fd5b600061342a8482850161313e565b91505092915050565b6000806000806060858703121561344957600080fd5b600061345787828801613129565b945050602085013567ffffffffffffffff81111561347457600080fd5b613480878288016130b5565b9350935050604085013567ffffffffffffffff81111561349f57600080fd5b6134ab878288016130ff565b91505092959194509250565b600080604083850312156134ca57600080fd5b60006134d885828601613129565b925050602083013567ffffffffffffffff8111156134f557600080fd5b613501858286016130ff565b9150509250929050565b6000806040838503121561351e57600080fd5b600061352c85828601613129565b925050602061353d85828601613129565b9150509250929050565b60008060008060006080868803121561355f57600080fd5b600061356d88828901613129565b955050602061357e88828901613129565b945050604061358f88828901613129565b935050606086013567ffffffffffffffff8111156135ac57600080fd5b6135b8888289016130b5565b92509250509295509295909350565b6135d0816144c3565b82525050565b6135df816144c3565b82525050565b6135ee816144d5565b82525050565b60006135ff826141e9565b61360981856141ff565b9350613619818560208601614546565b61362281614712565b840191505092915050565b60006136398385614232565b9350613646838584614537565b82840190509392505050565b600061365d826141f4565b6136678185614210565b9350613677818560208601614546565b61368081614712565b840191505092915050565b6000613696826141f4565b6136a08185614221565b93506136b0818560208601614546565b6136b981614712565b840191505092915050565b60006136cf826141f4565b6136d98185614232565b93506136e9818560208601614546565b80840191505092915050565b6000815461370281614579565b61370c8186614221565b9450600182166000811461372757600181146137395761376c565b60ff198316865260208601935061376c565b613742856141d4565b60005b8381101561376457815481890152600182019150602081019050613745565b808801955050505b50505092915050565b6000815461378281614579565b61378c8186614232565b945060018216600081146137a757600181146137b8576137eb565b60ff198316865281860193506137eb565b6137c1856141d4565b60005b838110156137e3578154818901526001820191506020810190506137c4565b838801955050505b50505092915050565b6000613801603283614221565b915061380c82614730565b604082019050919050565b6000613824602583614221565b915061382f8261477f565b604082019050919050565b6000613847601283614221565b9150613852826147ce565b602082019050919050565b600061386a601c83614221565b9150613875826147f7565b602082019050919050565b600061388d602483614221565b915061389882614820565b604082019050919050565b60006138b0601983614221565b91506138bb8261486f565b602082019050919050565b60006138d3600c83614221565b91506138de82614898565b602082019050919050565b60006138f6602c83614221565b9150613901826148c1565b604082019050919050565b6000613919601a83614221565b915061392482614910565b602082019050919050565b600061393c601883614221565b915061394782614939565b602082019050919050565b600061395f603883614221565b915061396a82614962565b604082019050919050565b6000613982602a83614221565b915061398d826149b1565b604082019050919050565b60006139a5602983614221565b91506139b082614a00565b604082019050919050565b60006139c8602e83614221565b91506139d382614a4f565b604082019050919050565b60006139eb601d83614221565b91506139f682614a9e565b602082019050919050565b6000613a0e602083614221565b9150613a1982614ac7565b602082019050919050565b6000613a31603183614221565b9150613a3c82614af0565b604082019050919050565b6000613a54602c83614221565b9150613a5f82614b3f565b604082019050919050565b6000613a77602f83614221565b9150613a8282614b8e565b604082019050919050565b6000613a9a602183614221565b9150613aa582614bdd565b604082019050919050565b6000613abd603183614221565b9150613ac882614c2c565b604082019050919050565b6000613ae0600f83614221565b9150613aeb82614c7b565b602082019050919050565b6000613b03601683614221565b9150613b0e82614ca4565b602082019050919050565b6000613b26602083614221565b9150613b3182614ccd565b602082019050919050565b6000608083016000830151613b546000860182613b9f565b506020830151613b676020860182613b9f565b506040830151613b7a60408601826135c7565b5060608301518482036060860152613b928282613652565b9150508091505092915050565b613ba88161452d565b82525050565b613bb78161452d565b82525050565b6000613bca82848661362d565b91508190509392505050565b6000613be282846136c4565b915081905092915050565b6000613bf982856136c4565b9150613c0582846136c4565b91508190509392505050565b6000613c1d8284613775565b915081905092915050565b6000602082019050613c3d60008301846135d6565b92915050565b6000606082019050613c5860008301866135d6565b613c6560208301856135d6565b613c726040830184613bae565b949350505050565b6000608082019050613c8f60008301876135d6565b613c9c60208301866135d6565b613ca96040830185613bae565b8181036060830152613cbb81846135f4565b905095945050505050565b6000602082019050613cdb60008301846135e5565b92915050565b60006020820190508181036000830152613cfb818461368b565b905092915050565b600060a0820190508181036000830152613d1d818861368b565b9050613d2c6020830187613bae565b613d3960408301866135d6565b8181036060830152613d4b818561368b565b9050613d5a6080830184613bae565b9695505050505050565b60006080820190508181036000830152613d7e81876136f5565b9050613d8d6020830186613bae565b613d9a60408301856135d6565b8181036060830152613dac81846136f5565b905095945050505050565b60006020820190508181036000830152613dd0816137f4565b9050919050565b60006020820190508181036000830152613df081613817565b9050919050565b60006020820190508181036000830152613e108161383a565b9050919050565b60006020820190508181036000830152613e308161385d565b9050919050565b60006020820190508181036000830152613e5081613880565b9050919050565b60006020820190508181036000830152613e70816138a3565b9050919050565b60006020820190508181036000830152613e90816138c6565b9050919050565b60006020820190508181036000830152613eb0816138e9565b9050919050565b60006020820190508181036000830152613ed08161390c565b9050919050565b60006020820190508181036000830152613ef08161392f565b9050919050565b60006020820190508181036000830152613f1081613952565b9050919050565b60006020820190508181036000830152613f3081613975565b9050919050565b60006020820190508181036000830152613f5081613998565b9050919050565b60006020820190508181036000830152613f70816139bb565b9050919050565b60006020820190508181036000830152613f90816139de565b9050919050565b60006020820190508181036000830152613fb081613a01565b9050919050565b60006020820190508181036000830152613fd081613a24565b9050919050565b60006020820190508181036000830152613ff081613a47565b9050919050565b6000602082019050818103600083015261401081613a6a565b9050919050565b6000602082019050818103600083015261403081613a8d565b9050919050565b6000602082019050818103600083015261405081613ab0565b9050919050565b6000602082019050818103600083015261407081613ad3565b9050919050565b6000602082019050818103600083015261409081613af6565b9050919050565b600060208201905081810360008301526140b081613b19565b9050919050565b600060208201905081810360008301526140d18184613b3c565b905092915050565b60006020820190506140ee6000830184613bae565b92915050565b60006040820190506141096000830185613bae565b818103602083015261411b818461368b565b90509392505050565b60006040820190506141396000830185613bae565b6141466020830184613bae565b9392505050565b6000614157614168565b905061416382826145ab565b919050565b6000604051905090565b600067ffffffffffffffff82111561418d5761418c6146e3565b5b61419682614712565b9050602081019050919050565b600067ffffffffffffffff8211156141be576141bd6146e3565b5b6141c782614712565b9050602081019050919050565b60008190508160005260206000209050919050565b600081519050919050565b600081519050919050565b600082825260208201905092915050565b600082825260208201905092915050565b600082825260208201905092915050565b600081905092915050565b60006142488261452d565b91506142538361452d565b9250827fffffffffffffffffffffffffffffffffffffffffffffffffffffffffffffffff0382111561428857614287614656565b5b828201905092915050565b600061429e8261452d565b91506142a98361452d565b9250826142b9576142b8614685565b5b828204905092915050565b6000808291508390505b600185111561430e578086048111156142ea576142e9614656565b5b60018516156142f95780820291505b808102905061430785614723565b94506142ce565b94509492505050565b60006143228261452d565b915061432d8361452d565b925061435a7fffffffffffffffffffffffffffffffffffffffffffffffffffffffffffffffff8484614362565b905092915050565b600082614372576001905061442e565b81614380576000905061442e565b816001811461439657600281146143a0576143cf565b600191505061442e565b60ff8411156143b2576143b1614656565b5b8360020a9150848211156143c9576143c8614656565b5b5061442e565b5060208310610133831016604e8410600b84101617156144045782820a9050838111156143ff576143fe614656565b5b61442e565b61441184848460016142c4565b9250905081840481111561442857614427614656565b5b81810290505b9392505050565b60006144408261452d565b915061444b8361452d565b9250817fffffffffffffffffffffffffffffffffffffffffffffffffffffffffffffffff048311821515161561448457614483614656565b5b828202905092915050565b600061449a8261452d565b91506144a58361452d565b9250828210156144b8576144b7614656565b5b828203905092915050565b60006144ce8261450d565b9050919050565b60008115159050919050565b60007fffffffff0000000000000000000000000000000000000000000000000000000082169050919050565b600073ffffffffffffffffffffffffffffffffffffffff82169050919050565b6000819050919050565b82818337600083830152505050565b60005b83811015614564578082015181840152602081019050614549565b83811115614573576000848401525b50505050565b6000600282049050600182168061459157607f821691505b602082108114156145a5576145a46146b4565b5b50919050565b6145b482614712565b810181811067ffffffffffffffff821117156145d3576145d26146e3565b5b80604052505050565b60006145e78261452d565b91507fffffffffffffffffffffffffffffffffffffffffffffffffffffffffffffffff82141561461a57614619614656565b5b600182019050919050565b60006146308261452d565b915061463b8361452d565b92508261464b5761464a614685565b5b828206905092915050565b7f4e487b7100000000000000000000000000000000000000000000000000000000600052601160045260246000fd5b7f4e487b7100000000000000000000000000000000000000000000000000000000600052601260045260246000fd5b7f4e487b7100000000000000000000000000000000000000000000000000000000600052602260045260246000fd5b7f4e487b7100000000000000000000000000000000000000000000000000000000600052604160045260246000fd5b6000601f19601f8301169050919050565b60008160011c9050919050565b7f4552433732313a207472616e7366657220746f206e6f6e20455243373231526560008201527f63656976657220696d706c656d656e7465720000000000000000000000000000602082015250565b7f4552433732313a207472616e736665722066726f6d20696e636f72726563742060008201527f6f776e6572000000000000000000000000000000000000000000000000000000602082015250565b7f494e53554646494349454e545f46554e44530000000000000000000000000000600082015250565b7f4552433732313a20746f6b656e20616c7265616479206d696e74656400000000600082015250565b7f4552433732313a207472616e7366657220746f20746865207a65726f2061646460008201527f7265737300000000000000000000000000000000000000000000000000000000602082015250565b7f4552433732313a20617070726f766520746f2063616c6c657200000000000000600082015250565b7f4e46545f534f4c445f4f55540000000000000000000000000000000000000000600082015250565b7f4552433732313a206f70657261746f7220717565727920666f72206e6f6e657860008201527f697374656e7420746f6b656e0000000000000000000000000000000000000000602082015250565b7f43414c4c45525f43414e4e4f545f4348414e47455f5052494345000000000000600082015250565b7f43414c4c45525f4d5553545f484f4c445f5448455f4e46540000000000000000600082015250565b7f4552433732313a20617070726f76652063616c6c6572206973206e6f74206f7760008201527f6e6572206e6f7220617070726f76656420666f7220616c6c0000000000000000602082015250565b7f4552433732313a2062616c616e636520717565727920666f7220746865207a6560008201527f726f206164647265737300000000000000000000000000000000000000000000602082015250565b7f4552433732313a206f776e657220717565727920666f72206e6f6e657869737460008201527f656e7420746f6b656e0000000000000000000000000000000000000000000000602082015250565b7f45524337323155524953746f726167653a2055524920736574206f66206e6f6e60008201527f6578697374656e7420746f6b656e000000000000000000000000000000000000602082015250565b7f43414c4c45525f444f45535f4e4f545f4d415443485f434f4d50414e59000000600082015250565b7f4552433732313a206d696e7420746f20746865207a65726f2061646472657373600082015250565b7f45524337323155524953746f726167653a2055524920717565727920666f722060008201527f6e6f6e6578697374656e7420746f6b656e000000000000000000000000000000602082015250565b7f4552433732313a20617070726f76656420717565727920666f72206e6f6e657860008201527f697374656e7420746f6b656e0000000000000000000000000000000000000000602082015250565b7f4552433732314d657461646174613a2055524920717565727920666f72206e6f60008201527f6e6578697374656e7420746f6b656e0000000000000000000000000000000000602082015250565b7f4552433732313a20617070726f76616c20746f2063757272656e74206f776e6560008201527f7200000000000000000000000000000000000000000000000000000000000000602082015250565b7f4552433732313a207472616e736665722063616c6c6572206973206e6f74206f60008201527f776e6572206e6f7220617070726f766564000000000000000000000000000000602082015250565b7f4e4f5f4e46545f464f525f53414c450000000000000000000000000000000000600082015250565b7f4953535545525f414c52454144595f4352454154454400000000000000000000600082015250565b7f43414c4c45525f4d5553545f42455f524547495354455245445f495353554552600082015250565b614cff816144c3565b8114614d0a57600080fd5b50565b614d16816144d5565b8114614d2157600080fd5b50565b614d2d816144e1565b8114614d3857600080fd5b50565b614d448161452d565b8114614d4f57600080fd5b5056fea26469706673582212201ab34bd6faa9f9c949474709c39cd5e4b37fffe1446e40b4f7e259d342f0a15664736f6c63430008040033",
  "linkReferences": {},
  "deployedLinkReferences": {}
}