{
  "_format": "hh-sol-artifact-1",
  "contractName": "silo",
  "sourceName": "contracts/Silo.sol",
  "abi": [
    {
      "inputs": [
        {
          "internalType": "address",
          "name": "_dai",
          "type": "address"
        }
      ],
      "stateMutability": "nonpayable",
      "type": "constructor"
    },
    {
      "anonymous": false,
      "inputs": [
        {
          "indexed": true,
          "internalType": "address",
          "name": "owner",
          "type": "address"
        },
        {
          "indexed": true,
          "internalType": "address",
          "name": "approved",
          "type": "address"
        },
        {
          "indexed": true,
          "internalType": "uint256",
          "name": "tokenId",
          "type": "uint256"
        }
      ],
      "name": "Approval",
      "type": "event"
    },
    {
      "anonymous": false,
      "inputs": [
        {
          "indexed": true,
          "internalType": "address",
          "name": "owner",
          "type": "address"
        },
        {
          "indexed": true,
          "internalType": "address",
          "name": "operator",
          "type": "address"
        },
        {
          "indexed": false,
          "internalType": "bool",
          "name": "approved",
          "type": "bool"
        }
      ],
      "name": "ApprovalForAll",
      "type": "event"
    },
    {
      "anonymous": false,
      "inputs": [
        {
          "indexed": true,
          "internalType": "address",
          "name": "_from",
          "type": "address"
        },
        {
          "indexed": false,
          "internalType": "uint256",
          "name": "_tokenId",
          "type": "uint256"
        }
      ],
      "name": "Burn",
      "type": "event"
    },
    {
      "anonymous": false,
      "inputs": [
        {
          "indexed": true,
          "internalType": "address",
          "name": "_buyer",
          "type": "address"
        },
        {
          "indexed": true,
          "internalType": "address",
          "name": "_holder",
          "type": "address"
        },
        {
          "indexed": false,
          "internalType": "uint256",
          "name": "_tokenId",
          "type": "uint256"
        },
        {
          "indexed": false,
          "internalType": "uint256",
          "name": "_price",
          "type": "uint256"
        }
      ],
      "name": "Buy",
      "type": "event"
    },
    {
      "anonymous": false,
      "inputs": [
        {
          "indexed": false,
          "internalType": "string",
          "name": "_name",
          "type": "string"
        },
        {
          "indexed": false,
          "internalType": "uint256",
          "name": "_UID",
          "type": "uint256"
        },
        {
          "indexed": false,
          "internalType": "address",
          "name": "_issuerAddress",
          "type": "address"
        },
        {
          "indexed": false,
          "internalType": "string",
          "name": "_companyInfo",
          "type": "string"
        }
      ],
      "name": "NewIssuer",
      "type": "event"
    },
    {
      "anonymous": false,
      "inputs": [
        {
          "indexed": true,
          "internalType": "address",
          "name": "_from",
          "type": "address"
        },
        {
          "indexed": true,
          "internalType": "address",
          "name": "_to",
          "type": "address"
        },
        {
          "indexed": false,
          "internalType": "uint256",
          "name": "_tokenId",
          "type": "uint256"
        },
        {
          "indexed": false,
          "internalType": "string",
          "name": "_newURI",
          "type": "string"
        }
      ],
      "name": "Sell",
      "type": "event"
    },
    {
      "anonymous": false,
      "inputs": [
        {
          "indexed": true,
          "internalType": "address",
          "name": "from",
          "type": "address"
        },
        {
          "indexed": true,
          "internalType": "address",
          "name": "to",
          "type": "address"
        },
        {
          "indexed": true,
          "internalType": "uint256",
          "name": "tokenId",
          "type": "uint256"
        }
      ],
      "name": "Transfer",
      "type": "event"
    },
    {
      "inputs": [
        {
          "internalType": "string",
          "name": "_name",
          "type": "string"
        },
        {
          "internalType": "string",
          "name": "_companyInfo",
          "type": "string"
        }
      ],
      "name": "addIssuer",
      "outputs": [],
      "stateMutability": "payable",
      "type": "function"
    },
    {
      "inputs": [
        {
          "internalType": "address",
          "name": "to",
          "type": "address"
        },
        {
          "internalType": "uint256",
          "name": "tokenId",
          "type": "uint256"
        }
      ],
      "name": "approve",
      "outputs": [],
      "stateMutability": "nonpayable",
      "type": "function"
    },
    {
      "inputs": [
        {
          "internalType": "address",
          "name": "owner",
          "type": "address"
        }
      ],
      "name": "balanceOf",
      "outputs": [
        {
          "internalType": "uint256",
          "name": "",
          "type": "uint256"
        }
      ],
      "stateMutability": "view",
      "type": "function"
    },
    {
      "inputs": [
        {
          "internalType": "uint256",
          "name": "_UIDIssuer",
          "type": "uint256"
        }
      ],
      "name": "buy",
      "outputs": [],
      "stateMutability": "payable",
      "type": "function"
    },
    {
      "inputs": [
        {
          "internalType": "uint256",
          "name": "_UIDIssuer",
          "type": "uint256"
        },
        {
          "internalType": "string",
          "name": "_compagnyInfo",
          "type": "string"
        }
      ],
      "name": "changeCompanyInfo",
      "outputs": [],
      "stateMutability": "payable",
      "type": "function"
    },
    {
      "inputs": [
        {
          "internalType": "uint256",
          "name": "_UIDIssuer",
          "type": "uint256"
        },
        {
          "internalType": "uint256",
          "name": "_newPrice",
          "type": "uint256"
        }
      ],
      "name": "changePrice",
      "outputs": [],
      "stateMutability": "payable",
      "type": "function"
    },
    {
      "inputs": [
        {
          "internalType": "uint256",
          "name": "_UIDIssuer",
          "type": "uint256"
        },
        {
          "internalType": "uint256",
          "name": "_supply",
          "type": "uint256"
        },
        {
          "internalType": "uint256",
          "name": "_price",
          "type": "uint256"
        },
        {
          "internalType": "string",
          "name": "_URI",
          "type": "string"
        }
      ],
      "name": "create",
      "outputs": [],
      "stateMutability": "nonpayable",
      "type": "function"
    },
    {
      "inputs": [
        {
          "internalType": "uint256",
          "name": "tokenId",
          "type": "uint256"
        }
      ],
      "name": "getApproved",
      "outputs": [
        {
          "internalType": "address",
          "name": "",
          "type": "address"
        }
      ],
      "stateMutability": "view",
      "type": "function"
    },
    {
      "inputs": [
        {
          "internalType": "uint256",
          "name": "_UIDIssuer",
          "type": "uint256"
        }
      ],
      "name": "getItem",
      "outputs": [
        {
          "components": [
            {
              "internalType": "uint256",
              "name": "price",
              "type": "uint256"
            },
            {
              "internalType": "uint256",
              "name": "supply",
              "type": "uint256"
            },
            {
              "internalType": "address",
              "name": "issuerAddress",
              "type": "address"
            },
            {
              "internalType": "string",
              "name": "URI",
              "type": "string"
            }
          ],
          "internalType": "struct silo.Item",
          "name": "",
          "type": "tuple"
        }
      ],
      "stateMutability": "view",
      "type": "function"
    },
    {
      "inputs": [
        {
          "internalType": "address",
          "name": "owner",
          "type": "address"
        },
        {
          "internalType": "address",
          "name": "operator",
          "type": "address"
        }
      ],
      "name": "isApprovedForAll",
      "outputs": [
        {
          "internalType": "bool",
          "name": "",
          "type": "bool"
        }
      ],
      "stateMutability": "view",
      "type": "function"
    },
    {
      "inputs": [
        {
          "internalType": "uint256",
          "name": "",
          "type": "uint256"
        }
      ],
      "name": "issuer",
      "outputs": [
        {
          "internalType": "string",
          "name": "name",
          "type": "string"
        },
        {
          "internalType": "uint256",
          "name": "UID",
          "type": "uint256"
        },
        {
          "internalType": "address",
          "name": "issuerAddress",
          "type": "address"
        },
        {
          "internalType": "string",
          "name": "companyInfo",
          "type": "string"
        },
        {
          "internalType": "uint256",
          "name": "numItem",
          "type": "uint256"
        }
      ],
      "stateMutability": "view",
      "type": "function"
    },
    {
      "inputs": [],
      "name": "name",
      "outputs": [
        {
          "internalType": "string",
          "name": "",
          "type": "string"
        }
      ],
      "stateMutability": "view",
      "type": "function"
    },
    {
      "inputs": [
        {
          "internalType": "uint256",
          "name": "tokenId",
          "type": "uint256"
        }
      ],
      "name": "ownerOf",
      "outputs": [
        {
          "internalType": "address",
          "name": "",
          "type": "address"
        }
      ],
      "stateMutability": "view",
      "type": "function"
    },
    {
      "inputs": [
        {
          "internalType": "uint256",
          "name": "tokenId",
          "type": "uint256"
        }
      ],
      "name": "redeem",
      "outputs": [],
      "stateMutability": "nonpayable",
      "type": "function"
    },
    {
      "inputs": [
        {
          "internalType": "address",
          "name": "from",
          "type": "address"
        },
        {
          "internalType": "address",
          "name": "to",
          "type": "address"
        },
        {
          "internalType": "uint256",
          "name": "tokenId",
          "type": "uint256"
        }
      ],
      "name": "safeTransferFrom",
      "outputs": [],
      "stateMutability": "nonpayable",
      "type": "function"
    },
    {
      "inputs": [
        {
          "internalType": "address",
          "name": "from",
          "type": "address"
        },
        {
          "internalType": "address",
          "name": "to",
          "type": "address"
        },
        {
          "internalType": "uint256",
          "name": "tokenId",
          "type": "uint256"
        },
        {
          "internalType": "bytes",
          "name": "_data",
          "type": "bytes"
        }
      ],
      "name": "safeTransferFrom",
      "outputs": [],
      "stateMutability": "nonpayable",
      "type": "function"
    },
    {
      "inputs": [
        {
          "internalType": "uint256",
          "name": "tokenId",
          "type": "uint256"
        },
        {
          "internalType": "string",
          "name": "_nameIssuer",
          "type": "string"
        },
        {
          "internalType": "string",
          "name": "_newURI",
          "type": "string"
        }
      ],
      "name": "sell",
      "outputs": [],
      "stateMutability": "nonpayable",
      "type": "function"
    },
    {
      "inputs": [
        {
          "internalType": "address",
          "name": "operator",
          "type": "address"
        },
        {
          "internalType": "bool",
          "name": "approved",
          "type": "bool"
        }
      ],
      "name": "setApprovalForAll",
      "outputs": [],
      "stateMutability": "nonpayable",
      "type": "function"
    },
    {
      "inputs": [
        {
          "internalType": "bytes4",
          "name": "interfaceId",
          "type": "bytes4"
        }
      ],
      "name": "supportsInterface",
      "outputs": [
        {
          "internalType": "bool",
          "name": "",
          "type": "bool"
        }
      ],
      "stateMutability": "view",
      "type": "function"
    },
    {
      "inputs": [],
      "name": "symbol",
      "outputs": [
        {
          "internalType": "string",
          "name": "",
          "type": "string"
        }
      ],
      "stateMutability": "view",
      "type": "function"
    },
    {
      "inputs": [
        {
          "internalType": "uint256",
          "name": "tokenId",
          "type": "uint256"
        }
      ],
      "name": "tokenURI",
      "outputs": [
        {
          "internalType": "string",
          "name": "",
          "type": "string"
        }
      ],
      "stateMutability": "view",
      "type": "function"
    },
    {
      "inputs": [
        {
          "internalType": "address",
          "name": "from",
          "type": "address"
        },
        {
          "internalType": "address",
          "name": "to",
          "type": "address"
        },
        {
          "internalType": "uint256",
          "name": "tokenId",
          "type": "uint256"
        }
      ],
      "name": "transferFrom",
      "outputs": [],
      "stateMutability": "nonpayable",
      "type": "function"
    }
  ],
  "bytecode": "0x608060405260006009553480156200001657600080fd5b50604051620050933803806200509383398181016040528101906200003c91906200023e565b6040518060400160405280600481526020017f53696c6f000000000000000000000000000000000000000000000000000000008152506040518060400160405280600481526020017f53494c4f000000000000000000000000000000000000000000000000000000008152508160009080519060200190620000c092919062000124565b508060019080519060200190620000d992919062000124565b50505080600860006101000a81548173ffffffffffffffffffffffffffffffffffffffff021916908373ffffffffffffffffffffffffffffffffffffffff16021790555050620002d5565b82805462000132906200029f565b90600052602060002090601f016020900481019282620001565760008555620001a2565b82601f106200017157805160ff1916838001178555620001a2565b82800160010185558215620001a2579182015b82811115620001a157825182559160200191906001019062000184565b5b509050620001b19190620001b5565b5090565b5b80821115620001d0576000816000905550600101620001b6565b5090565b600080fd5b600073ffffffffffffffffffffffffffffffffffffffff82169050919050565b60006200020682620001d9565b9050919050565b6200021881620001f9565b81146200022457600080fd5b50565b60008151905062000238816200020d565b92915050565b600060208284031215620002575762000256620001d4565b5b6000620002678482850162000227565b91505092915050565b7f4e487b7100000000000000000000000000000000000000000000000000000000600052602260045260246000fd5b60006002820490506001821680620002b857607f821691505b60208210811415620002cf57620002ce62000270565b5b50919050565b614dae80620002e56000396000f3fe6080604052600436106101345760003560e01c806395d89b41116100ab578063c87b56dd1161006f578063c87b56dd14610422578063d0e8743f1461045f578063d96a094a14610488578063db006a75146104a4578063e985e9c5146104cd578063f10fc8c61461050a57610134565b806395d89b411461036d578063a22cb46514610398578063b3de019c146103c1578063b88d4fde146103dd578063bf717b7a1461040657610134565b806323b872dd116100fd57806323b872dd146102485780633129e7731461027157806342842e0e146102ae5780636352211e146102d757806370a08231146103145780639544624e1461035157610134565b806268fe8b1461013957806301ffc9a71461017a57806306fdde03146101b7578063081812fc146101e2578063095ea7b31461021f575b600080fd5b34801561014557600080fd5b50610160600480360381019061015b9190612f51565b610533565b604051610171959493929190613067565b60405180910390f35b34801561018657600080fd5b506101a1600480360381019061019c9190613120565b610699565b6040516101ae9190613168565b60405180910390f35b3480156101c357600080fd5b506101cc61077b565b6040516101d99190613183565b60405180910390f35b3480156101ee57600080fd5b5061020960048036038101906102049190612f51565b61080d565b60405161021691906131a5565b60405180910390f35b34801561022b57600080fd5b50610246600480360381019061024191906131ec565b610892565b005b34801561025457600080fd5b5061026f600480360381019061026a919061322c565b6109aa565b005b34801561027d57600080fd5b5061029860048036038101906102939190612f51565b610a0a565b6040516102a5919061334a565b60405180910390f35b3480156102ba57600080fd5b506102d560048036038101906102d0919061322c565b610b6f565b005b3480156102e357600080fd5b506102fe60048036038101906102f99190612f51565b610b8f565b60405161030b91906131a5565b60405180910390f35b34801561032057600080fd5b5061033b6004803603810190610336919061336c565b610c41565b6040516103489190613399565b60405180910390f35b61036b600480360381019061036691906134e9565b610cf9565b005b34801561037957600080fd5b50610382610dcc565b60405161038f9190613183565b60405180910390f35b3480156103a457600080fd5b506103bf60048036038101906103ba9190613571565b610e5e565b005b6103db60048036038101906103d691906135b1565b610e74565b005b3480156103e957600080fd5b5061040460048036038101906103ff9190613692565b610f80565b005b610420600480360381019061041b9190613715565b610fe2565b005b34801561042e57600080fd5b5061044960048036038101906104449190612f51565b61127f565b6040516104569190613183565b60405180910390f35b34801561046b57600080fd5b50610486600480360381019061048191906137ed565b611291565b005b6104a2600480360381019061049d9190612f51565b6114b4565b005b3480156104b057600080fd5b506104cb60048036038101906104c69190612f51565b611942565b005b3480156104d957600080fd5b506104f460048036038101906104ef9190613875565b61199c565b6040516105019190613168565b60405180910390f35b34801561051657600080fd5b50610531600480360381019061052c91906138b5565b611a30565b005b600a60205280600052604060002060009150905080600001805461055690613974565b80601f016020809104026020016040519081016040528092919081815260200182805461058290613974565b80156105cf5780601f106105a4576101008083540402835291602001916105cf565b820191906000526020600020905b8154815290600101906020018083116105b257829003601f168201915b5050505050908060010154908060020160009054906101000a900473ffffffffffffffffffffffffffffffffffffffff169080600301805461061090613974565b80601f016020809104026020016040519081016040528092919081815260200182805461063c90613974565b80156106895780601f1061065e57610100808354040283529160200191610689565b820191906000526020600020905b81548152906001019060200180831161066c57829003601f168201915b5050505050908060040154905085565b60007f80ac58cd000000000000000000000000000000000000000000000000000000007bffffffffffffffffffffffffffffffffffffffffffffffffffffffff1916827bffffffffffffffffffffffffffffffffffffffffffffffffffffffff1916148061076457507f5b5e139f000000000000000000000000000000000000000000000000000000007bffffffffffffffffffffffffffffffffffffffffffffffffffffffff1916827bffffffffffffffffffffffffffffffffffffffffffffffffffffffff1916145b80610774575061077382611b80565b5b9050919050565b60606000805461078a90613974565b80601f01602080910402602001604051908101604052809291908181526020018280546107b690613974565b80156108035780601f106107d857610100808354040283529160200191610803565b820191906000526020600020905b8154815290600101906020018083116107e657829003601f168201915b5050505050905090565b600061081882611bea565b610857576040517f08c379a000000000000000000000000000000000000000000000000000000000815260040161084e90613a18565b60405180910390fd5b6004600083815260200190815260200160002060009054906101000a900473ffffffffffffffffffffffffffffffffffffffff169050919050565b600061089d82610b8f565b90508073ffffffffffffffffffffffffffffffffffffffff168373ffffffffffffffffffffffffffffffffffffffff16141561090e576040517f08c379a000000000000000000000000000000000000000000000000000000000815260040161090590613aaa565b60405180910390fd5b8073ffffffffffffffffffffffffffffffffffffffff1661092d611c56565b73ffffffffffffffffffffffffffffffffffffffff16148061095c575061095b81610956611c56565b61199c565b5b61099b576040517f08c379a000000000000000000000000000000000000000000000000000000000815260040161099290613b3c565b60405180910390fd5b6109a58383611c5e565b505050565b6109bb6109b5611c56565b82611d17565b6109fa576040517f08c379a00000000000000000000000000000000000000000000000000000000081526004016109f190613bce565b60405180910390fd5b610a05838383611df5565b505050565b610a12612d60565b60006001600a600085815260200190815260200160002060040154610a379190613c1d565b9050600a6000848152602001908152602001600020600501600082815260200190815260200160002060405180608001604052908160008201548152602001600182015481526020016002820160009054906101000a900473ffffffffffffffffffffffffffffffffffffffff1673ffffffffffffffffffffffffffffffffffffffff1673ffffffffffffffffffffffffffffffffffffffff168152602001600382018054610ae590613974565b80601f0160208091040260200160405190810160405280929190818152602001828054610b1190613974565b8015610b5e5780601f10610b3357610100808354040283529160200191610b5e565b820191906000526020600020905b815481529060010190602001808311610b4157829003601f168201915b505050505081525050915050919050565b610b8a83838360405180602001604052806000815250610f80565b505050565b6000806002600084815260200190815260200160002060009054906101000a900473ffffffffffffffffffffffffffffffffffffffff169050600073ffffffffffffffffffffffffffffffffffffffff168173ffffffffffffffffffffffffffffffffffffffff161415610c38576040517f08c379a0000000000000000000000000000000000000000000000000000000008152600401610c2f90613cc3565b60405180910390fd5b80915050919050565b60008073ffffffffffffffffffffffffffffffffffffffff168273ffffffffffffffffffffffffffffffffffffffff161415610cb2576040517f08c379a0000000000000000000000000000000000000000000000000000000008152600401610ca990613d55565b60405180910390fd5b600360008373ffffffffffffffffffffffffffffffffffffffff1673ffffffffffffffffffffffffffffffffffffffff168152602001908152602001600020549050919050565b3373ffffffffffffffffffffffffffffffffffffffff16600a600084815260200190815260200160002060020160009054906101000a900473ffffffffffffffffffffffffffffffffffffffff1673ffffffffffffffffffffffffffffffffffffffff1614610d9d576040517f08c379a0000000000000000000000000000000000000000000000000000000008152600401610d9490613dc1565b60405180910390fd5b80600a60008481526020019081526020016000206003019080519060200190610dc7929190612d9e565b505050565b606060018054610ddb90613974565b80601f0160208091040260200160405190810160405280929190818152602001828054610e0790613974565b8015610e545780601f10610e2957610100808354040283529160200191610e54565b820191906000526020600020905b815481529060010190602001808311610e3757829003601f168201915b5050505050905090565b610e70610e69611c56565b838361205c565b5050565b3373ffffffffffffffffffffffffffffffffffffffff16600a600084815260200190815260200160002060020160009054906101000a900473ffffffffffffffffffffffffffffffffffffffff1673ffffffffffffffffffffffffffffffffffffffff1614610f18576040517f08c379a0000000000000000000000000000000000000000000000000000000008152600401610f0f90613e2d565b60405180910390fd5b60005b600a600084815260200190815260200160002060040154811015610f7b5781600a60008581526020019081526020016000206005016000838152602001908152602001600020600001819055508080610f7390613e4d565b915050610f1b565b505050565b610f91610f8b611c56565b83611d17565b610fd0576040517f08c379a0000000000000000000000000000000000000000000000000000000008152600401610fc790613bce565b60405180910390fd5b610fdc848484846121c9565b50505050565b6000805b60095481101561107157836040516020016110019190613ed2565b60405160208183030381529060405280519060200120600a600083815260200190815260200160002060000160405160200161103d9190613f7d565b60405160208183030381529060405280519060200120141561105e57600191505b808061106990613e4d565b915050610fe6565b5060001515811515146110b9576040517f08c379a00000000000000000000000000000000000000000000000000000000081526004016110b090613fe0565b60405180910390fd5b82600a6000600954815260200190815260200160002060000190805190602001906110e5929190612d9e565b50600954600a600060095481526020019081526020016000206001018190555033600a6000600954815260200190815260200160002060020160006101000a81548173ffffffffffffffffffffffffffffffffffffffff021916908373ffffffffffffffffffffffffffffffffffffffff16021790555081600a600060095481526020019081526020016000206003019080519060200190611188929190612d9e565b506000600a6000600954815260200190815260200160002060040181905550600960008154809291906111ba90613e4d565b91905055507f0ee35c6da89d9ba5f7f9f9256826684eac23a5f59b1d0f802a1ae8b8337e8913600a60006009548152602001908152602001600020600001600a6000600954815260200190815260200160002060010154600a6000600954815260200190815260200160002060020160009054906101000a900473ffffffffffffffffffffffffffffffffffffffff16600a600060095481526020019081526020016000206003016040516112729493929190614080565b60405180910390a1505050565b606061128a82612225565b9050919050565b3373ffffffffffffffffffffffffffffffffffffffff16600a600087815260200190815260200160002060020160009054906101000a900473ffffffffffffffffffffffffffffffffffffffff1673ffffffffffffffffffffffffffffffffffffffff1614611335576040517f08c379a000000000000000000000000000000000000000000000000000000000815260040161132c9061411f565b60405180910390fd5b6000600a600087815260200190815260200160002060040154905060008190505b8582611362919061413f565b81101561147e5784600a600089815260200190815260200160002060050160008381526020019081526020016000206000018190555033600a6000898152602001908152602001600020600501600083815260200190815260200160002060020160006101000a81548173ffffffffffffffffffffffffffffffffffffffff021916908373ffffffffffffffffffffffffffffffffffffffff1602179055506001600a60008981526020019081526020016000206005016000838152602001908152602001600020600101819055508383600a60008a81526020019081526020016000206005016000848152602001908152602001600020600301919061146a929190612e24565b50808061147690613e4d565b915050611356565b5084600a600088815260200190815260200160002060040160008282546114a5919061413f565b92505081905550505050505050565b60006001600a6000848152602001908152602001600020600401546114d99190613c1d565b101561151a576040517f08c379a0000000000000000000000000000000000000000000000000000000008152600401611511906141e1565b60405180910390fd5b60006001600a60008481526020019081526020016000206004015461153f9190613c1d565b90506000670de0b6b3a7640000600a60008581526020019081526020016000206005016000848152602001908152602001600020600001546115819190614201565b90506000600a600085815260200190815260200160002060040154116115dc576040517f08c379a00000000000000000000000000000000000000000000000000000000081526004016115d3906142a7565b60405180910390fd5b80600860009054906101000a900473ffffffffffffffffffffffffffffffffffffffff1673ffffffffffffffffffffffffffffffffffffffff166370a08231336040518263ffffffff1660e01b815260040161163891906131a5565b602060405180830381865afa158015611655573d6000803e3d6000fd5b505050506040513d601f19601f8201168201806040525081019061167991906142dc565b10156116ba576040517f08c379a00000000000000000000000000000000000000000000000000000000081526004016116b190614355565b60405180910390fd5b60006116c66007612377565b90506116d26007612385565b600860009054906101000a900473ffffffffffffffffffffffffffffffffffffffff1673ffffffffffffffffffffffffffffffffffffffff166323b872dd33600a600088815260200190815260200160002060020160009054906101000a900473ffffffffffffffffffffffffffffffffffffffff16856040518463ffffffff1660e01b815260040161176793929190614375565b6020604051808303816000875af1158015611786573d6000803e3d6000fd5b505050506040513d601f19601f820116820180604052508101906117aa91906143c1565b506001600a600086815260200190815260200160002060040160008282546117d29190613c1d565b925050819055506117e3338261239b565b61189f81600a60008781526020019081526020016000206005016000868152602001908152602001600020600301805461181c90613974565b80601f016020809104026020016040519081016040528092919081815260200182805461184890613974565b80156118955780601f1061186a57610100808354040283529160200191611895565b820191906000526020600020905b81548152906001019060200180831161187857829003601f168201915b50505050506123b9565b600a600085815260200190815260200160002060020160009054906101000a900473ffffffffffffffffffffffffffffffffffffffff1673ffffffffffffffffffffffffffffffffffffffff163373ffffffffffffffffffffffffffffffffffffffff167f89f5adc174562e07c9c9b1cae7109bbecb21cf9d1b2847e550042b8653c54a0e83856040516119349291906143ee565b60405180910390a350505050565b61194b8161242d565b3373ffffffffffffffffffffffffffffffffffffffff167fcc16f5dbb4873280815c1ee09dbd06736cffcc184412cf7a71a0fdb75d397ca5826040516119919190613399565b60405180910390a250565b6000600560008473ffffffffffffffffffffffffffffffffffffffff1673ffffffffffffffffffffffffffffffffffffffff16815260200190815260200160002060008373ffffffffffffffffffffffffffffffffffffffff1673ffffffffffffffffffffffffffffffffffffffff16815260200190815260200160002060009054906101000a900460ff16905092915050565b6000611a3b33610c41565b11611a7b576040517f08c379a0000000000000000000000000000000000000000000000000000000008152600401611a7290614463565b60405180910390fd5b6000611a8f611a8a8585612439565b61252d565b9050611a9b85836123b9565b611adc33600a600084815260200190815260200160002060020160009054906101000a900473ffffffffffffffffffffffffffffffffffffffff1687610b6f565b600a600082815260200190815260200160002060020160009054906101000a900473ffffffffffffffffffffffffffffffffffffffff1673ffffffffffffffffffffffffffffffffffffffff163373ffffffffffffffffffffffffffffffffffffffff167fcdbf94308476d0eaeae73ed2d3c7c0e0dbd862982f2d8418a8ed372d81e595ed8785604051611b71929190614483565b60405180910390a35050505050565b60007f01ffc9a7000000000000000000000000000000000000000000000000000000007bffffffffffffffffffffffffffffffffffffffffffffffffffffffff1916827bffffffffffffffffffffffffffffffffffffffffffffffffffffffff1916149050919050565b60008073ffffffffffffffffffffffffffffffffffffffff166002600084815260200190815260200160002060009054906101000a900473ffffffffffffffffffffffffffffffffffffffff1673ffffffffffffffffffffffffffffffffffffffff1614159050919050565b600033905090565b816004600083815260200190815260200160002060006101000a81548173ffffffffffffffffffffffffffffffffffffffff021916908373ffffffffffffffffffffffffffffffffffffffff160217905550808273ffffffffffffffffffffffffffffffffffffffff16611cd183610b8f565b73ffffffffffffffffffffffffffffffffffffffff167f8c5be1e5ebec7d5bd14f71427d1e84f3dd0314c0f7b2291e5b200ac8c7c3b92560405160405180910390a45050565b6000611d2282611bea565b611d61576040517f08c379a0000000000000000000000000000000000000000000000000000000008152600401611d5890614525565b60405180910390fd5b6000611d6c83610b8f565b90508073ffffffffffffffffffffffffffffffffffffffff168473ffffffffffffffffffffffffffffffffffffffff161480611ddb57508373ffffffffffffffffffffffffffffffffffffffff16611dc38461080d565b73ffffffffffffffffffffffffffffffffffffffff16145b80611dec5750611deb818561199c565b5b91505092915050565b8273ffffffffffffffffffffffffffffffffffffffff16611e1582610b8f565b73ffffffffffffffffffffffffffffffffffffffff1614611e6b576040517f08c379a0000000000000000000000000000000000000000000000000000000008152600401611e62906145b7565b60405180910390fd5b600073ffffffffffffffffffffffffffffffffffffffff168273ffffffffffffffffffffffffffffffffffffffff161415611edb576040517f08c379a0000000000000000000000000000000000000000000000000000000008152600401611ed290614649565b60405180910390fd5b611ee68383836125e7565b611ef1600082611c5e565b6001600360008573ffffffffffffffffffffffffffffffffffffffff1673ffffffffffffffffffffffffffffffffffffffff1681526020019081526020016000206000828254611f419190613c1d565b925050819055506001600360008473ffffffffffffffffffffffffffffffffffffffff1673ffffffffffffffffffffffffffffffffffffffff1681526020019081526020016000206000828254611f98919061413f565b92505081905550816002600083815260200190815260200160002060006101000a81548173ffffffffffffffffffffffffffffffffffffffff021916908373ffffffffffffffffffffffffffffffffffffffff160217905550808273ffffffffffffffffffffffffffffffffffffffff168473ffffffffffffffffffffffffffffffffffffffff167fddf252ad1be2c89b69c2b068fc378daa952ba7f163c4a11628f55a4df523b3ef60405160405180910390a46120578383836125ec565b505050565b8173ffffffffffffffffffffffffffffffffffffffff168373ffffffffffffffffffffffffffffffffffffffff1614156120cb576040517f08c379a00000000000000000000000000000000000000000000000000000000081526004016120c2906146b5565b60405180910390fd5b80600560008573ffffffffffffffffffffffffffffffffffffffff1673ffffffffffffffffffffffffffffffffffffffff16815260200190815260200160002060008473ffffffffffffffffffffffffffffffffffffffff1673ffffffffffffffffffffffffffffffffffffffff16815260200190815260200160002060006101000a81548160ff0219169083151502179055508173ffffffffffffffffffffffffffffffffffffffff168373ffffffffffffffffffffffffffffffffffffffff167f17307eab39ab6107e8899845ad3d59bd9653f200f220920489ca2b5937696c31836040516121bc9190613168565b60405180910390a3505050565b6121d4848484611df5565b6121e0848484846125f1565b61221f576040517f08c379a000000000000000000000000000000000000000000000000000000000815260040161221690614747565b60405180910390fd5b50505050565b606061223082611bea565b61226f576040517f08c379a0000000000000000000000000000000000000000000000000000000008152600401612266906147d9565b60405180910390fd5b600060066000848152602001908152602001600020805461228f90613974565b80601f01602080910402602001604051908101604052809291908181526020018280546122bb90613974565b80156123085780601f106122dd57610100808354040283529160200191612308565b820191906000526020600020905b8154815290600101906020018083116122eb57829003601f168201915b505050505090506000612319612779565b905060008151141561232f578192505050612372565b60008251111561236457808260405160200161234c9291906147f9565b60405160208183030381529060405292505050612372565b61236d84612790565b925050505b919050565b600081600001549050919050565b6001816000016000828254019250508190555050565b6123b5828260405180602001604052806000815250612837565b5050565b6123c282611bea565b612401576040517f08c379a00000000000000000000000000000000000000000000000000000000081526004016123f89061488f565b60405180910390fd5b80600660008481526020019081526020016000209080519060200190612428929190612d9e565b505050565b61243681612892565b50565b606060005b6009548110156124ed57838360405160200161245b9291906148d4565b60405160208183030381529060405280519060200120600a60008381526020019081526020016000206000016040516020016124979190613f7d565b6040516020818303038152906040528051906020012014156124da576124d2600a6000838152602001908152602001600020600101546128e5565b915050612527565b80806124e590613e4d565b91505061243e565b506040518060400160405280601281526020017f57524f4e475f434f4d50414e595f4e414d45000000000000000000000000000081525090505b92915050565b60008060009050600083905060005b81518110156125dc5760008183516125549190613c1d565b9050600083838151811061256b5761256a6148ed565b5b602001015160f81c60f81b905060008160f81c9050600060308260ff166125929190613c1d565b90506001846125a19190613c1d565b600a6125ad9190614a4f565b816125b89190614201565b876125c3919061413f565b96505050505080806125d490613e4d565b91505061253c565b508192505050919050565b505050565b505050565b60006126128473ffffffffffffffffffffffffffffffffffffffff16612a46565b1561276c578373ffffffffffffffffffffffffffffffffffffffff1663150b7a0261263b611c56565b8786866040518563ffffffff1660e01b815260040161265d9493929190614aef565b6020604051808303816000875af192505050801561269957506040513d601f19601f820116820180604052508101906126969190614b50565b60015b61271c573d80600081146126c9576040519150601f19603f3d011682016040523d82523d6000602084013e6126ce565b606091505b50600081511415612714576040517f08c379a000000000000000000000000000000000000000000000000000000000815260040161270b90614747565b60405180910390fd5b805181602001fd5b63150b7a0260e01b7bffffffffffffffffffffffffffffffffffffffffffffffffffffffff1916817bffffffffffffffffffffffffffffffffffffffffffffffffffffffff191614915050612771565b600190505b949350505050565b606060405180602001604052806000815250905090565b606061279b82611bea565b6127da576040517f08c379a00000000000000000000000000000000000000000000000000000000081526004016127d190614bef565b60405180910390fd5b60006127e4612779565b90506000815111612804576040518060200160405280600081525061282f565b8061280e846128e5565b60405160200161281f9291906147f9565b6040516020818303038152906040525b915050919050565b6128418383612a69565b61284e60008484846125f1565b61288d576040517f08c379a000000000000000000000000000000000000000000000000000000000815260040161288490614747565b60405180910390fd5b505050565b61289b81612c43565b60006006600083815260200190815260200160002080546128bb90613974565b9050146128e2576006600082815260200190815260200160002060006128e19190612eaa565b5b50565b6060600082141561292d576040518060400160405280600181526020017f30000000000000000000000000000000000000000000000000000000000000008152509050612a41565b600082905060005b6000821461295f57808061294890613e4d565b915050600a826129589190614c3e565b9150612935565b60008167ffffffffffffffff81111561297b5761297a6133be565b5b6040519080825280601f01601f1916602001820160405280156129ad5781602001600182028036833780820191505090505b5090505b60008514612a3a576001826129c69190613c1d565b9150600a856129d59190614c6f565b60306129e1919061413f565b60f81b8183815181106129f7576129f66148ed565b5b60200101907effffffffffffffffffffffffffffffffffffffffffffffffffffffffffffff1916908160001a905350600a85612a339190614c3e565b94506129b1565b8093505050505b919050565b6000808273ffffffffffffffffffffffffffffffffffffffff163b119050919050565b600073ffffffffffffffffffffffffffffffffffffffff168273ffffffffffffffffffffffffffffffffffffffff161415612ad9576040517f08c379a0000000000000000000000000000000000000000000000000000000008152600401612ad090614cec565b60405180910390fd5b612ae281611bea565b15612b22576040517f08c379a0000000000000000000000000000000000000000000000000000000008152600401612b1990614d58565b60405180910390fd5b612b2e600083836125e7565b6001600360008473ffffffffffffffffffffffffffffffffffffffff1673ffffffffffffffffffffffffffffffffffffffff1681526020019081526020016000206000828254612b7e919061413f565b92505081905550816002600083815260200190815260200160002060006101000a81548173ffffffffffffffffffffffffffffffffffffffff021916908373ffffffffffffffffffffffffffffffffffffffff160217905550808273ffffffffffffffffffffffffffffffffffffffff16600073ffffffffffffffffffffffffffffffffffffffff167fddf252ad1be2c89b69c2b068fc378daa952ba7f163c4a11628f55a4df523b3ef60405160405180910390a4612c3f600083836125ec565b5050565b6000612c4e82610b8f565b9050612c5c816000846125e7565b612c67600083611c5e565b6001600360008373ffffffffffffffffffffffffffffffffffffffff1673ffffffffffffffffffffffffffffffffffffffff1681526020019081526020016000206000828254612cb79190613c1d565b925050819055506002600083815260200190815260200160002060006101000a81549073ffffffffffffffffffffffffffffffffffffffff021916905581600073ffffffffffffffffffffffffffffffffffffffff168273ffffffffffffffffffffffffffffffffffffffff167fddf252ad1be2c89b69c2b068fc378daa952ba7f163c4a11628f55a4df523b3ef60405160405180910390a4612d5c816000846125ec565b5050565b60405180608001604052806000815260200160008152602001600073ffffffffffffffffffffffffffffffffffffffff168152602001606081525090565b828054612daa90613974565b90600052602060002090601f016020900481019282612dcc5760008555612e13565b82601f10612de557805160ff1916838001178555612e13565b82800160010185558215612e13579182015b82811115612e12578251825591602001919060010190612df7565b5b509050612e209190612eea565b5090565b828054612e3090613974565b90600052602060002090601f016020900481019282612e525760008555612e99565b82601f10612e6b57803560ff1916838001178555612e99565b82800160010185558215612e99579182015b82811115612e98578235825591602001919060010190612e7d565b5b509050612ea69190612eea565b5090565b508054612eb690613974565b6000825580601f10612ec85750612ee7565b601f016020900490600052602060002090810190612ee69190612eea565b5b50565b5b80821115612f03576000816000905550600101612eeb565b5090565b6000604051905090565b600080fd5b600080fd5b6000819050919050565b612f2e81612f1b565b8114612f3957600080fd5b50565b600081359050612f4b81612f25565b92915050565b600060208284031215612f6757612f66612f11565b5b6000612f7584828501612f3c565b91505092915050565b600081519050919050565b600082825260208201905092915050565b60005b83811015612fb8578082015181840152602081019050612f9d565b83811115612fc7576000848401525b50505050565b6000601f19601f8301169050919050565b6000612fe982612f7e565b612ff38185612f89565b9350613003818560208601612f9a565b61300c81612fcd565b840191505092915050565b61302081612f1b565b82525050565b600073ffffffffffffffffffffffffffffffffffffffff82169050919050565b600061305182613026565b9050919050565b61306181613046565b82525050565b600060a08201905081810360008301526130818188612fde565b90506130906020830187613017565b61309d6040830186613058565b81810360608301526130af8185612fde565b90506130be6080830184613017565b9695505050505050565b60007fffffffff0000000000000000000000000000000000000000000000000000000082169050919050565b6130fd816130c8565b811461310857600080fd5b50565b60008135905061311a816130f4565b92915050565b60006020828403121561313657613135612f11565b5b60006131448482850161310b565b91505092915050565b60008115159050919050565b6131628161314d565b82525050565b600060208201905061317d6000830184613159565b92915050565b6000602082019050818103600083015261319d8184612fde565b905092915050565b60006020820190506131ba6000830184613058565b92915050565b6131c981613046565b81146131d457600080fd5b50565b6000813590506131e6816131c0565b92915050565b6000806040838503121561320357613202612f11565b5b6000613211858286016131d7565b925050602061322285828601612f3c565b9150509250929050565b60008060006060848603121561324557613244612f11565b5b6000613253868287016131d7565b9350506020613264868287016131d7565b925050604061327586828701612f3c565b9150509250925092565b61328881612f1b565b82525050565b61329781613046565b82525050565b600082825260208201905092915050565b60006132b982612f7e565b6132c3818561329d565b93506132d3818560208601612f9a565b6132dc81612fcd565b840191505092915050565b60006080830160008301516132ff600086018261327f565b506020830151613312602086018261327f565b506040830151613325604086018261328e565b506060830151848203606086015261333d82826132ae565b9150508091505092915050565b6000602082019050818103600083015261336481846132e7565b905092915050565b60006020828403121561338257613381612f11565b5b6000613390848285016131d7565b91505092915050565b60006020820190506133ae6000830184613017565b92915050565b600080fd5b600080fd5b7f4e487b7100000000000000000000000000000000000000000000000000000000600052604160045260246000fd5b6133f682612fcd565b810181811067ffffffffffffffff82111715613415576134146133be565b5b80604052505050565b6000613428612f07565b905061343482826133ed565b919050565b600067ffffffffffffffff821115613454576134536133be565b5b61345d82612fcd565b9050602081019050919050565b82818337600083830152505050565b600061348c61348784613439565b61341e565b9050828152602081018484840111156134a8576134a76133b9565b5b6134b384828561346a565b509392505050565b600082601f8301126134d0576134cf6133b4565b5b81356134e0848260208601613479565b91505092915050565b60008060408385031215613500576134ff612f11565b5b600061350e85828601612f3c565b925050602083013567ffffffffffffffff81111561352f5761352e612f16565b5b61353b858286016134bb565b9150509250929050565b61354e8161314d565b811461355957600080fd5b50565b60008135905061356b81613545565b92915050565b6000806040838503121561358857613587612f11565b5b6000613596858286016131d7565b92505060206135a78582860161355c565b9150509250929050565b600080604083850312156135c8576135c7612f11565b5b60006135d685828601612f3c565b92505060206135e785828601612f3c565b9150509250929050565b600067ffffffffffffffff82111561360c5761360b6133be565b5b61361582612fcd565b9050602081019050919050565b6000613635613630846135f1565b61341e565b905082815260208101848484011115613651576136506133b9565b5b61365c84828561346a565b509392505050565b600082601f830112613679576136786133b4565b5b8135613689848260208601613622565b91505092915050565b600080600080608085870312156136ac576136ab612f11565b5b60006136ba878288016131d7565b94505060206136cb878288016131d7565b93505060406136dc87828801612f3c565b925050606085013567ffffffffffffffff8111156136fd576136fc612f16565b5b61370987828801613664565b91505092959194509250565b6000806040838503121561372c5761372b612f11565b5b600083013567ffffffffffffffff81111561374a57613749612f16565b5b613756858286016134bb565b925050602083013567ffffffffffffffff81111561377757613776612f16565b5b613783858286016134bb565b9150509250929050565b600080fd5b600080fd5b60008083601f8401126137ad576137ac6133b4565b5b8235905067ffffffffffffffff8111156137ca576137c961378d565b5b6020830191508360018202830111156137e6576137e5613792565b5b9250929050565b60008060008060006080868803121561380957613808612f11565b5b600061381788828901612f3c565b955050602061382888828901612f3c565b945050604061383988828901612f3c565b935050606086013567ffffffffffffffff81111561385a57613859612f16565b5b61386688828901613797565b92509250509295509295909350565b6000806040838503121561388c5761388b612f11565b5b600061389a858286016131d7565b92505060206138ab858286016131d7565b9150509250929050565b600080600080606085870312156138cf576138ce612f11565b5b60006138dd87828801612f3c565b945050602085013567ffffffffffffffff8111156138fe576138fd612f16565b5b61390a87828801613797565b9350935050604085013567ffffffffffffffff81111561392d5761392c612f16565b5b613939878288016134bb565b91505092959194509250565b7f4e487b7100000000000000000000000000000000000000000000000000000000600052602260045260246000fd5b6000600282049050600182168061398c57607f821691505b602082108114156139a05761399f613945565b5b50919050565b7f4552433732313a20617070726f76656420717565727920666f72206e6f6e657860008201527f697374656e7420746f6b656e0000000000000000000000000000000000000000602082015250565b6000613a02602c83612f89565b9150613a0d826139a6565b604082019050919050565b60006020820190508181036000830152613a31816139f5565b9050919050565b7f4552433732313a20617070726f76616c20746f2063757272656e74206f776e6560008201527f7200000000000000000000000000000000000000000000000000000000000000602082015250565b6000613a94602183612f89565b9150613a9f82613a38565b604082019050919050565b60006020820190508181036000830152613ac381613a87565b9050919050565b7f4552433732313a20617070726f76652063616c6c6572206973206e6f74206f7760008201527f6e6572206e6f7220617070726f76656420666f7220616c6c0000000000000000602082015250565b6000613b26603883612f89565b9150613b3182613aca565b604082019050919050565b60006020820190508181036000830152613b5581613b19565b9050919050565b7f4552433732313a207472616e736665722063616c6c6572206973206e6f74206f60008201527f776e6572206e6f7220617070726f766564000000000000000000000000000000602082015250565b6000613bb8603183612f89565b9150613bc382613b5c565b604082019050919050565b60006020820190508181036000830152613be781613bab565b9050919050565b7f4e487b7100000000000000000000000000000000000000000000000000000000600052601160045260246000fd5b6000613c2882612f1b565b9150613c3383612f1b565b925082821015613c4657613c45613bee565b5b828203905092915050565b7f4552433732313a206f776e657220717565727920666f72206e6f6e657869737460008201527f656e7420746f6b656e0000000000000000000000000000000000000000000000602082015250565b6000613cad602983612f89565b9150613cb882613c51565b604082019050919050565b60006020820190508181036000830152613cdc81613ca0565b9050919050565b7f4552433732313a2062616c616e636520717565727920666f7220746865207a6560008201527f726f206164647265737300000000000000000000000000000000000000000000602082015250565b6000613d3f602a83612f89565b9150613d4a82613ce3565b604082019050919050565b60006020820190508181036000830152613d6e81613d32565b9050919050565b7f43414c4c45525f444f45535f4e4f545f4d415443485f434f4d50414e59000000600082015250565b6000613dab601d83612f89565b9150613db682613d75565b602082019050919050565b60006020820190508181036000830152613dda81613d9e565b9050919050565b7f43414c4c45525f43414e4e4f545f4348414e47455f5052494345000000000000600082015250565b6000613e17601a83612f89565b9150613e2282613de1565b602082019050919050565b60006020820190508181036000830152613e4681613e0a565b9050919050565b6000613e5882612f1b565b91507fffffffffffffffffffffffffffffffffffffffffffffffffffffffffffffffff821415613e8b57613e8a613bee565b5b600182019050919050565b600081905092915050565b6000613eac82612f7e565b613eb68185613e96565b9350613ec6818560208601612f9a565b80840191505092915050565b6000613ede8284613ea1565b915081905092915050565b60008190508160005260206000209050919050565b60008154613f0b81613974565b613f158186613e96565b94506001821660008114613f305760018114613f4157613f74565b60ff19831686528186019350613f74565b613f4a85613ee9565b60005b83811015613f6c57815481890152600182019150602081019050613f4d565b838801955050505b50505092915050565b6000613f898284613efe565b915081905092915050565b7f4953535545525f414c52454144595f4352454154454400000000000000000000600082015250565b6000613fca601683612f89565b9150613fd582613f94565b602082019050919050565b60006020820190508181036000830152613ff981613fbd565b9050919050565b6000815461400d81613974565b6140178186612f89565b94506001821660008114614032576001811461404457614077565b60ff1983168652602086019350614077565b61404d85613ee9565b60005b8381101561406f57815481890152600182019150602081019050614050565b808801955050505b50505092915050565b6000608082019050818103600083015261409a8187614000565b90506140a96020830186613017565b6140b66040830185613058565b81810360608301526140c88184614000565b905095945050505050565b7f43414c4c45525f4d5553545f42455f524547495354455245445f495353554552600082015250565b6000614109602083612f89565b9150614114826140d3565b602082019050919050565b60006020820190508181036000830152614138816140fc565b9050919050565b600061414a82612f1b565b915061415583612f1b565b9250827fffffffffffffffffffffffffffffffffffffffffffffffffffffffffffffffff0382111561418a57614189613bee565b5b828201905092915050565b7f4e46545f534f4c445f4f55540000000000000000000000000000000000000000600082015250565b60006141cb600c83612f89565b91506141d682614195565b602082019050919050565b600060208201905081810360008301526141fa816141be565b9050919050565b600061420c82612f1b565b915061421783612f1b565b9250817fffffffffffffffffffffffffffffffffffffffffffffffffffffffffffffffff04831182151516156142505761424f613bee565b5b828202905092915050565b7f4e4f5f4e46545f464f525f53414c450000000000000000000000000000000000600082015250565b6000614291600f83612f89565b915061429c8261425b565b602082019050919050565b600060208201905081810360008301526142c081614284565b9050919050565b6000815190506142d681612f25565b92915050565b6000602082840312156142f2576142f1612f11565b5b6000614300848285016142c7565b91505092915050565b7f494e53554646494349454e545f46554e44530000000000000000000000000000600082015250565b600061433f601283612f89565b915061434a82614309565b602082019050919050565b6000602082019050818103600083015261436e81614332565b9050919050565b600060608201905061438a6000830186613058565b6143976020830185613058565b6143a46040830184613017565b949350505050565b6000815190506143bb81613545565b92915050565b6000602082840312156143d7576143d6612f11565b5b60006143e5848285016143ac565b91505092915050565b60006040820190506144036000830185613017565b6144106020830184613017565b9392505050565b7f43414c4c45525f4d5553545f484f4c445f5448455f4e46540000000000000000600082015250565b600061444d601883612f89565b915061445882614417565b602082019050919050565b6000602082019050818103600083015261447c81614440565b9050919050565b60006040820190506144986000830185613017565b81810360208301526144aa8184612fde565b90509392505050565b7f4552433732313a206f70657261746f7220717565727920666f72206e6f6e657860008201527f697374656e7420746f6b656e0000000000000000000000000000000000000000602082015250565b600061450f602c83612f89565b915061451a826144b3565b604082019050919050565b6000602082019050818103600083015261453e81614502565b9050919050565b7f4552433732313a207472616e736665722066726f6d20696e636f72726563742060008201527f6f776e6572000000000000000000000000000000000000000000000000000000602082015250565b60006145a1602583612f89565b91506145ac82614545565b604082019050919050565b600060208201905081810360008301526145d081614594565b9050919050565b7f4552433732313a207472616e7366657220746f20746865207a65726f2061646460008201527f7265737300000000000000000000000000000000000000000000000000000000602082015250565b6000614633602483612f89565b915061463e826145d7565b604082019050919050565b6000602082019050818103600083015261466281614626565b9050919050565b7f4552433732313a20617070726f766520746f2063616c6c657200000000000000600082015250565b600061469f601983612f89565b91506146aa82614669565b602082019050919050565b600060208201905081810360008301526146ce81614692565b9050919050565b7f4552433732313a207472616e7366657220746f206e6f6e20455243373231526560008201527f63656976657220696d706c656d656e7465720000000000000000000000000000602082015250565b6000614731603283612f89565b915061473c826146d5565b604082019050919050565b6000602082019050818103600083015261476081614724565b9050919050565b7f45524337323155524953746f726167653a2055524920717565727920666f722060008201527f6e6f6e6578697374656e7420746f6b656e000000000000000000000000000000602082015250565b60006147c3603183612f89565b91506147ce82614767565b604082019050919050565b600060208201905081810360008301526147f2816147b6565b9050919050565b60006148058285613ea1565b91506148118284613ea1565b91508190509392505050565b7f45524337323155524953746f726167653a2055524920736574206f66206e6f6e60008201527f6578697374656e7420746f6b656e000000000000000000000000000000000000602082015250565b6000614879602e83612f89565b91506148848261481d565b604082019050919050565b600060208201905081810360008301526148a88161486c565b9050919050565b60006148bb8385613e96565b93506148c883858461346a565b82840190509392505050565b60006148e18284866148af565b91508190509392505050565b7f4e487b7100000000000000000000000000000000000000000000000000000000600052603260045260246000fd5b60008160011c9050919050565b6000808291508390505b60018511156149735780860481111561494f5761494e613bee565b5b600185161561495e5780820291505b808102905061496c8561491c565b9450614933565b94509492505050565b60008261498c5760019050614a48565b8161499a5760009050614a48565b81600181146149b057600281146149ba576149e9565b6001915050614a48565b60ff8411156149cc576149cb613bee565b5b8360020a9150848211156149e3576149e2613bee565b5b50614a48565b5060208310610133831016604e8410600b8410161715614a1e5782820a905083811115614a1957614a18613bee565b5b614a48565b614a2b8484846001614929565b92509050818404811115614a4257614a41613bee565b5b81810290505b9392505050565b6000614a5a82612f1b565b9150614a6583612f1b565b9250614a927fffffffffffffffffffffffffffffffffffffffffffffffffffffffffffffffff848461497c565b905092915050565b600081519050919050565b600082825260208201905092915050565b6000614ac182614a9a565b614acb8185614aa5565b9350614adb818560208601612f9a565b614ae481612fcd565b840191505092915050565b6000608082019050614b046000830187613058565b614b116020830186613058565b614b1e6040830185613017565b8181036060830152614b308184614ab6565b905095945050505050565b600081519050614b4a816130f4565b92915050565b600060208284031215614b6657614b65612f11565b5b6000614b7484828501614b3b565b91505092915050565b7f4552433732314d657461646174613a2055524920717565727920666f72206e6f60008201527f6e6578697374656e7420746f6b656e0000000000000000000000000000000000602082015250565b6000614bd9602f83612f89565b9150614be482614b7d565b604082019050919050565b60006020820190508181036000830152614c0881614bcc565b9050919050565b7f4e487b7100000000000000000000000000000000000000000000000000000000600052601260045260246000fd5b6000614c4982612f1b565b9150614c5483612f1b565b925082614c6457614c63614c0f565b5b828204905092915050565b6000614c7a82612f1b565b9150614c8583612f1b565b925082614c9557614c94614c0f565b5b828206905092915050565b7f4552433732313a206d696e7420746f20746865207a65726f2061646472657373600082015250565b6000614cd6602083612f89565b9150614ce182614ca0565b602082019050919050565b60006020820190508181036000830152614d0581614cc9565b9050919050565b7f4552433732313a20746f6b656e20616c7265616479206d696e74656400000000600082015250565b6000614d42601c83612f89565b9150614d4d82614d0c565b602082019050919050565b60006020820190508181036000830152614d7181614d35565b905091905056fea26469706673582212201dd1adb049682eb4823aac3d129bdb4ec9df9a7f4292f49f1ad9a063e989a81a64736f6c634300080a0033",
  "linkReferences": {},
  "deployedLinkReferences": {}
}