{
  "_format": "hh-sol-artifact-1",
  "contractName": "silo",
  "sourceName": "contracts/Silo.sol",
  "abi": [
    {
      "inputs": [
        {
          "internalType": "address",
          "name": "_dai",
          "type": "address"
        }
      ],
      "stateMutability": "nonpayable",
      "type": "constructor"
    },
    {
      "anonymous": false,
      "inputs": [
        {
          "indexed": true,
          "internalType": "address",
          "name": "owner",
          "type": "address"
        },
        {
          "indexed": true,
          "internalType": "address",
          "name": "approved",
          "type": "address"
        },
        {
          "indexed": true,
          "internalType": "uint256",
          "name": "tokenId",
          "type": "uint256"
        }
      ],
      "name": "Approval",
      "type": "event"
    },
    {
      "anonymous": false,
      "inputs": [
        {
          "indexed": true,
          "internalType": "address",
          "name": "owner",
          "type": "address"
        },
        {
          "indexed": true,
          "internalType": "address",
          "name": "operator",
          "type": "address"
        },
        {
          "indexed": false,
          "internalType": "bool",
          "name": "approved",
          "type": "bool"
        }
      ],
      "name": "ApprovalForAll",
      "type": "event"
    },
    {
      "anonymous": false,
      "inputs": [
        {
          "indexed": true,
          "internalType": "address",
          "name": "_from",
          "type": "address"
        },
        {
          "indexed": false,
          "internalType": "uint256",
          "name": "_tokenId",
          "type": "uint256"
        }
      ],
      "name": "Burn",
      "type": "event"
    },
    {
      "anonymous": false,
      "inputs": [
        {
          "indexed": true,
          "internalType": "address",
          "name": "_buyer",
          "type": "address"
        },
        {
          "indexed": true,
          "internalType": "address",
          "name": "_holder",
          "type": "address"
        },
        {
          "indexed": false,
          "internalType": "uint256",
          "name": "_tokenId",
          "type": "uint256"
        },
        {
          "indexed": false,
          "internalType": "uint256",
          "name": "_price",
          "type": "uint256"
        }
      ],
      "name": "Buy",
      "type": "event"
    },
    {
      "anonymous": false,
      "inputs": [
        {
          "indexed": false,
          "internalType": "string",
          "name": "_name",
          "type": "string"
        },
        {
          "indexed": false,
          "internalType": "uint256",
          "name": "_UID",
          "type": "uint256"
        },
        {
          "indexed": false,
          "internalType": "address",
          "name": "_addressIssuer",
          "type": "address"
        },
        {
          "indexed": false,
          "internalType": "string",
          "name": "_companyInfo",
          "type": "string"
        }
      ],
      "name": "NewIssuer",
      "type": "event"
    },
    {
      "anonymous": false,
      "inputs": [
        {
          "indexed": true,
          "internalType": "address",
          "name": "_from",
          "type": "address"
        },
        {
          "indexed": true,
          "internalType": "address",
          "name": "_to",
          "type": "address"
        },
        {
          "indexed": false,
          "internalType": "uint256",
          "name": "_tokenId",
          "type": "uint256"
        },
        {
          "indexed": false,
          "internalType": "string",
          "name": "_newURI",
          "type": "string"
        }
      ],
      "name": "Sell",
      "type": "event"
    },
    {
      "anonymous": false,
      "inputs": [
        {
          "indexed": true,
          "internalType": "address",
          "name": "from",
          "type": "address"
        },
        {
          "indexed": true,
          "internalType": "address",
          "name": "to",
          "type": "address"
        },
        {
          "indexed": true,
          "internalType": "uint256",
          "name": "tokenId",
          "type": "uint256"
        }
      ],
      "name": "Transfer",
      "type": "event"
    },
    {
      "inputs": [
        {
          "internalType": "string",
          "name": "_name",
          "type": "string"
        },
        {
          "internalType": "string",
          "name": "_companyInfo",
          "type": "string"
        }
      ],
      "name": "addIssuer",
      "outputs": [],
      "stateMutability": "payable",
      "type": "function"
    },
    {
      "inputs": [
        {
          "internalType": "address",
          "name": "to",
          "type": "address"
        },
        {
          "internalType": "uint256",
          "name": "tokenId",
          "type": "uint256"
        }
      ],
      "name": "approve",
      "outputs": [],
      "stateMutability": "nonpayable",
      "type": "function"
    },
    {
      "inputs": [
        {
          "internalType": "address",
          "name": "owner",
          "type": "address"
        }
      ],
      "name": "balanceOf",
      "outputs": [
        {
          "internalType": "uint256",
          "name": "",
          "type": "uint256"
        }
      ],
      "stateMutability": "view",
      "type": "function"
    },
    {
      "inputs": [
        {
          "internalType": "uint256",
          "name": "_UIDIssuer",
          "type": "uint256"
        }
      ],
      "name": "buy",
      "outputs": [],
      "stateMutability": "payable",
      "type": "function"
    },
    {
      "inputs": [
        {
          "internalType": "uint256",
          "name": "_UIDIssuer",
          "type": "uint256"
        },
        {
          "internalType": "string",
          "name": "_compagnyInfo",
          "type": "string"
        }
      ],
      "name": "changeCompagnyInfo",
      "outputs": [],
      "stateMutability": "payable",
      "type": "function"
    },
    {
      "inputs": [
        {
          "internalType": "uint256",
          "name": "_UIDIssuer",
          "type": "uint256"
        },
        {
          "internalType": "uint256",
          "name": "_newPrice",
          "type": "uint256"
        }
      ],
      "name": "changePrice",
      "outputs": [],
      "stateMutability": "payable",
      "type": "function"
    },
    {
      "inputs": [
        {
          "internalType": "uint256",
          "name": "_UIDIssuer",
          "type": "uint256"
        },
        {
          "internalType": "uint256",
          "name": "_supply",
          "type": "uint256"
        },
        {
          "internalType": "uint256",
          "name": "_price",
          "type": "uint256"
        },
        {
          "internalType": "string",
          "name": "_URI",
          "type": "string"
        }
      ],
      "name": "create",
      "outputs": [],
      "stateMutability": "nonpayable",
      "type": "function"
    },
    {
      "inputs": [
        {
          "internalType": "uint256",
          "name": "tokenId",
          "type": "uint256"
        }
      ],
      "name": "endOrder",
      "outputs": [],
      "stateMutability": "nonpayable",
      "type": "function"
    },
    {
      "inputs": [
        {
          "internalType": "uint256",
          "name": "tokenId",
          "type": "uint256"
        }
      ],
      "name": "getApproved",
      "outputs": [
        {
          "internalType": "address",
          "name": "",
          "type": "address"
        }
      ],
      "stateMutability": "view",
      "type": "function"
    },
    {
      "inputs": [
        {
          "internalType": "uint256",
          "name": "_UIDIssuer",
          "type": "uint256"
        }
      ],
      "name": "getItem",
      "outputs": [
        {
          "components": [
            {
              "internalType": "uint256",
              "name": "price",
              "type": "uint256"
            },
            {
              "internalType": "uint256",
              "name": "supply",
              "type": "uint256"
            },
            {
              "internalType": "address",
              "name": "issuerHolder",
              "type": "address"
            },
            {
              "internalType": "string",
              "name": "URI",
              "type": "string"
            }
          ],
          "internalType": "struct silo.Item",
          "name": "",
          "type": "tuple"
        }
      ],
      "stateMutability": "view",
      "type": "function"
    },
    {
      "inputs": [
        {
          "internalType": "address",
          "name": "owner",
          "type": "address"
        },
        {
          "internalType": "address",
          "name": "operator",
          "type": "address"
        }
      ],
      "name": "isApprovedForAll",
      "outputs": [
        {
          "internalType": "bool",
          "name": "",
          "type": "bool"
        }
      ],
      "stateMutability": "view",
      "type": "function"
    },
    {
      "inputs": [
        {
          "internalType": "uint256",
          "name": "",
          "type": "uint256"
        }
      ],
      "name": "issuer",
      "outputs": [
        {
          "internalType": "string",
          "name": "name",
          "type": "string"
        },
        {
          "internalType": "uint256",
          "name": "UID",
          "type": "uint256"
        },
        {
          "internalType": "address",
          "name": "addressIssuer",
          "type": "address"
        },
        {
          "internalType": "string",
          "name": "companyInfo",
          "type": "string"
        },
        {
          "internalType": "uint256",
          "name": "numItem",
          "type": "uint256"
        }
      ],
      "stateMutability": "view",
      "type": "function"
    },
    {
      "inputs": [],
      "name": "name",
      "outputs": [
        {
          "internalType": "string",
          "name": "",
          "type": "string"
        }
      ],
      "stateMutability": "view",
      "type": "function"
    },
    {
      "inputs": [
        {
          "internalType": "uint256",
          "name": "tokenId",
          "type": "uint256"
        }
      ],
      "name": "ownerOf",
      "outputs": [
        {
          "internalType": "address",
          "name": "",
          "type": "address"
        }
      ],
      "stateMutability": "view",
      "type": "function"
    },
    {
      "inputs": [
        {
          "internalType": "address",
          "name": "from",
          "type": "address"
        },
        {
          "internalType": "address",
          "name": "to",
          "type": "address"
        },
        {
          "internalType": "uint256",
          "name": "tokenId",
          "type": "uint256"
        }
      ],
      "name": "safeTransferFrom",
      "outputs": [],
      "stateMutability": "nonpayable",
      "type": "function"
    },
    {
      "inputs": [
        {
          "internalType": "address",
          "name": "from",
          "type": "address"
        },
        {
          "internalType": "address",
          "name": "to",
          "type": "address"
        },
        {
          "internalType": "uint256",
          "name": "tokenId",
          "type": "uint256"
        },
        {
          "internalType": "bytes",
          "name": "_data",
          "type": "bytes"
        }
      ],
      "name": "safeTransferFrom",
      "outputs": [],
      "stateMutability": "nonpayable",
      "type": "function"
    },
    {
      "inputs": [
        {
          "internalType": "uint256",
          "name": "tokenId",
          "type": "uint256"
        },
        {
          "internalType": "string",
          "name": "_nameIssuer",
          "type": "string"
        },
        {
          "internalType": "string",
          "name": "_newURI",
          "type": "string"
        }
      ],
      "name": "sell",
      "outputs": [],
      "stateMutability": "nonpayable",
      "type": "function"
    },
    {
      "inputs": [
        {
          "internalType": "address",
          "name": "operator",
          "type": "address"
        },
        {
          "internalType": "bool",
          "name": "approved",
          "type": "bool"
        }
      ],
      "name": "setApprovalForAll",
      "outputs": [],
      "stateMutability": "nonpayable",
      "type": "function"
    },
    {
      "inputs": [
        {
          "internalType": "bytes4",
          "name": "interfaceId",
          "type": "bytes4"
        }
      ],
      "name": "supportsInterface",
      "outputs": [
        {
          "internalType": "bool",
          "name": "",
          "type": "bool"
        }
      ],
      "stateMutability": "view",
      "type": "function"
    },
    {
      "inputs": [],
      "name": "symbol",
      "outputs": [
        {
          "internalType": "string",
          "name": "",
          "type": "string"
        }
      ],
      "stateMutability": "view",
      "type": "function"
    },
    {
      "inputs": [
        {
          "internalType": "uint256",
          "name": "tokenId",
          "type": "uint256"
        }
      ],
      "name": "tokenURI",
      "outputs": [
        {
          "internalType": "string",
          "name": "",
          "type": "string"
        }
      ],
      "stateMutability": "view",
      "type": "function"
    },
    {
      "inputs": [
        {
          "internalType": "address",
          "name": "from",
          "type": "address"
        },
        {
          "internalType": "address",
          "name": "to",
          "type": "address"
        },
        {
          "internalType": "uint256",
          "name": "tokenId",
          "type": "uint256"
        }
      ],
      "name": "transferFrom",
      "outputs": [],
      "stateMutability": "nonpayable",
      "type": "function"
    }
  ],
  "bytecode": "0x608060405260006009553480156200001657600080fd5b50604051620050223803806200502283398181016040528101906200003c9190620001eb565b6040518060400160405280600981526020017f53696c6f546f6b656e00000000000000000000000000000000000000000000008152506040518060400160405280600381526020017f534c4f00000000000000000000000000000000000000000000000000000000008152508160009080519060200190620000c092919062000124565b508060019080519060200190620000d992919062000124565b50505080600860006101000a81548173ffffffffffffffffffffffffffffffffffffffff021916908373ffffffffffffffffffffffffffffffffffffffff16021790555050620002ca565b82805462000132906200024b565b90600052602060002090601f016020900481019282620001565760008555620001a2565b82601f106200017157805160ff1916838001178555620001a2565b82800160010185558215620001a2579182015b82811115620001a157825182559160200191906001019062000184565b5b509050620001b19190620001b5565b5090565b5b80821115620001d0576000816000905550600101620001b6565b5090565b600081519050620001e581620002b0565b92915050565b600060208284031215620001fe57600080fd5b60006200020e84828501620001d4565b91505092915050565b600062000224826200022b565b9050919050565b600073ffffffffffffffffffffffffffffffffffffffff82169050919050565b600060028204905060018216806200026457607f821691505b602082108114156200027b576200027a62000281565b5b50919050565b7f4e487b7100000000000000000000000000000000000000000000000000000000600052602260045260246000fd5b620002bb8162000217565b8114620002c757600080fd5b50565b614d4880620002da6000396000f3fe6080604052600436106101345760003560e01c80638cf2f673116100ab578063bf717b7a1161006f578063bf717b7a1461042f578063c87b56dd1461044b578063d0e8743f14610488578063d96a094a146104b1578063e985e9c5146104cd578063f10fc8c61461050a57610134565b80638cf2f6731461036d57806395d89b4114610396578063a22cb465146103c1578063b3de019c146103ea578063b88d4fde1461040657610134565b806323b872dd116100fd57806323b872dd146102485780633129e7731461027157806342842e0e146102ae5780634ca1801d146102d75780636352211e146102f357806370a082311461033057610134565b806268fe8b1461013957806301ffc9a71461017a57806306fdde03146101b7578063081812fc146101e2578063095ea7b31461021f575b600080fd5b34801561014557600080fd5b50610160600480360381019061015b91906133e1565b610533565b604051610171959493929190613cbd565b60405180910390f35b34801561018657600080fd5b506101a1600480360381019061019c9190613323565b610699565b6040516101ae9190613c80565b60405180910390f35b3480156101c357600080fd5b506101cc61077b565b6040516101d99190613c9b565b60405180910390f35b3480156101ee57600080fd5b50610209600480360381019061020491906133e1565b61080d565b6040516102169190613be2565b60405180910390f35b34801561022b57600080fd5b50610246600480360381019061024191906132be565b610892565b005b34801561025457600080fd5b5061026f600480360381019061026a91906131b8565b6109aa565b005b34801561027d57600080fd5b50610298600480360381019061029391906133e1565b610a0a565b6040516102a59190614031565b60405180910390f35b3480156102ba57600080fd5b506102d560048036038101906102d091906131b8565b610b6f565b005b6102f160048036038101906102ec91906134b7565b610b8f565b005b3480156102ff57600080fd5b5061031a600480360381019061031591906133e1565b610c62565b6040516103279190613be2565b60405180910390f35b34801561033c57600080fd5b5061035760048036038101906103529190613153565b610d14565b6040516103649190614053565b60405180910390f35b34801561037957600080fd5b50610394600480360381019061038f91906133e1565b610dcc565b005b3480156103a257600080fd5b506103ab610e26565b6040516103b89190613c9b565b60405180910390f35b3480156103cd57600080fd5b506103e860048036038101906103e39190613282565b610eb8565b005b61040460048036038101906103ff919061350b565b610ece565b005b34801561041257600080fd5b5061042d60048036038101906104289190613207565b610fda565b005b61044960048036038101906104449190613375565b61103c565b005b34801561045757600080fd5b50610472600480360381019061046d91906133e1565b6112d9565b60405161047f9190613c9b565b60405180910390f35b34801561049457600080fd5b506104af60048036038101906104aa9190613547565b6112eb565b005b6104cb60048036038101906104c691906133e1565b61150e565b005b3480156104d957600080fd5b506104f460048036038101906104ef919061317c565b6119ba565b6040516105019190613c80565b60405180910390f35b34801561051657600080fd5b50610531600480360381019061052c9190613433565b611a4e565b005b600a602052806000526040600020600091509050806000018054610556906144f3565b80601f0160208091040260200160405190810160405280929190818152602001828054610582906144f3565b80156105cf5780601f106105a4576101008083540402835291602001916105cf565b820191906000526020600020905b8154815290600101906020018083116105b257829003601f168201915b5050505050908060010154908060020160009054906101000a900473ffffffffffffffffffffffffffffffffffffffff1690806003018054610610906144f3565b80601f016020809104026020016040519081016040528092919081815260200182805461063c906144f3565b80156106895780601f1061065e57610100808354040283529160200191610689565b820191906000526020600020905b81548152906001019060200180831161066c57829003601f168201915b5050505050908060040154905085565b60007f80ac58cd000000000000000000000000000000000000000000000000000000007bffffffffffffffffffffffffffffffffffffffffffffffffffffffff1916827bffffffffffffffffffffffffffffffffffffffffffffffffffffffff1916148061076457507f5b5e139f000000000000000000000000000000000000000000000000000000007bffffffffffffffffffffffffffffffffffffffffffffffffffffffff1916827bffffffffffffffffffffffffffffffffffffffffffffffffffffffff1916145b80610774575061077382611b9e565b5b9050919050565b60606000805461078a906144f3565b80601f01602080910402602001604051908101604052809291908181526020018280546107b6906144f3565b80156108035780601f106107d857610100808354040283529160200191610803565b820191906000526020600020905b8154815290600101906020018083116107e657829003601f168201915b5050505050905090565b600061081882611c08565b610857576040517f08c379a000000000000000000000000000000000000000000000000000000000815260040161084e90613f51565b60405180910390fd5b6004600083815260200190815260200160002060009054906101000a900473ffffffffffffffffffffffffffffffffffffffff169050919050565b600061089d82610c62565b90508073ffffffffffffffffffffffffffffffffffffffff168373ffffffffffffffffffffffffffffffffffffffff16141561090e576040517f08c379a000000000000000000000000000000000000000000000000000000000815260040161090590613fd1565b60405180910390fd5b8073ffffffffffffffffffffffffffffffffffffffff1661092d611c74565b73ffffffffffffffffffffffffffffffffffffffff16148061095c575061095b81610956611c74565b6119ba565b5b61099b576040517f08c379a000000000000000000000000000000000000000000000000000000000815260040161099290613e71565b60405180910390fd5b6109a58383611c7c565b505050565b6109bb6109b5611c74565b82611d35565b6109fa576040517f08c379a00000000000000000000000000000000000000000000000000000000081526004016109f190613ff1565b60405180910390fd5b610a05838383611e13565b505050565b610a12612dff565b60006001600a600085815260200190815260200160002060040154610a379190614409565b9050600a6000848152602001908152602001600020600501600082815260200190815260200160002060405180608001604052908160008201548152602001600182015481526020016002820160009054906101000a900473ffffffffffffffffffffffffffffffffffffffff1673ffffffffffffffffffffffffffffffffffffffff1673ffffffffffffffffffffffffffffffffffffffff168152602001600382018054610ae5906144f3565b80601f0160208091040260200160405190810160405280929190818152602001828054610b11906144f3565b8015610b5e5780601f10610b3357610100808354040283529160200191610b5e565b820191906000526020600020905b815481529060010190602001808311610b4157829003601f168201915b505050505081525050915050919050565b610b8a83838360405180602001604052806000815250610fda565b505050565b3373ffffffffffffffffffffffffffffffffffffffff16600a600084815260200190815260200160002060020160009054906101000a900473ffffffffffffffffffffffffffffffffffffffff1673ffffffffffffffffffffffffffffffffffffffff1614610c33576040517f08c379a0000000000000000000000000000000000000000000000000000000008152600401610c2a90614011565b60405180910390fd5b80600a60008481526020019081526020016000206003019080519060200190610c5d929190612e3d565b505050565b6000806002600084815260200190815260200160002060009054906101000a900473ffffffffffffffffffffffffffffffffffffffff169050600073ffffffffffffffffffffffffffffffffffffffff168173ffffffffffffffffffffffffffffffffffffffff161415610d0b576040517f08c379a0000000000000000000000000000000000000000000000000000000008152600401610d0290613eb1565b60405180910390fd5b80915050919050565b60008073ffffffffffffffffffffffffffffffffffffffff168273ffffffffffffffffffffffffffffffffffffffff161415610d85576040517f08c379a0000000000000000000000000000000000000000000000000000000008152600401610d7c90613e91565b60405180910390fd5b600360008373ffffffffffffffffffffffffffffffffffffffff1673ffffffffffffffffffffffffffffffffffffffff168152602001908152602001600020549050919050565b610dd58161207a565b3373ffffffffffffffffffffffffffffffffffffffff167fcc16f5dbb4873280815c1ee09dbd06736cffcc184412cf7a71a0fdb75d397ca582604051610e1b9190614053565b60405180910390a250565b606060018054610e35906144f3565b80601f0160208091040260200160405190810160405280929190818152602001828054610e61906144f3565b8015610eae5780601f10610e8357610100808354040283529160200191610eae565b820191906000526020600020905b815481529060010190602001808311610e9157829003601f168201915b5050505050905090565b610eca610ec3611c74565b8383612086565b5050565b3373ffffffffffffffffffffffffffffffffffffffff16600a600084815260200190815260200160002060020160009054906101000a900473ffffffffffffffffffffffffffffffffffffffff1673ffffffffffffffffffffffffffffffffffffffff1614610f72576040517f08c379a0000000000000000000000000000000000000000000000000000000008152600401610f6990614011565b60405180910390fd5b60005b600a600084815260200190815260200160002060040154811015610fd55781600a60008581526020019081526020016000206005016000838152602001908152602001600020600001819055508080610fcd90614556565b915050610f75565b505050565b610feb610fe5611c74565b83611d35565b61102a576040517f08c379a000000000000000000000000000000000000000000000000000000000815260040161102190613ff1565b60405180910390fd5b611036848484846121f3565b50505050565b6000805b6009548110156110cb578360405160200161105b9190613b90565b60405160208183030381529060405280519060200120600a60008381526020019081526020016000206000016040516020016110979190613bcb565b6040516020818303038152906040528051906020012014156110b857600191505b80806110c390614556565b915050611040565b506000151581151514611113576040517f08c379a000000000000000000000000000000000000000000000000000000000815260040161110a90613fb1565b60405180910390fd5b82600a60006009548152602001908152602001600020600001908051906020019061113f929190612e3d565b50600954600a600060095481526020019081526020016000206001018190555033600a6000600954815260200190815260200160002060020160006101000a81548173ffffffffffffffffffffffffffffffffffffffff021916908373ffffffffffffffffffffffffffffffffffffffff16021790555081600a6000600954815260200190815260200160002060030190805190602001906111e2929190612e3d565b506000600a60006009548152602001908152602001600020600401819055506009600081548092919061121490614556565b91905055507f0ee35c6da89d9ba5f7f9f9256826684eac23a5f59b1d0f802a1ae8b8337e8913600a60006009548152602001908152602001600020600001600a6000600954815260200190815260200160002060010154600a6000600954815260200190815260200160002060020160009054906101000a900473ffffffffffffffffffffffffffffffffffffffff16600a600060095481526020019081526020016000206003016040516112cc9493929190613d1e565b60405180910390a1505050565b60606112e48261224f565b9050919050565b3373ffffffffffffffffffffffffffffffffffffffff16600a600087815260200190815260200160002060020160009054906101000a900473ffffffffffffffffffffffffffffffffffffffff1673ffffffffffffffffffffffffffffffffffffffff161461138f576040517f08c379a000000000000000000000000000000000000000000000000000000000815260040161138690614011565b60405180910390fd5b6000600a600087815260200190815260200160002060040154905060008190505b85826113bc91906141b7565b8110156114d85784600a600089815260200190815260200160002060050160008381526020019081526020016000206000018190555033600a6000898152602001908152602001600020600501600083815260200190815260200160002060020160006101000a81548173ffffffffffffffffffffffffffffffffffffffff021916908373ffffffffffffffffffffffffffffffffffffffff1602179055506001600a60008981526020019081526020016000206005016000838152602001908152602001600020600101819055508383600a60008a8152602001908152602001600020600501600084815260200190815260200160002060030191906114c4929190612ec3565b5080806114d090614556565b9150506113b0565b5084600a600088815260200190815260200160002060040160008282546114ff91906141b7565b92505081905550505050505050565b60006001600a6000848152602001908152602001600020600401546115339190614409565b1015611574576040517f08c379a000000000000000000000000000000000000000000000000000000000815260040161156b90613df1565b60405180910390fd5b60006001600a6000848152602001908152602001600020600401546115999190614409565b90506000670de0b6b3a7640000600a60008581526020019081526020016000206005016000848152602001908152602001600020600001546115db91906143af565b90506000600a60008581526020019081526020016000206004015411611636576040517f08c379a000000000000000000000000000000000000000000000000000000000815260040161162d90613f71565b60405180910390fd5b80600860009054906101000a900473ffffffffffffffffffffffffffffffffffffffff1673ffffffffffffffffffffffffffffffffffffffff166370a08231336040518263ffffffff1660e01b81526004016116929190613be2565b60206040518083038186803b1580156116aa57600080fd5b505afa1580156116be573d6000803e3d6000fd5b505050506040513d601f19601f820116820180604052508101906116e2919061340a565b1015611723576040517f08c379a000000000000000000000000000000000000000000000000000000000815260040161171a90613d71565b60405180910390fd5b600061172f60076123a1565b905061173b60076123af565b600860009054906101000a900473ffffffffffffffffffffffffffffffffffffffff1673ffffffffffffffffffffffffffffffffffffffff166323b872dd33600a600088815260200190815260200160002060020160009054906101000a900473ffffffffffffffffffffffffffffffffffffffff16856040518463ffffffff1660e01b81526004016117d093929190613bfd565b602060405180830381600087803b1580156117ea57600080fd5b505af11580156117fe573d6000803e3d6000fd5b505050506040513d601f19601f8201168201806040525081019061182291906132fa565b506001600a6000868152602001908152602001600020600401600082825461184a9190614409565b9250508190555061185b33826123c5565b61191781600a600087815260200190815260200160002060050160008681526020019081526020016000206003018054611894906144f3565b80601f01602080910402602001604051908101604052809291908181526020018280546118c0906144f3565b801561190d5780601f106118e25761010080835404028352916020019161190d565b820191906000526020600020905b8154815290600101906020018083116118f057829003601f168201915b50505050506123e3565b600a600085815260200190815260200160002060020160009054906101000a900473ffffffffffffffffffffffffffffffffffffffff1673ffffffffffffffffffffffffffffffffffffffff163373ffffffffffffffffffffffffffffffffffffffff167f89f5adc174562e07c9c9b1cae7109bbecb21cf9d1b2847e550042b8653c54a0e83856040516119ac92919061409e565b60405180910390a350505050565b6000600560008473ffffffffffffffffffffffffffffffffffffffff1673ffffffffffffffffffffffffffffffffffffffff16815260200190815260200160002060008373ffffffffffffffffffffffffffffffffffffffff1673ffffffffffffffffffffffffffffffffffffffff16815260200190815260200160002060009054906101000a900460ff16905092915050565b6000611a5933610d14565b11611a99576040517f08c379a0000000000000000000000000000000000000000000000000000000008152600401611a9090613ef1565b60405180910390fd5b6000611aad611aa88585612457565b61254b565b9050611ab985836123e3565b611afa33600a600084815260200190815260200160002060020160009054906101000a900473ffffffffffffffffffffffffffffffffffffffff1687610b6f565b600a600082815260200190815260200160002060020160009054906101000a900473ffffffffffffffffffffffffffffffffffffffff1673ffffffffffffffffffffffffffffffffffffffff163373ffffffffffffffffffffffffffffffffffffffff167fcdbf94308476d0eaeae73ed2d3c7c0e0dbd862982f2d8418a8ed372d81e595ed8785604051611b8f92919061406e565b60405180910390a35050505050565b60007f01ffc9a7000000000000000000000000000000000000000000000000000000007bffffffffffffffffffffffffffffffffffffffffffffffffffffffff1916827bffffffffffffffffffffffffffffffffffffffffffffffffffffffff1916149050919050565b60008073ffffffffffffffffffffffffffffffffffffffff166002600084815260200190815260200160002060009054906101000a900473ffffffffffffffffffffffffffffffffffffffff1673ffffffffffffffffffffffffffffffffffffffff1614159050919050565b600033905090565b816004600083815260200190815260200160002060006101000a81548173ffffffffffffffffffffffffffffffffffffffff021916908373ffffffffffffffffffffffffffffffffffffffff160217905550808273ffffffffffffffffffffffffffffffffffffffff16611cef83610c62565b73ffffffffffffffffffffffffffffffffffffffff167f8c5be1e5ebec7d5bd14f71427d1e84f3dd0314c0f7b2291e5b200ac8c7c3b92560405160405180910390a45050565b6000611d4082611c08565b611d7f576040517f08c379a0000000000000000000000000000000000000000000000000000000008152600401611d7690613e51565b60405180910390fd5b6000611d8a83610c62565b90508073ffffffffffffffffffffffffffffffffffffffff168473ffffffffffffffffffffffffffffffffffffffff161480611df957508373ffffffffffffffffffffffffffffffffffffffff16611de18461080d565b73ffffffffffffffffffffffffffffffffffffffff16145b80611e0a5750611e0981856119ba565b5b91505092915050565b8273ffffffffffffffffffffffffffffffffffffffff16611e3382610c62565b73ffffffffffffffffffffffffffffffffffffffff1614611e89576040517f08c379a0000000000000000000000000000000000000000000000000000000008152600401611e8090613db1565b60405180910390fd5b600073ffffffffffffffffffffffffffffffffffffffff168273ffffffffffffffffffffffffffffffffffffffff161415611ef9576040517f08c379a0000000000000000000000000000000000000000000000000000000008152600401611ef090613e11565b60405180910390fd5b611f0483838361262b565b611f0f600082611c7c565b6001600360008573ffffffffffffffffffffffffffffffffffffffff1673ffffffffffffffffffffffffffffffffffffffff1681526020019081526020016000206000828254611f5f9190614409565b925050819055506001600360008473ffffffffffffffffffffffffffffffffffffffff1673ffffffffffffffffffffffffffffffffffffffff1681526020019081526020016000206000828254611fb691906141b7565b92505081905550816002600083815260200190815260200160002060006101000a81548173ffffffffffffffffffffffffffffffffffffffff021916908373ffffffffffffffffffffffffffffffffffffffff160217905550808273ffffffffffffffffffffffffffffffffffffffff168473ffffffffffffffffffffffffffffffffffffffff167fddf252ad1be2c89b69c2b068fc378daa952ba7f163c4a11628f55a4df523b3ef60405160405180910390a4612075838383612630565b505050565b61208381612635565b50565b8173ffffffffffffffffffffffffffffffffffffffff168373ffffffffffffffffffffffffffffffffffffffff1614156120f5576040517f08c379a00000000000000000000000000000000000000000000000000000000081526004016120ec90613e31565b60405180910390fd5b80600560008573ffffffffffffffffffffffffffffffffffffffff1673ffffffffffffffffffffffffffffffffffffffff16815260200190815260200160002060008473ffffffffffffffffffffffffffffffffffffffff1673ffffffffffffffffffffffffffffffffffffffff16815260200190815260200160002060006101000a81548160ff0219169083151502179055508173ffffffffffffffffffffffffffffffffffffffff168373ffffffffffffffffffffffffffffffffffffffff167f17307eab39ab6107e8899845ad3d59bd9653f200f220920489ca2b5937696c31836040516121e69190613c80565b60405180910390a3505050565b6121fe848484611e13565b61220a84848484612688565b612249576040517f08c379a000000000000000000000000000000000000000000000000000000000815260040161224090613d91565b60405180910390fd5b50505050565b606061225a82611c08565b612299576040517f08c379a000000000000000000000000000000000000000000000000000000000815260040161229090613f31565b60405180910390fd5b60006006600084815260200190815260200160002080546122b9906144f3565b80601f01602080910402602001604051908101604052809291908181526020018280546122e5906144f3565b80156123325780601f1061230757610100808354040283529160200191612332565b820191906000526020600020905b81548152906001019060200180831161231557829003601f168201915b50505050509050600061234361281f565b905060008151141561235957819250505061239c565b60008251111561238e578082604051602001612376929190613ba7565b6040516020818303038152906040529250505061239c565b61239784612836565b925050505b919050565b600081600001549050919050565b6001816000016000828254019250508190555050565b6123df8282604051806020016040528060008152506128dd565b5050565b6123ec82611c08565b61242b576040517f08c379a000000000000000000000000000000000000000000000000000000000815260040161242290613ed1565b60405180910390fd5b80600660008481526020019081526020016000209080519060200190612452929190612e3d565b505050565b606060005b60095481101561250b578383604051602001612479929190613b77565b60405160208183030381529060405280519060200120600a60008381526020019081526020016000206000016040516020016124b59190613bcb565b6040516020818303038152906040528051906020012014156124f8576124f0600a600083815260200190815260200160002060010154612938565b915050612545565b808061250390614556565b91505061245c565b506040518060400160405280601381526020017f4e616d65206e6f74207265636f676e697a65640000000000000000000000000081525090505b92915050565b60008060009050600083905060005b81518110156126205760008183516125729190614409565b905060008383815181106125af577f4e487b7100000000000000000000000000000000000000000000000000000000600052603260045260246000fd5b602001015160f81c60f81b905060008160f81c9050600060308260ff166125d69190614409565b90506001846125e59190614409565b600a6125f19190614291565b816125fc91906143af565b8761260791906141b7565b965050505050808061261890614556565b91505061255a565b508192505050919050565b505050565b505050565b61263e81612ae5565b600060066000838152602001908152602001600020805461265e906144f3565b905014612685576006600082815260200190815260200160002060006126849190612f49565b5b50565b60006126a98473ffffffffffffffffffffffffffffffffffffffff16612c02565b15612812578373ffffffffffffffffffffffffffffffffffffffff1663150b7a026126d2611c74565b8786866040518563ffffffff1660e01b81526004016126f49493929190613c34565b602060405180830381600087803b15801561270e57600080fd5b505af192505050801561273f57506040513d601f19601f8201168201806040525081019061273c919061334c565b60015b6127c2573d806000811461276f576040519150601f19603f3d011682016040523d82523d6000602084013e612774565b606091505b506000815114156127ba576040517f08c379a00000000000000000000000000000000000000000000000000000000081526004016127b190613d91565b60405180910390fd5b805181602001fd5b63150b7a0260e01b7bffffffffffffffffffffffffffffffffffffffffffffffffffffffff1916817bffffffffffffffffffffffffffffffffffffffffffffffffffffffff191614915050612817565b600190505b949350505050565b606060405180602001604052806000815250905090565b606061284182611c08565b612880576040517f08c379a000000000000000000000000000000000000000000000000000000000815260040161287790613f91565b60405180910390fd5b600061288a61281f565b905060008151116128aa57604051806020016040528060008152506128d5565b806128b484612938565b6040516020016128c5929190613ba7565b6040516020818303038152906040525b915050919050565b6128e78383612c25565b6128f46000848484612688565b612933576040517f08c379a000000000000000000000000000000000000000000000000000000000815260040161292a90613d91565b60405180910390fd5b505050565b60606000821415612980576040518060400160405280600181526020017f30000000000000000000000000000000000000000000000000000000000000008152509050612ae0565b600082905060005b600082146129b257808061299b90614556565b915050600a826129ab919061420d565b9150612988565b60008167ffffffffffffffff8111156129f4577f4e487b7100000000000000000000000000000000000000000000000000000000600052604160045260246000fd5b6040519080825280601f01601f191660200182016040528015612a265781602001600182028036833780820191505090505b5090505b60008514612ad957600182612a3f9190614409565b9150600a85612a4e919061459f565b6030612a5a91906141b7565b60f81b818381518110612a96577f4e487b7100000000000000000000000000000000000000000000000000000000600052603260045260246000fd5b60200101907effffffffffffffffffffffffffffffffffffffffffffffffffffffffffffff1916908160001a905350600a85612ad2919061420d565b9450612a2a565b8093505050505b919050565b6000612af082610c62565b9050612afe8160008461262b565b612b09600083611c7c565b6001600360008373ffffffffffffffffffffffffffffffffffffffff1673ffffffffffffffffffffffffffffffffffffffff1681526020019081526020016000206000828254612b599190614409565b925050819055506002600083815260200190815260200160002060006101000a81549073ffffffffffffffffffffffffffffffffffffffff021916905581600073ffffffffffffffffffffffffffffffffffffffff168273ffffffffffffffffffffffffffffffffffffffff167fddf252ad1be2c89b69c2b068fc378daa952ba7f163c4a11628f55a4df523b3ef60405160405180910390a4612bfe81600084612630565b5050565b6000808273ffffffffffffffffffffffffffffffffffffffff163b119050919050565b600073ffffffffffffffffffffffffffffffffffffffff168273ffffffffffffffffffffffffffffffffffffffff161415612c95576040517f08c379a0000000000000000000000000000000000000000000000000000000008152600401612c8c90613f11565b60405180910390fd5b612c9e81611c08565b15612cde576040517f08c379a0000000000000000000000000000000000000000000000000000000008152600401612cd590613dd1565b60405180910390fd5b612cea6000838361262b565b6001600360008473ffffffffffffffffffffffffffffffffffffffff1673ffffffffffffffffffffffffffffffffffffffff1681526020019081526020016000206000828254612d3a91906141b7565b92505081905550816002600083815260200190815260200160002060006101000a81548173ffffffffffffffffffffffffffffffffffffffff021916908373ffffffffffffffffffffffffffffffffffffffff160217905550808273ffffffffffffffffffffffffffffffffffffffff16600073ffffffffffffffffffffffffffffffffffffffff167fddf252ad1be2c89b69c2b068fc378daa952ba7f163c4a11628f55a4df523b3ef60405160405180910390a4612dfb60008383612630565b5050565b60405180608001604052806000815260200160008152602001600073ffffffffffffffffffffffffffffffffffffffff168152602001606081525090565b828054612e49906144f3565b90600052602060002090601f016020900481019282612e6b5760008555612eb2565b82601f10612e8457805160ff1916838001178555612eb2565b82800160010185558215612eb2579182015b82811115612eb1578251825591602001919060010190612e96565b5b509050612ebf9190612f89565b5090565b828054612ecf906144f3565b90600052602060002090601f016020900481019282612ef15760008555612f38565b82601f10612f0a57803560ff1916838001178555612f38565b82800160010185558215612f38579182015b82811115612f37578235825591602001919060010190612f1c565b5b509050612f459190612f89565b5090565b508054612f55906144f3565b6000825580601f10612f675750612f86565b601f016020900490600052602060002090810190612f859190612f89565b5b50565b5b80821115612fa2576000816000905550600101612f8a565b5090565b6000612fb9612fb4846140ec565b6140c7565b905082815260208101848484011115612fd157600080fd5b612fdc8482856144b1565b509392505050565b6000612ff7612ff28461411d565b6140c7565b90508281526020810184848401111561300f57600080fd5b61301a8482856144b1565b509392505050565b60008135905061303181614cb6565b92915050565b60008135905061304681614ccd565b92915050565b60008151905061305b81614ccd565b92915050565b60008135905061307081614ce4565b92915050565b60008151905061308581614ce4565b92915050565b600082601f83011261309c57600080fd5b81356130ac848260208601612fa6565b91505092915050565b60008083601f8401126130c757600080fd5b8235905067ffffffffffffffff8111156130e057600080fd5b6020830191508360018202830111156130f857600080fd5b9250929050565b600082601f83011261311057600080fd5b8135613120848260208601612fe4565b91505092915050565b60008135905061313881614cfb565b92915050565b60008151905061314d81614cfb565b92915050565b60006020828403121561316557600080fd5b600061317384828501613022565b91505092915050565b6000806040838503121561318f57600080fd5b600061319d85828601613022565b92505060206131ae85828601613022565b9150509250929050565b6000806000606084860312156131cd57600080fd5b60006131db86828701613022565b93505060206131ec86828701613022565b92505060406131fd86828701613129565b9150509250925092565b6000806000806080858703121561321d57600080fd5b600061322b87828801613022565b945050602061323c87828801613022565b935050604061324d87828801613129565b925050606085013567ffffffffffffffff81111561326a57600080fd5b6132768782880161308b565b91505092959194509250565b6000806040838503121561329557600080fd5b60006132a385828601613022565b92505060206132b485828601613037565b9150509250929050565b600080604083850312156132d157600080fd5b60006132df85828601613022565b92505060206132f085828601613129565b9150509250929050565b60006020828403121561330c57600080fd5b600061331a8482850161304c565b91505092915050565b60006020828403121561333557600080fd5b600061334384828501613061565b91505092915050565b60006020828403121561335e57600080fd5b600061336c84828501613076565b91505092915050565b6000806040838503121561338857600080fd5b600083013567ffffffffffffffff8111156133a257600080fd5b6133ae858286016130ff565b925050602083013567ffffffffffffffff8111156133cb57600080fd5b6133d7858286016130ff565b9150509250929050565b6000602082840312156133f357600080fd5b600061340184828501613129565b91505092915050565b60006020828403121561341c57600080fd5b600061342a8482850161313e565b91505092915050565b6000806000806060858703121561344957600080fd5b600061345787828801613129565b945050602085013567ffffffffffffffff81111561347457600080fd5b613480878288016130b5565b9350935050604085013567ffffffffffffffff81111561349f57600080fd5b6134ab878288016130ff565b91505092959194509250565b600080604083850312156134ca57600080fd5b60006134d885828601613129565b925050602083013567ffffffffffffffff8111156134f557600080fd5b613501858286016130ff565b9150509250929050565b6000806040838503121561351e57600080fd5b600061352c85828601613129565b925050602061353d85828601613129565b9150509250929050565b60008060008060006080868803121561355f57600080fd5b600061356d88828901613129565b955050602061357e88828901613129565b945050604061358f88828901613129565b935050606086013567ffffffffffffffff8111156135ac57600080fd5b6135b8888289016130b5565b92509250509295509295909350565b6135d08161443d565b82525050565b6135df8161443d565b82525050565b6135ee8161444f565b82525050565b60006135ff82614163565b6136098185614179565b93506136198185602086016144c0565b6136228161468c565b840191505092915050565b600061363983856141ac565b93506136468385846144b1565b82840190509392505050565b600061365d8261416e565b613667818561418a565b93506136778185602086016144c0565b6136808161468c565b840191505092915050565b60006136968261416e565b6136a0818561419b565b93506136b08185602086016144c0565b6136b98161468c565b840191505092915050565b60006136cf8261416e565b6136d981856141ac565b93506136e98185602086016144c0565b80840191505092915050565b60008154613702816144f3565b61370c818661419b565b9450600182166000811461372757600181146137395761376c565b60ff198316865260208601935061376c565b6137428561414e565b60005b8381101561376457815481890152600182019150602081019050613745565b808801955050505b50505092915050565b60008154613782816144f3565b61378c81866141ac565b945060018216600081146137a757600181146137b8576137eb565b60ff198316865281860193506137eb565b6137c18561414e565b60005b838110156137e3578154818901526001820191506020810190506137c4565b838801955050505b50505092915050565b6000613801601d8361419b565b915061380c826146aa565b602082019050919050565b600061382460328361419b565b915061382f826146d3565b604082019050919050565b600061384760258361419b565b915061385282614722565b604082019050919050565b600061386a601c8361419b565b915061387582614771565b602082019050919050565b600061388d601e8361419b565b91506138988261479a565b602082019050919050565b60006138b060248361419b565b91506138bb826147c3565b604082019050919050565b60006138d360198361419b565b91506138de82614812565b602082019050919050565b60006138f6602c8361419b565b91506139018261483b565b604082019050919050565b600061391960388361419b565b91506139248261488a565b604082019050919050565b600061393c602a8361419b565b9150613947826148d9565b604082019050919050565b600061395f60298361419b565b915061396a82614928565b604082019050919050565b6000613982602e8361419b565b915061398d82614977565b604082019050919050565b60006139a560308361419b565b91506139b0826149c6565b604082019050919050565b60006139c860208361419b565b91506139d382614a15565b602082019050919050565b60006139eb60318361419b565b91506139f682614a3e565b604082019050919050565b6000613a0e602c8361419b565b9150613a1982614a8d565b604082019050919050565b6000613a31602e8361419b565b9150613a3c82614adc565b604082019050919050565b6000613a54602f8361419b565b9150613a5f82614b2b565b604082019050919050565b6000613a7760268361419b565b9150613a8282614b7a565b604082019050919050565b6000613a9a60218361419b565b9150613aa582614bc9565b604082019050919050565b6000613abd60318361419b565b9150613ac882614c18565b604082019050919050565b6000613ae060408361419b565b9150613aeb82614c67565b604082019050919050565b6000608083016000830151613b0e6000860182613b59565b506020830151613b216020860182613b59565b506040830151613b3460408601826135c7565b5060608301518482036060860152613b4c8282613652565b9150508091505092915050565b613b62816144a7565b82525050565b613b71816144a7565b82525050565b6000613b8482848661362d565b91508190509392505050565b6000613b9c82846136c4565b915081905092915050565b6000613bb382856136c4565b9150613bbf82846136c4565b91508190509392505050565b6000613bd78284613775565b915081905092915050565b6000602082019050613bf760008301846135d6565b92915050565b6000606082019050613c1260008301866135d6565b613c1f60208301856135d6565b613c2c6040830184613b68565b949350505050565b6000608082019050613c4960008301876135d6565b613c5660208301866135d6565b613c636040830185613b68565b8181036060830152613c7581846135f4565b905095945050505050565b6000602082019050613c9560008301846135e5565b92915050565b60006020820190508181036000830152613cb5818461368b565b905092915050565b600060a0820190508181036000830152613cd7818861368b565b9050613ce66020830187613b68565b613cf360408301866135d6565b8181036060830152613d05818561368b565b9050613d146080830184613b68565b9695505050505050565b60006080820190508181036000830152613d3881876136f5565b9050613d476020830186613b68565b613d5460408301856135d6565b8181036060830152613d6681846136f5565b905095945050505050565b60006020820190508181036000830152613d8a816137f4565b9050919050565b60006020820190508181036000830152613daa81613817565b9050919050565b60006020820190508181036000830152613dca8161383a565b9050919050565b60006020820190508181036000830152613dea8161385d565b9050919050565b60006020820190508181036000830152613e0a81613880565b9050919050565b60006020820190508181036000830152613e2a816138a3565b9050919050565b60006020820190508181036000830152613e4a816138c6565b9050919050565b60006020820190508181036000830152613e6a816138e9565b9050919050565b60006020820190508181036000830152613e8a8161390c565b9050919050565b60006020820190508181036000830152613eaa8161392f565b9050919050565b60006020820190508181036000830152613eca81613952565b9050919050565b60006020820190508181036000830152613eea81613975565b9050919050565b60006020820190508181036000830152613f0a81613998565b9050919050565b60006020820190508181036000830152613f2a816139bb565b9050919050565b60006020820190508181036000830152613f4a816139de565b9050919050565b60006020820190508181036000830152613f6a81613a01565b9050919050565b60006020820190508181036000830152613f8a81613a24565b9050919050565b60006020820190508181036000830152613faa81613a47565b9050919050565b60006020820190508181036000830152613fca81613a6a565b9050919050565b60006020820190508181036000830152613fea81613a8d565b9050919050565b6000602082019050818103600083015261400a81613ab0565b9050919050565b6000602082019050818103600083015261402a81613ad3565b9050919050565b6000602082019050818103600083015261404b8184613af6565b905092915050565b60006020820190506140686000830184613b68565b92915050565b60006040820190506140836000830185613b68565b8181036020830152614095818461368b565b90509392505050565b60006040820190506140b36000830185613b68565b6140c06020830184613b68565b9392505050565b60006140d16140e2565b90506140dd8282614525565b919050565b6000604051905090565b600067ffffffffffffffff8211156141075761410661465d565b5b6141108261468c565b9050602081019050919050565b600067ffffffffffffffff8211156141385761413761465d565b5b6141418261468c565b9050602081019050919050565b60008190508160005260206000209050919050565b600081519050919050565b600081519050919050565b600082825260208201905092915050565b600082825260208201905092915050565b600082825260208201905092915050565b600081905092915050565b60006141c2826144a7565b91506141cd836144a7565b9250827fffffffffffffffffffffffffffffffffffffffffffffffffffffffffffffffff03821115614202576142016145d0565b5b828201905092915050565b6000614218826144a7565b9150614223836144a7565b925082614233576142326145ff565b5b828204905092915050565b6000808291508390505b600185111561428857808604811115614264576142636145d0565b5b60018516156142735780820291505b80810290506142818561469d565b9450614248565b94509492505050565b600061429c826144a7565b91506142a7836144a7565b92506142d47fffffffffffffffffffffffffffffffffffffffffffffffffffffffffffffffff84846142dc565b905092915050565b6000826142ec57600190506143a8565b816142fa57600090506143a8565b8160018114614310576002811461431a57614349565b60019150506143a8565b60ff84111561432c5761432b6145d0565b5b8360020a915084821115614343576143426145d0565b5b506143a8565b5060208310610133831016604e8410600b841016171561437e5782820a905083811115614379576143786145d0565b5b6143a8565b61438b848484600161423e565b925090508184048111156143a2576143a16145d0565b5b81810290505b9392505050565b60006143ba826144a7565b91506143c5836144a7565b9250817fffffffffffffffffffffffffffffffffffffffffffffffffffffffffffffffff04831182151516156143fe576143fd6145d0565b5b828202905092915050565b6000614414826144a7565b915061441f836144a7565b925082821015614432576144316145d0565b5b828203905092915050565b600061444882614487565b9050919050565b60008115159050919050565b60007fffffffff0000000000000000000000000000000000000000000000000000000082169050919050565b600073ffffffffffffffffffffffffffffffffffffffff82169050919050565b6000819050919050565b82818337600083830152505050565b60005b838110156144de5780820151818401526020810190506144c3565b838111156144ed576000848401525b50505050565b6000600282049050600182168061450b57607f821691505b6020821081141561451f5761451e61462e565b5b50919050565b61452e8261468c565b810181811067ffffffffffffffff8211171561454d5761454c61465d565b5b80604052505050565b6000614561826144a7565b91507fffffffffffffffffffffffffffffffffffffffffffffffffffffffffffffffff821415614594576145936145d0565b5b600182019050919050565b60006145aa826144a7565b91506145b5836144a7565b9250826145c5576145c46145ff565b5b828206905092915050565b7f4e487b7100000000000000000000000000000000000000000000000000000000600052601160045260246000fd5b7f4e487b7100000000000000000000000000000000000000000000000000000000600052601260045260246000fd5b7f4e487b7100000000000000000000000000000000000000000000000000000000600052602260045260246000fd5b7f4e487b7100000000000000000000000000000000000000000000000000000000600052604160045260246000fd5b6000601f19601f8301169050919050565b60008160011c9050919050565b7f596f7520646f6e2774206861766520656e6f756768206d6f6e65792021000000600082015250565b7f4552433732313a207472616e7366657220746f206e6f6e20455243373231526560008201527f63656976657220696d706c656d656e7465720000000000000000000000000000602082015250565b7f4552433732313a207472616e736665722066726f6d20696e636f72726563742060008201527f6f776e6572000000000000000000000000000000000000000000000000000000602082015250565b7f4552433732313a20746f6b656e20616c7265616479206d696e74656400000000600082015250565b7f4e6f206d6f7265206974656d20666f72207468697320636f6d7061676e790000600082015250565b7f4552433732313a207472616e7366657220746f20746865207a65726f2061646460008201527f7265737300000000000000000000000000000000000000000000000000000000602082015250565b7f4552433732313a20617070726f766520746f2063616c6c657200000000000000600082015250565b7f4552433732313a206f70657261746f7220717565727920666f72206e6f6e657860008201527f697374656e7420746f6b656e0000000000000000000000000000000000000000602082015250565b7f4552433732313a20617070726f76652063616c6c6572206973206e6f74206f7760008201527f6e6572206e6f7220617070726f76656420666f7220616c6c0000000000000000602082015250565b7f4552433732313a2062616c616e636520717565727920666f7220746865207a6560008201527f726f206164647265737300000000000000000000000000000000000000000000602082015250565b7f4552433732313a206f776e657220717565727920666f72206e6f6e657869737460008201527f656e7420746f6b656e0000000000000000000000000000000000000000000000602082015250565b7f45524337323155524953746f726167653a2055524920736574206f66206e6f6e60008201527f6578697374656e7420746f6b656e000000000000000000000000000000000000602082015250565b7f596f7520646f6e2774206861766520616e79204e465420746f207472616e666560008201527f726520746f207468652049737375657200000000000000000000000000000000602082015250565b7f4552433732313a206d696e7420746f20746865207a65726f2061646472657373600082015250565b7f45524337323155524953746f726167653a2055524920717565727920666f722060008201527f6e6f6e6578697374656e7420746f6b656e000000000000000000000000000000602082015250565b7f4552433732313a20617070726f76656420717565727920666f72206e6f6e657860008201527f697374656e7420746f6b656e0000000000000000000000000000000000000000602082015250565b7f5468657265206973206e6f206d6f726520636572746966696361746520666f7260008201527f207468697320636f6d7061676e79000000000000000000000000000000000000602082015250565b7f4552433732314d657461646174613a2055524920717565727920666f72206e6f60008201527f6e6578697374656e7420746f6b656e0000000000000000000000000000000000602082015250565b7f596f7572204973737565722068617320616c7265616479206265656e2063726560008201527f6174656420210000000000000000000000000000000000000000000000000000602082015250565b7f4552433732313a20617070726f76616c20746f2063757272656e74206f776e6560008201527f7200000000000000000000000000000000000000000000000000000000000000602082015250565b7f4552433732313a207472616e736665722063616c6c6572206973206e6f74206f60008201527f776e6572206e6f7220617070726f766564000000000000000000000000000000602082015250565b7f596f757220617265206e6f7420746865206f776e6572206f662074686520497360008201527f73756572202120596f752063616e277420646f207468697320616374696f6e2e602082015250565b614cbf8161443d565b8114614cca57600080fd5b50565b614cd68161444f565b8114614ce157600080fd5b50565b614ced8161445b565b8114614cf857600080fd5b50565b614d04816144a7565b8114614d0f57600080fd5b5056fea2646970667358221220b83df0124eac9aef319e96f185a6c35e178a7e417c3a724bd4c77dc2847b105964736f6c63430008040033",
  "linkReferences": {},
  "deployedLinkReferences": {}
}