{
  "_format": "hh-sol-artifact-1",
  "contractName": "silo",
  "sourceName": "contracts/Silo.sol",
  "abi": [
    {
      "inputs": [
        {
          "internalType": "address",
          "name": "_dai",
          "type": "address"
        }
      ],
      "stateMutability": "nonpayable",
      "type": "constructor"
    },
    {
      "anonymous": false,
      "inputs": [
        {
          "indexed": true,
          "internalType": "address",
          "name": "owner",
          "type": "address"
        },
        {
          "indexed": true,
          "internalType": "address",
          "name": "approved",
          "type": "address"
        },
        {
          "indexed": true,
          "internalType": "uint256",
          "name": "tokenId",
          "type": "uint256"
        }
      ],
      "name": "Approval",
      "type": "event"
    },
    {
      "anonymous": false,
      "inputs": [
        {
          "indexed": true,
          "internalType": "address",
          "name": "owner",
          "type": "address"
        },
        {
          "indexed": true,
          "internalType": "address",
          "name": "operator",
          "type": "address"
        },
        {
          "indexed": false,
          "internalType": "bool",
          "name": "approved",
          "type": "bool"
        }
      ],
      "name": "ApprovalForAll",
      "type": "event"
    },
    {
      "anonymous": false,
      "inputs": [
        {
          "indexed": true,
          "internalType": "address",
          "name": "from",
          "type": "address"
        },
        {
          "indexed": true,
          "internalType": "address",
          "name": "to",
          "type": "address"
        },
        {
          "indexed": true,
          "internalType": "uint256",
          "name": "tokenId",
          "type": "uint256"
        }
      ],
      "name": "Transfer",
      "type": "event"
    },
    {
      "inputs": [
        {
          "internalType": "string",
          "name": "_name",
          "type": "string"
        },
        {
          "internalType": "string",
          "name": "_companyInfo",
          "type": "string"
        }
      ],
      "name": "addIssuer",
      "outputs": [],
      "stateMutability": "payable",
      "type": "function"
    },
    {
      "inputs": [
        {
          "internalType": "address",
          "name": "to",
          "type": "address"
        },
        {
          "internalType": "uint256",
          "name": "tokenId",
          "type": "uint256"
        }
      ],
      "name": "approve",
      "outputs": [],
      "stateMutability": "nonpayable",
      "type": "function"
    },
    {
      "inputs": [
        {
          "internalType": "address",
          "name": "owner",
          "type": "address"
        }
      ],
      "name": "balanceOf",
      "outputs": [
        {
          "internalType": "uint256",
          "name": "",
          "type": "uint256"
        }
      ],
      "stateMutability": "view",
      "type": "function"
    },
    {
      "inputs": [
        {
          "internalType": "uint256",
          "name": "_UIDIssuer",
          "type": "uint256"
        }
      ],
      "name": "buy",
      "outputs": [],
      "stateMutability": "payable",
      "type": "function"
    },
    {
      "inputs": [
        {
          "internalType": "uint256",
          "name": "_UIDIssuer",
          "type": "uint256"
        },
        {
          "internalType": "string",
          "name": "_compagnyInfo",
          "type": "string"
        }
      ],
      "name": "changeCompagnyInfo",
      "outputs": [],
      "stateMutability": "payable",
      "type": "function"
    },
    {
      "inputs": [
        {
          "internalType": "uint256",
          "name": "_UIDIssuer",
          "type": "uint256"
        },
        {
          "internalType": "uint256",
          "name": "_newPrice",
          "type": "uint256"
        }
      ],
      "name": "changePrice",
      "outputs": [],
      "stateMutability": "payable",
      "type": "function"
    },
    {
      "inputs": [
        {
          "internalType": "uint256",
          "name": "_UIDIssuer",
          "type": "uint256"
        },
        {
          "internalType": "uint256",
          "name": "_supply",
          "type": "uint256"
        },
        {
          "internalType": "uint256",
          "name": "_price",
          "type": "uint256"
        },
        {
          "internalType": "string",
          "name": "_URI",
          "type": "string"
        }
      ],
      "name": "create",
      "outputs": [],
      "stateMutability": "nonpayable",
      "type": "function"
    },
    {
      "inputs": [
        {
          "internalType": "uint256",
          "name": "tokenId",
          "type": "uint256"
        }
      ],
      "name": "getApproved",
      "outputs": [
        {
          "internalType": "address",
          "name": "",
          "type": "address"
        }
      ],
      "stateMutability": "view",
      "type": "function"
    },
    {
      "inputs": [
        {
          "internalType": "uint256",
          "name": "_UIDIssuer",
          "type": "uint256"
        }
      ],
      "name": "getItem",
      "outputs": [
        {
          "components": [
            {
              "internalType": "uint256",
              "name": "price",
              "type": "uint256"
            },
            {
              "internalType": "uint256",
              "name": "supply",
              "type": "uint256"
            },
            {
              "internalType": "address",
              "name": "issuerHolder",
              "type": "address"
            },
            {
              "internalType": "string",
              "name": "URI",
              "type": "string"
            }
          ],
          "internalType": "struct silo.Item",
          "name": "",
          "type": "tuple"
        }
      ],
      "stateMutability": "view",
      "type": "function"
    },
    {
      "inputs": [
        {
          "internalType": "string",
          "name": "_name",
          "type": "string"
        }
      ],
      "name": "getUidIssuer",
      "outputs": [
        {
          "internalType": "string",
          "name": "",
          "type": "string"
        }
      ],
      "stateMutability": "view",
      "type": "function"
    },
    {
      "inputs": [
        {
          "internalType": "address",
          "name": "owner",
          "type": "address"
        },
        {
          "internalType": "address",
          "name": "operator",
          "type": "address"
        }
      ],
      "name": "isApprovedForAll",
      "outputs": [
        {
          "internalType": "bool",
          "name": "",
          "type": "bool"
        }
      ],
      "stateMutability": "view",
      "type": "function"
    },
    {
      "inputs": [
        {
          "internalType": "uint256",
          "name": "",
          "type": "uint256"
        }
      ],
      "name": "issuer",
      "outputs": [
        {
          "internalType": "string",
          "name": "name",
          "type": "string"
        },
        {
          "internalType": "uint256",
          "name": "UID",
          "type": "uint256"
        },
        {
          "internalType": "address",
          "name": "addressIssuer",
          "type": "address"
        },
        {
          "internalType": "string",
          "name": "companyInfo",
          "type": "string"
        },
        {
          "internalType": "uint256",
          "name": "numItem",
          "type": "uint256"
        }
      ],
      "stateMutability": "view",
      "type": "function"
    },
    {
      "inputs": [],
      "name": "name",
      "outputs": [
        {
          "internalType": "string",
          "name": "",
          "type": "string"
        }
      ],
      "stateMutability": "view",
      "type": "function"
    },
    {
      "inputs": [
        {
          "internalType": "uint256",
          "name": "tokenId",
          "type": "uint256"
        }
      ],
      "name": "ownerOf",
      "outputs": [
        {
          "internalType": "address",
          "name": "",
          "type": "address"
        }
      ],
      "stateMutability": "view",
      "type": "function"
    },
    {
      "inputs": [
        {
          "internalType": "address",
          "name": "from",
          "type": "address"
        },
        {
          "internalType": "address",
          "name": "to",
          "type": "address"
        },
        {
          "internalType": "uint256",
          "name": "tokenId",
          "type": "uint256"
        }
      ],
      "name": "safeTransferFrom",
      "outputs": [],
      "stateMutability": "nonpayable",
      "type": "function"
    },
    {
      "inputs": [
        {
          "internalType": "address",
          "name": "from",
          "type": "address"
        },
        {
          "internalType": "address",
          "name": "to",
          "type": "address"
        },
        {
          "internalType": "uint256",
          "name": "tokenId",
          "type": "uint256"
        },
        {
          "internalType": "bytes",
          "name": "_data",
          "type": "bytes"
        }
      ],
      "name": "safeTransferFrom",
      "outputs": [],
      "stateMutability": "nonpayable",
      "type": "function"
    },
    {
      "inputs": [
        {
          "internalType": "string",
          "name": "_name",
          "type": "string"
        }
      ],
      "name": "sell",
      "outputs": [],
      "stateMutability": "nonpayable",
      "type": "function"
    },
    {
      "inputs": [
        {
          "internalType": "address",
          "name": "operator",
          "type": "address"
        },
        {
          "internalType": "bool",
          "name": "approved",
          "type": "bool"
        }
      ],
      "name": "setApprovalForAll",
      "outputs": [],
      "stateMutability": "nonpayable",
      "type": "function"
    },
    {
      "inputs": [
        {
          "internalType": "bytes4",
          "name": "interfaceId",
          "type": "bytes4"
        }
      ],
      "name": "supportsInterface",
      "outputs": [
        {
          "internalType": "bool",
          "name": "",
          "type": "bool"
        }
      ],
      "stateMutability": "view",
      "type": "function"
    },
    {
      "inputs": [],
      "name": "symbol",
      "outputs": [
        {
          "internalType": "string",
          "name": "",
          "type": "string"
        }
      ],
      "stateMutability": "view",
      "type": "function"
    },
    {
      "inputs": [
        {
          "internalType": "uint256",
          "name": "tokenId",
          "type": "uint256"
        }
      ],
      "name": "tokenURI",
      "outputs": [
        {
          "internalType": "string",
          "name": "",
          "type": "string"
        }
      ],
      "stateMutability": "view",
      "type": "function"
    },
    {
      "inputs": [
        {
          "internalType": "address",
          "name": "from",
          "type": "address"
        },
        {
          "internalType": "address",
          "name": "to",
          "type": "address"
        },
        {
          "internalType": "uint256",
          "name": "tokenId",
          "type": "uint256"
        }
      ],
      "name": "transferFrom",
      "outputs": [],
      "stateMutability": "nonpayable",
      "type": "function"
    }
  ],
  "bytecode": "0x608060405260006009553480156200001657600080fd5b50604051620047613803806200476183398181016040528101906200003c9190620001eb565b6040518060400160405280600981526020017f53696c6f546f6b656e00000000000000000000000000000000000000000000008152506040518060400160405280600381526020017f534c4f00000000000000000000000000000000000000000000000000000000008152508160009080519060200190620000c092919062000124565b508060019080519060200190620000d992919062000124565b50505080600860006101000a81548173ffffffffffffffffffffffffffffffffffffffff021916908373ffffffffffffffffffffffffffffffffffffffff16021790555050620002ca565b82805462000132906200024b565b90600052602060002090601f016020900481019282620001565760008555620001a2565b82601f106200017157805160ff1916838001178555620001a2565b82800160010185558215620001a2579182015b82811115620001a157825182559160200191906001019062000184565b5b509050620001b19190620001b5565b5090565b5b80821115620001d0576000816000905550600101620001b6565b5090565b600081519050620001e581620002b0565b92915050565b600060208284031215620001fe57600080fd5b60006200020e84828501620001d4565b91505092915050565b600062000224826200022b565b9050919050565b600073ffffffffffffffffffffffffffffffffffffffff82169050919050565b600060028204905060018216806200026457607f821691505b602082108114156200027b576200027a62000281565b5b50919050565b7f4e487b7100000000000000000000000000000000000000000000000000000000600052602260045260246000fd5b620002bb8162000217565b8114620002c757600080fd5b50565b61448780620002da6000396000f3fe6080604052600436106101345760003560e01c806370a08231116100ab578063bf717b7a1161006f578063bf717b7a14610443578063c87b56dd1461045f578063d0e8743f1461049c578063d96a094a146104c5578063e985e9c5146104e1578063eb48e53c1461051e57610134565b806370a082311461036d57806395d89b41146103aa578063a22cb465146103d5578063b3de019c146103fe578063b88d4fde1461041a57610134565b806323b872dd116100fd57806323b872dd146102485780633129e7731461027157806342842e0e146102ae5780634ca1801d146102d75780636352211e146102f35780636c69440c1461033057610134565b806268fe8b1461013957806301ffc9a71461017a57806306fdde03146101b7578063081812fc146101e2578063095ea7b31461021f575b600080fd5b34801561014557600080fd5b50610160600480360381019061015b9190612ee0565b610547565b604051610171959493929190613695565b60405180910390f35b34801561018657600080fd5b506101a1600480360381019061019c9190612d9c565b6106ad565b6040516101ae9190613658565b60405180910390f35b3480156101c357600080fd5b506101cc61078f565b6040516101d99190613673565b60405180910390f35b3480156101ee57600080fd5b5061020960048036038101906102049190612ee0565b610821565b60405161021691906135ba565b60405180910390f35b34801561022b57600080fd5b5061024660048036038101906102419190612d37565b6108a6565b005b34801561025457600080fd5b5061026f600480360381019061026a9190612c31565b6109be565b005b34801561027d57600080fd5b5061029860048036038101906102939190612ee0565b610a1e565b6040516102a59190613996565b60405180910390f35b3480156102ba57600080fd5b506102d560048036038101906102d09190612c31565b610b83565b005b6102f160048036038101906102ec9190612f32565b610ba3565b005b3480156102ff57600080fd5b5061031a60048036038101906103159190612ee0565b610c76565b60405161032791906135ba565b60405180910390f35b34801561033c57600080fd5b5061035760048036038101906103529190612dee565b610d28565b6040516103649190613673565b60405180910390f35b34801561037957600080fd5b50610394600480360381019061038f9190612bcc565b610e1c565b6040516103a191906139b8565b60405180910390f35b3480156103b657600080fd5b506103bf610ed4565b6040516103cc9190613673565b60405180910390f35b3480156103e157600080fd5b506103fc60048036038101906103f79190612cfb565b610f66565b005b61041860048036038101906104139190612f86565b610f7c565b005b34801561042657600080fd5b50610441600480360381019061043c9190612c80565b611088565b005b61045d60048036038101906104589190612e74565b6110ea565b005b34801561046b57600080fd5b5061048660048036038101906104819190612ee0565b6112cc565b6040516104939190613673565b60405180910390f35b3480156104a857600080fd5b506104c360048036038101906104be9190612fc2565b6112de565b005b6104df60048036038101906104da9190612ee0565b611501565b005b3480156104ed57600080fd5b5061050860048036038101906105039190612bf5565b611910565b6040516105159190613658565b60405180910390f35b34801561052a57600080fd5b5061054560048036038101906105409190612e33565b6119a4565b005b600a60205280600052604060002060009150905080600001805461056a90613c8e565b80601f016020809104026020016040519081016040528092919081815260200182805461059690613c8e565b80156105e35780601f106105b8576101008083540402835291602001916105e3565b820191906000526020600020905b8154815290600101906020018083116105c657829003601f168201915b5050505050908060010154908060020160009054906101000a900473ffffffffffffffffffffffffffffffffffffffff169080600301805461062490613c8e565b80601f016020809104026020016040519081016040528092919081815260200182805461065090613c8e565b801561069d5780601f106106725761010080835404028352916020019161069d565b820191906000526020600020905b81548152906001019060200180831161068057829003601f168201915b5050505050908060040154905085565b60007f80ac58cd000000000000000000000000000000000000000000000000000000007bffffffffffffffffffffffffffffffffffffffffffffffffffffffff1916827bffffffffffffffffffffffffffffffffffffffffffffffffffffffff1916148061077857507f5b5e139f000000000000000000000000000000000000000000000000000000007bffffffffffffffffffffffffffffffffffffffffffffffffffffffff1916827bffffffffffffffffffffffffffffffffffffffffffffffffffffffff1916145b806107885750610787826119a7565b5b9050919050565b60606000805461079e90613c8e565b80601f01602080910402602001604051908101604052809291908181526020018280546107ca90613c8e565b80156108175780601f106107ec57610100808354040283529160200191610817565b820191906000526020600020905b8154815290600101906020018083116107fa57829003601f168201915b5050505050905090565b600061082c82611a11565b61086b576040517f08c379a0000000000000000000000000000000000000000000000000000000008152600401610862906138b6565b60405180910390fd5b6004600083815260200190815260200160002060009054906101000a900473ffffffffffffffffffffffffffffffffffffffff169050919050565b60006108b182610c76565b90508073ffffffffffffffffffffffffffffffffffffffff168373ffffffffffffffffffffffffffffffffffffffff161415610922576040517f08c379a000000000000000000000000000000000000000000000000000000000815260040161091990613936565b60405180910390fd5b8073ffffffffffffffffffffffffffffffffffffffff16610941611a7d565b73ffffffffffffffffffffffffffffffffffffffff161480610970575061096f8161096a611a7d565b611910565b5b6109af576040517f08c379a00000000000000000000000000000000000000000000000000000000081526004016109a6906137f6565b60405180910390fd5b6109b98383611a85565b505050565b6109cf6109c9611a7d565b82611b3e565b610a0e576040517f08c379a0000000000000000000000000000000000000000000000000000000008152600401610a0590613956565b60405180910390fd5b610a19838383611c1c565b505050565b610a266128b8565b60006001600a600085815260200190815260200160002060040154610a4b9190613ba4565b9050600a6000848152602001908152602001600020600501600082815260200190815260200160002060405180608001604052908160008201548152602001600182015481526020016002820160009054906101000a900473ffffffffffffffffffffffffffffffffffffffff1673ffffffffffffffffffffffffffffffffffffffff1673ffffffffffffffffffffffffffffffffffffffff168152602001600382018054610af990613c8e565b80601f0160208091040260200160405190810160405280929190818152602001828054610b2590613c8e565b8015610b725780601f10610b4757610100808354040283529160200191610b72565b820191906000526020600020905b815481529060010190602001808311610b5557829003601f168201915b505050505081525050915050919050565b610b9e83838360405180602001604052806000815250611088565b505050565b3373ffffffffffffffffffffffffffffffffffffffff16600a600084815260200190815260200160002060020160009054906101000a900473ffffffffffffffffffffffffffffffffffffffff1673ffffffffffffffffffffffffffffffffffffffff1614610c47576040517f08c379a0000000000000000000000000000000000000000000000000000000008152600401610c3e90613976565b60405180910390fd5b80600a60008481526020019081526020016000206003019080519060200190610c719291906128f6565b505050565b6000806002600084815260200190815260200160002060009054906101000a900473ffffffffffffffffffffffffffffffffffffffff169050600073ffffffffffffffffffffffffffffffffffffffff168173ffffffffffffffffffffffffffffffffffffffff161415610d1f576040517f08c379a0000000000000000000000000000000000000000000000000000000008152600401610d1690613836565b60405180910390fd5b80915050919050565b606060005b600954811015610ddc578383604051602001610d4a92919061354f565b60405160208183030381529060405280519060200120600a6000838152602001908152602001600020600001604051602001610d8691906135a3565b604051602081830303815290604052805190602001201415610dc957610dc1600a600083815260200190815260200160002060010154611e83565b915050610e16565b8080610dd490613cf1565b915050610d2d565b506040518060400160405280601381526020017f4e616d65206e6f74207265636f676e697a65640000000000000000000000000081525090505b92915050565b60008073ffffffffffffffffffffffffffffffffffffffff168273ffffffffffffffffffffffffffffffffffffffff161415610e8d576040517f08c379a0000000000000000000000000000000000000000000000000000000008152600401610e8490613816565b60405180910390fd5b600360008373ffffffffffffffffffffffffffffffffffffffff1673ffffffffffffffffffffffffffffffffffffffff168152602001908152602001600020549050919050565b606060018054610ee390613c8e565b80601f0160208091040260200160405190810160405280929190818152602001828054610f0f90613c8e565b8015610f5c5780601f10610f3157610100808354040283529160200191610f5c565b820191906000526020600020905b815481529060010190602001808311610f3f57829003601f168201915b5050505050905090565b610f78610f71611a7d565b8383612030565b5050565b3373ffffffffffffffffffffffffffffffffffffffff16600a600084815260200190815260200160002060020160009054906101000a900473ffffffffffffffffffffffffffffffffffffffff1673ffffffffffffffffffffffffffffffffffffffff1614611020576040517f08c379a000000000000000000000000000000000000000000000000000000000815260040161101790613976565b60405180910390fd5b60005b600a6000848152602001908152602001600020600401548110156110835781600a6000858152602001908152602001600020600501600083815260200190815260200160002060000181905550808061107b90613cf1565b915050611023565b505050565b611099611093611a7d565b83611b3e565b6110d8576040517f08c379a00000000000000000000000000000000000000000000000000000000081526004016110cf90613956565b60405180910390fd5b6110e48484848461219d565b50505050565b6000805b60095481101561117957836040516020016111099190613568565b60405160208183030381529060405280519060200120600a600083815260200190815260200160002060000160405160200161114591906135a3565b60405160208183030381529060405280519060200120141561116657600191505b808061117190613cf1565b9150506110ee565b5060001515811515146111c1576040517f08c379a00000000000000000000000000000000000000000000000000000000081526004016111b890613916565b60405180910390fd5b82600a6000600954815260200190815260200160002060000190805190602001906111ed9291906128f6565b50600954600a600060095481526020019081526020016000206001018190555033600a6000600954815260200190815260200160002060020160006101000a81548173ffffffffffffffffffffffffffffffffffffffff021916908373ffffffffffffffffffffffffffffffffffffffff16021790555081600a6000600954815260200190815260200160002060030190805190602001906112909291906128f6565b506000600a6000600954815260200190815260200160002060040181905550600960008154809291906112c290613cf1565b9190505550505050565b60606112d7826121f9565b9050919050565b3373ffffffffffffffffffffffffffffffffffffffff16600a600087815260200190815260200160002060020160009054906101000a900473ffffffffffffffffffffffffffffffffffffffff1673ffffffffffffffffffffffffffffffffffffffff1614611382576040517f08c379a000000000000000000000000000000000000000000000000000000000815260040161137990613976565b60405180910390fd5b6000600a600087815260200190815260200160002060040154905060008190505b85826113af9190613ac3565b8110156114cb5784600a600089815260200190815260200160002060050160008381526020019081526020016000206000018190555033600a6000898152602001908152602001600020600501600083815260200190815260200160002060020160006101000a81548173ffffffffffffffffffffffffffffffffffffffff021916908373ffffffffffffffffffffffffffffffffffffffff1602179055506001600a60008981526020019081526020016000206005016000838152602001908152602001600020600101819055508383600a60008a8152602001908152602001600020600501600084815260200190815260200160002060030191906114b792919061297c565b5080806114c390613cf1565b9150506113a3565b5084600a600088815260200190815260200160002060040160008282546114f29190613ac3565b92505081905550505050505050565b60006001600a6000848152602001908152602001600020600401546115269190613ba4565b1015611567576040517f08c379a000000000000000000000000000000000000000000000000000000000815260040161155e90613776565b60405180910390fd5b60006001600a60008481526020019081526020016000206004015461158c9190613ba4565b90506000670de0b6b3a7640000600a60008581526020019081526020016000206005016000848152602001908152602001600020600001546115ce9190613b4a565b90506000600a60008581526020019081526020016000206004015411611629576040517f08c379a0000000000000000000000000000000000000000000000000000000008152600401611620906138d6565b60405180910390fd5b80600860009054906101000a900473ffffffffffffffffffffffffffffffffffffffff1673ffffffffffffffffffffffffffffffffffffffff166370a08231336040518263ffffffff1660e01b815260040161168591906135ba565b60206040518083038186803b15801561169d57600080fd5b505afa1580156116b1573d6000803e3d6000fd5b505050506040513d601f19601f820116820180604052508101906116d59190612f09565b1015611716576040517f08c379a000000000000000000000000000000000000000000000000000000000815260040161170d906136f6565b60405180910390fd5b6000611722600761234b565b905061172e6007612359565b600860009054906101000a900473ffffffffffffffffffffffffffffffffffffffff1673ffffffffffffffffffffffffffffffffffffffff166323b872dd33600a600088815260200190815260200160002060020160009054906101000a900473ffffffffffffffffffffffffffffffffffffffff16856040518463ffffffff1660e01b81526004016117c3939291906135d5565b602060405180830381600087803b1580156117dd57600080fd5b505af11580156117f1573d6000803e3d6000fd5b505050506040513d601f19601f820116820180604052508101906118159190612d73565b506001600a6000868152602001908152602001600020600401600082825461183d9190613ba4565b9250508190555061184e338261236f565b61190a81600a60008781526020019081526020016000206005016000868152602001908152602001600020600301805461188790613c8e565b80601f01602080910402602001604051908101604052809291908181526020018280546118b390613c8e565b80156119005780601f106118d557610100808354040283529160200191611900565b820191906000526020600020905b8154815290600101906020018083116118e357829003601f168201915b505050505061238d565b50505050565b6000600560008473ffffffffffffffffffffffffffffffffffffffff1673ffffffffffffffffffffffffffffffffffffffff16815260200190815260200160002060008373ffffffffffffffffffffffffffffffffffffffff1673ffffffffffffffffffffffffffffffffffffffff16815260200190815260200160002060009054906101000a900460ff16905092915050565b50565b60007f01ffc9a7000000000000000000000000000000000000000000000000000000007bffffffffffffffffffffffffffffffffffffffffffffffffffffffff1916827bffffffffffffffffffffffffffffffffffffffffffffffffffffffff1916149050919050565b60008073ffffffffffffffffffffffffffffffffffffffff166002600084815260200190815260200160002060009054906101000a900473ffffffffffffffffffffffffffffffffffffffff1673ffffffffffffffffffffffffffffffffffffffff1614159050919050565b600033905090565b816004600083815260200190815260200160002060006101000a81548173ffffffffffffffffffffffffffffffffffffffff021916908373ffffffffffffffffffffffffffffffffffffffff160217905550808273ffffffffffffffffffffffffffffffffffffffff16611af883610c76565b73ffffffffffffffffffffffffffffffffffffffff167f8c5be1e5ebec7d5bd14f71427d1e84f3dd0314c0f7b2291e5b200ac8c7c3b92560405160405180910390a45050565b6000611b4982611a11565b611b88576040517f08c379a0000000000000000000000000000000000000000000000000000000008152600401611b7f906137d6565b60405180910390fd5b6000611b9383610c76565b90508073ffffffffffffffffffffffffffffffffffffffff168473ffffffffffffffffffffffffffffffffffffffff161480611c0257508373ffffffffffffffffffffffffffffffffffffffff16611bea84610821565b73ffffffffffffffffffffffffffffffffffffffff16145b80611c135750611c128185611910565b5b91505092915050565b8273ffffffffffffffffffffffffffffffffffffffff16611c3c82610c76565b73ffffffffffffffffffffffffffffffffffffffff1614611c92576040517f08c379a0000000000000000000000000000000000000000000000000000000008152600401611c8990613736565b60405180910390fd5b600073ffffffffffffffffffffffffffffffffffffffff168273ffffffffffffffffffffffffffffffffffffffff161415611d02576040517f08c379a0000000000000000000000000000000000000000000000000000000008152600401611cf990613796565b60405180910390fd5b611d0d838383612401565b611d18600082611a85565b6001600360008573ffffffffffffffffffffffffffffffffffffffff1673ffffffffffffffffffffffffffffffffffffffff1681526020019081526020016000206000828254611d689190613ba4565b925050819055506001600360008473ffffffffffffffffffffffffffffffffffffffff1673ffffffffffffffffffffffffffffffffffffffff1681526020019081526020016000206000828254611dbf9190613ac3565b92505081905550816002600083815260200190815260200160002060006101000a81548173ffffffffffffffffffffffffffffffffffffffff021916908373ffffffffffffffffffffffffffffffffffffffff160217905550808273ffffffffffffffffffffffffffffffffffffffff168473ffffffffffffffffffffffffffffffffffffffff167fddf252ad1be2c89b69c2b068fc378daa952ba7f163c4a11628f55a4df523b3ef60405160405180910390a4611e7e838383612406565b505050565b60606000821415611ecb576040518060400160405280600181526020017f3000000000000000000000000000000000000000000000000000000000000000815250905061202b565b600082905060005b60008214611efd578080611ee690613cf1565b915050600a82611ef69190613b19565b9150611ed3565b60008167ffffffffffffffff811115611f3f577f4e487b7100000000000000000000000000000000000000000000000000000000600052604160045260246000fd5b6040519080825280601f01601f191660200182016040528015611f715781602001600182028036833780820191505090505b5090505b6000851461202457600182611f8a9190613ba4565b9150600a85611f999190613d3a565b6030611fa59190613ac3565b60f81b818381518110611fe1577f4e487b7100000000000000000000000000000000000000000000000000000000600052603260045260246000fd5b60200101907effffffffffffffffffffffffffffffffffffffffffffffffffffffffffffff1916908160001a905350600a8561201d9190613b19565b9450611f75565b8093505050505b919050565b8173ffffffffffffffffffffffffffffffffffffffff168373ffffffffffffffffffffffffffffffffffffffff16141561209f576040517f08c379a0000000000000000000000000000000000000000000000000000000008152600401612096906137b6565b60405180910390fd5b80600560008573ffffffffffffffffffffffffffffffffffffffff1673ffffffffffffffffffffffffffffffffffffffff16815260200190815260200160002060008473ffffffffffffffffffffffffffffffffffffffff1673ffffffffffffffffffffffffffffffffffffffff16815260200190815260200160002060006101000a81548160ff0219169083151502179055508173ffffffffffffffffffffffffffffffffffffffff168373ffffffffffffffffffffffffffffffffffffffff167f17307eab39ab6107e8899845ad3d59bd9653f200f220920489ca2b5937696c31836040516121909190613658565b60405180910390a3505050565b6121a8848484611c1c565b6121b48484848461240b565b6121f3576040517f08c379a00000000000000000000000000000000000000000000000000000000081526004016121ea90613716565b60405180910390fd5b50505050565b606061220482611a11565b612243576040517f08c379a000000000000000000000000000000000000000000000000000000000815260040161223a90613896565b60405180910390fd5b600060066000848152602001908152602001600020805461226390613c8e565b80601f016020809104026020016040519081016040528092919081815260200182805461228f90613c8e565b80156122dc5780601f106122b1576101008083540402835291602001916122dc565b820191906000526020600020905b8154815290600101906020018083116122bf57829003601f168201915b5050505050905060006122ed6125a2565b9050600081511415612303578192505050612346565b60008251111561233857808260405160200161232092919061357f565b60405160208183030381529060405292505050612346565b612341846125b9565b925050505b919050565b600081600001549050919050565b6001816000016000828254019250508190555050565b612389828260405180602001604052806000815250612660565b5050565b61239682611a11565b6123d5576040517f08c379a00000000000000000000000000000000000000000000000000000000081526004016123cc90613856565b60405180910390fd5b806006600084815260200190815260200160002090805190602001906123fc9291906128f6565b505050565b505050565b505050565b600061242c8473ffffffffffffffffffffffffffffffffffffffff166126bb565b15612595578373ffffffffffffffffffffffffffffffffffffffff1663150b7a02612455611a7d565b8786866040518563ffffffff1660e01b8152600401612477949392919061360c565b602060405180830381600087803b15801561249157600080fd5b505af19250505080156124c257506040513d601f19601f820116820180604052508101906124bf9190612dc5565b60015b612545573d80600081146124f2576040519150601f19603f3d011682016040523d82523d6000602084013e6124f7565b606091505b5060008151141561253d576040517f08c379a000000000000000000000000000000000000000000000000000000000815260040161253490613716565b60405180910390fd5b805181602001fd5b63150b7a0260e01b7bffffffffffffffffffffffffffffffffffffffffffffffffffffffff1916817bffffffffffffffffffffffffffffffffffffffffffffffffffffffff19161491505061259a565b600190505b949350505050565b606060405180602001604052806000815250905090565b60606125c482611a11565b612603576040517f08c379a00000000000000000000000000000000000000000000000000000000081526004016125fa906138f6565b60405180910390fd5b600061260d6125a2565b9050600081511161262d5760405180602001604052806000815250612658565b8061263784611e83565b60405160200161264892919061357f565b6040516020818303038152906040525b915050919050565b61266a83836126de565b612677600084848461240b565b6126b6576040517f08c379a00000000000000000000000000000000000000000000000000000000081526004016126ad90613716565b60405180910390fd5b505050565b6000808273ffffffffffffffffffffffffffffffffffffffff163b119050919050565b600073ffffffffffffffffffffffffffffffffffffffff168273ffffffffffffffffffffffffffffffffffffffff16141561274e576040517f08c379a000000000000000000000000000000000000000000000000000000000815260040161274590613876565b60405180910390fd5b61275781611a11565b15612797576040517f08c379a000000000000000000000000000000000000000000000000000000000815260040161278e90613756565b60405180910390fd5b6127a360008383612401565b6001600360008473ffffffffffffffffffffffffffffffffffffffff1673ffffffffffffffffffffffffffffffffffffffff16815260200190815260200160002060008282546127f39190613ac3565b92505081905550816002600083815260200190815260200160002060006101000a81548173ffffffffffffffffffffffffffffffffffffffff021916908373ffffffffffffffffffffffffffffffffffffffff160217905550808273ffffffffffffffffffffffffffffffffffffffff16600073ffffffffffffffffffffffffffffffffffffffff167fddf252ad1be2c89b69c2b068fc378daa952ba7f163c4a11628f55a4df523b3ef60405160405180910390a46128b460008383612406565b5050565b60405180608001604052806000815260200160008152602001600073ffffffffffffffffffffffffffffffffffffffff168152602001606081525090565b82805461290290613c8e565b90600052602060002090601f016020900481019282612924576000855561296b565b82601f1061293d57805160ff191683800117855561296b565b8280016001018555821561296b579182015b8281111561296a57825182559160200191906001019061294f565b5b5090506129789190612a02565b5090565b82805461298890613c8e565b90600052602060002090601f0160209004810192826129aa57600085556129f1565b82601f106129c357803560ff19168380011785556129f1565b828001600101855582156129f1579182015b828111156129f05782358255916020019190600101906129d5565b5b5090506129fe9190612a02565b5090565b5b80821115612a1b576000816000905550600101612a03565b5090565b6000612a32612a2d846139f8565b6139d3565b905082815260208101848484011115612a4a57600080fd5b612a55848285613c4c565b509392505050565b6000612a70612a6b84613a29565b6139d3565b905082815260208101848484011115612a8857600080fd5b612a93848285613c4c565b509392505050565b600081359050612aaa816143f5565b92915050565b600081359050612abf8161440c565b92915050565b600081519050612ad48161440c565b92915050565b600081359050612ae981614423565b92915050565b600081519050612afe81614423565b92915050565b600082601f830112612b1557600080fd5b8135612b25848260208601612a1f565b91505092915050565b60008083601f840112612b4057600080fd5b8235905067ffffffffffffffff811115612b5957600080fd5b602083019150836001820283011115612b7157600080fd5b9250929050565b600082601f830112612b8957600080fd5b8135612b99848260208601612a5d565b91505092915050565b600081359050612bb18161443a565b92915050565b600081519050612bc68161443a565b92915050565b600060208284031215612bde57600080fd5b6000612bec84828501612a9b565b91505092915050565b60008060408385031215612c0857600080fd5b6000612c1685828601612a9b565b9250506020612c2785828601612a9b565b9150509250929050565b600080600060608486031215612c4657600080fd5b6000612c5486828701612a9b565b9350506020612c6586828701612a9b565b9250506040612c7686828701612ba2565b9150509250925092565b60008060008060808587031215612c9657600080fd5b6000612ca487828801612a9b565b9450506020612cb587828801612a9b565b9350506040612cc687828801612ba2565b925050606085013567ffffffffffffffff811115612ce357600080fd5b612cef87828801612b04565b91505092959194509250565b60008060408385031215612d0e57600080fd5b6000612d1c85828601612a9b565b9250506020612d2d85828601612ab0565b9150509250929050565b60008060408385031215612d4a57600080fd5b6000612d5885828601612a9b565b9250506020612d6985828601612ba2565b9150509250929050565b600060208284031215612d8557600080fd5b6000612d9384828501612ac5565b91505092915050565b600060208284031215612dae57600080fd5b6000612dbc84828501612ada565b91505092915050565b600060208284031215612dd757600080fd5b6000612de584828501612aef565b91505092915050565b60008060208385031215612e0157600080fd5b600083013567ffffffffffffffff811115612e1b57600080fd5b612e2785828601612b2e565b92509250509250929050565b600060208284031215612e4557600080fd5b600082013567ffffffffffffffff811115612e5f57600080fd5b612e6b84828501612b78565b91505092915050565b60008060408385031215612e8757600080fd5b600083013567ffffffffffffffff811115612ea157600080fd5b612ead85828601612b78565b925050602083013567ffffffffffffffff811115612eca57600080fd5b612ed685828601612b78565b9150509250929050565b600060208284031215612ef257600080fd5b6000612f0084828501612ba2565b91505092915050565b600060208284031215612f1b57600080fd5b6000612f2984828501612bb7565b91505092915050565b60008060408385031215612f4557600080fd5b6000612f5385828601612ba2565b925050602083013567ffffffffffffffff811115612f7057600080fd5b612f7c85828601612b78565b9150509250929050565b60008060408385031215612f9957600080fd5b6000612fa785828601612ba2565b9250506020612fb885828601612ba2565b9150509250929050565b600080600080600060808688031215612fda57600080fd5b6000612fe888828901612ba2565b9550506020612ff988828901612ba2565b945050604061300a88828901612ba2565b935050606086013567ffffffffffffffff81111561302757600080fd5b61303388828901612b2e565b92509250509295509295909350565b61304b81613bd8565b82525050565b61305a81613bd8565b82525050565b61306981613bea565b82525050565b600061307a82613a6f565b6130848185613a85565b9350613094818560208601613c5b565b61309d81613e27565b840191505092915050565b60006130b48385613ab8565b93506130c1838584613c4c565b82840190509392505050565b60006130d882613a7a565b6130e28185613a96565b93506130f2818560208601613c5b565b6130fb81613e27565b840191505092915050565b600061311182613a7a565b61311b8185613aa7565b935061312b818560208601613c5b565b61313481613e27565b840191505092915050565b600061314a82613a7a565b6131548185613ab8565b9350613164818560208601613c5b565b80840191505092915050565b6000815461317d81613c8e565b6131878186613ab8565b945060018216600081146131a257600181146131b3576131e6565b60ff198316865281860193506131e6565b6131bc85613a5a565b60005b838110156131de578154818901526001820191506020810190506131bf565b838801955050505b50505092915050565b60006131fc601d83613aa7565b915061320782613e38565b602082019050919050565b600061321f603283613aa7565b915061322a82613e61565b604082019050919050565b6000613242602583613aa7565b915061324d82613eb0565b604082019050919050565b6000613265601c83613aa7565b915061327082613eff565b602082019050919050565b6000613288601e83613aa7565b915061329382613f28565b602082019050919050565b60006132ab602483613aa7565b91506132b682613f51565b604082019050919050565b60006132ce601983613aa7565b91506132d982613fa0565b602082019050919050565b60006132f1602c83613aa7565b91506132fc82613fc9565b604082019050919050565b6000613314603883613aa7565b915061331f82614018565b604082019050919050565b6000613337602a83613aa7565b915061334282614067565b604082019050919050565b600061335a602983613aa7565b9150613365826140b6565b604082019050919050565b600061337d602e83613aa7565b915061338882614105565b604082019050919050565b60006133a0602083613aa7565b91506133ab82614154565b602082019050919050565b60006133c3603183613aa7565b91506133ce8261417d565b604082019050919050565b60006133e6602c83613aa7565b91506133f1826141cc565b604082019050919050565b6000613409602e83613aa7565b91506134148261421b565b604082019050919050565b600061342c602f83613aa7565b91506134378261426a565b604082019050919050565b600061344f602683613aa7565b915061345a826142b9565b604082019050919050565b6000613472602183613aa7565b915061347d82614308565b604082019050919050565b6000613495603183613aa7565b91506134a082614357565b604082019050919050565b60006134b8604083613aa7565b91506134c3826143a6565b604082019050919050565b60006080830160008301516134e66000860182613531565b5060208301516134f96020860182613531565b50604083015161350c6040860182613042565b506060830151848203606086015261352482826130cd565b9150508091505092915050565b61353a81613c42565b82525050565b61354981613c42565b82525050565b600061355c8284866130a8565b91508190509392505050565b6000613574828461313f565b915081905092915050565b600061358b828561313f565b9150613597828461313f565b91508190509392505050565b60006135af8284613170565b915081905092915050565b60006020820190506135cf6000830184613051565b92915050565b60006060820190506135ea6000830186613051565b6135f76020830185613051565b6136046040830184613540565b949350505050565b60006080820190506136216000830187613051565b61362e6020830186613051565b61363b6040830185613540565b818103606083015261364d818461306f565b905095945050505050565b600060208201905061366d6000830184613060565b92915050565b6000602082019050818103600083015261368d8184613106565b905092915050565b600060a08201905081810360008301526136af8188613106565b90506136be6020830187613540565b6136cb6040830186613051565b81810360608301526136dd8185613106565b90506136ec6080830184613540565b9695505050505050565b6000602082019050818103600083015261370f816131ef565b9050919050565b6000602082019050818103600083015261372f81613212565b9050919050565b6000602082019050818103600083015261374f81613235565b9050919050565b6000602082019050818103600083015261376f81613258565b9050919050565b6000602082019050818103600083015261378f8161327b565b9050919050565b600060208201905081810360008301526137af8161329e565b9050919050565b600060208201905081810360008301526137cf816132c1565b9050919050565b600060208201905081810360008301526137ef816132e4565b9050919050565b6000602082019050818103600083015261380f81613307565b9050919050565b6000602082019050818103600083015261382f8161332a565b9050919050565b6000602082019050818103600083015261384f8161334d565b9050919050565b6000602082019050818103600083015261386f81613370565b9050919050565b6000602082019050818103600083015261388f81613393565b9050919050565b600060208201905081810360008301526138af816133b6565b9050919050565b600060208201905081810360008301526138cf816133d9565b9050919050565b600060208201905081810360008301526138ef816133fc565b9050919050565b6000602082019050818103600083015261390f8161341f565b9050919050565b6000602082019050818103600083015261392f81613442565b9050919050565b6000602082019050818103600083015261394f81613465565b9050919050565b6000602082019050818103600083015261396f81613488565b9050919050565b6000602082019050818103600083015261398f816134ab565b9050919050565b600060208201905081810360008301526139b081846134ce565b905092915050565b60006020820190506139cd6000830184613540565b92915050565b60006139dd6139ee565b90506139e98282613cc0565b919050565b6000604051905090565b600067ffffffffffffffff821115613a1357613a12613df8565b5b613a1c82613e27565b9050602081019050919050565b600067ffffffffffffffff821115613a4457613a43613df8565b5b613a4d82613e27565b9050602081019050919050565b60008190508160005260206000209050919050565b600081519050919050565b600081519050919050565b600082825260208201905092915050565b600082825260208201905092915050565b600082825260208201905092915050565b600081905092915050565b6000613ace82613c42565b9150613ad983613c42565b9250827fffffffffffffffffffffffffffffffffffffffffffffffffffffffffffffffff03821115613b0e57613b0d613d6b565b5b828201905092915050565b6000613b2482613c42565b9150613b2f83613c42565b925082613b3f57613b3e613d9a565b5b828204905092915050565b6000613b5582613c42565b9150613b6083613c42565b9250817fffffffffffffffffffffffffffffffffffffffffffffffffffffffffffffffff0483118215151615613b9957613b98613d6b565b5b828202905092915050565b6000613baf82613c42565b9150613bba83613c42565b925082821015613bcd57613bcc613d6b565b5b828203905092915050565b6000613be382613c22565b9050919050565b60008115159050919050565b60007fffffffff0000000000000000000000000000000000000000000000000000000082169050919050565b600073ffffffffffffffffffffffffffffffffffffffff82169050919050565b6000819050919050565b82818337600083830152505050565b60005b83811015613c79578082015181840152602081019050613c5e565b83811115613c88576000848401525b50505050565b60006002820490506001821680613ca657607f821691505b60208210811415613cba57613cb9613dc9565b5b50919050565b613cc982613e27565b810181811067ffffffffffffffff82111715613ce857613ce7613df8565b5b80604052505050565b6000613cfc82613c42565b91507fffffffffffffffffffffffffffffffffffffffffffffffffffffffffffffffff821415613d2f57613d2e613d6b565b5b600182019050919050565b6000613d4582613c42565b9150613d5083613c42565b925082613d6057613d5f613d9a565b5b828206905092915050565b7f4e487b7100000000000000000000000000000000000000000000000000000000600052601160045260246000fd5b7f4e487b7100000000000000000000000000000000000000000000000000000000600052601260045260246000fd5b7f4e487b7100000000000000000000000000000000000000000000000000000000600052602260045260246000fd5b7f4e487b7100000000000000000000000000000000000000000000000000000000600052604160045260246000fd5b6000601f19601f8301169050919050565b7f596f7520646f6e2774206861766520656e6f756768206d6f6e65792021000000600082015250565b7f4552433732313a207472616e7366657220746f206e6f6e20455243373231526560008201527f63656976657220696d706c656d656e7465720000000000000000000000000000602082015250565b7f4552433732313a207472616e736665722066726f6d20696e636f72726563742060008201527f6f776e6572000000000000000000000000000000000000000000000000000000602082015250565b7f4552433732313a20746f6b656e20616c7265616479206d696e74656400000000600082015250565b7f4e6f206d6f7265206974656d20666f72207468697320636f6d7061676e790000600082015250565b7f4552433732313a207472616e7366657220746f20746865207a65726f2061646460008201527f7265737300000000000000000000000000000000000000000000000000000000602082015250565b7f4552433732313a20617070726f766520746f2063616c6c657200000000000000600082015250565b7f4552433732313a206f70657261746f7220717565727920666f72206e6f6e657860008201527f697374656e7420746f6b656e0000000000000000000000000000000000000000602082015250565b7f4552433732313a20617070726f76652063616c6c6572206973206e6f74206f7760008201527f6e6572206e6f7220617070726f76656420666f7220616c6c0000000000000000602082015250565b7f4552433732313a2062616c616e636520717565727920666f7220746865207a6560008201527f726f206164647265737300000000000000000000000000000000000000000000602082015250565b7f4552433732313a206f776e657220717565727920666f72206e6f6e657869737460008201527f656e7420746f6b656e0000000000000000000000000000000000000000000000602082015250565b7f45524337323155524953746f726167653a2055524920736574206f66206e6f6e60008201527f6578697374656e7420746f6b656e000000000000000000000000000000000000602082015250565b7f4552433732313a206d696e7420746f20746865207a65726f2061646472657373600082015250565b7f45524337323155524953746f726167653a2055524920717565727920666f722060008201527f6e6f6e6578697374656e7420746f6b656e000000000000000000000000000000602082015250565b7f4552433732313a20617070726f76656420717565727920666f72206e6f6e657860008201527f697374656e7420746f6b656e0000000000000000000000000000000000000000602082015250565b7f5468657265206973206e6f206d6f726520636572746966696361746520666f7260008201527f207468697320636f6d7061676e79000000000000000000000000000000000000602082015250565b7f4552433732314d657461646174613a2055524920717565727920666f72206e6f60008201527f6e6578697374656e7420746f6b656e0000000000000000000000000000000000602082015250565b7f596f7572204973737565722068617320616c7265616479206265656e2063726560008201527f6174656420210000000000000000000000000000000000000000000000000000602082015250565b7f4552433732313a20617070726f76616c20746f2063757272656e74206f776e6560008201527f7200000000000000000000000000000000000000000000000000000000000000602082015250565b7f4552433732313a207472616e736665722063616c6c6572206973206e6f74206f60008201527f776e6572206e6f7220617070726f766564000000000000000000000000000000602082015250565b7f596f757220617265206e6f7420746865206f776e6572206f662074686520497360008201527f73756572202120596f752063616e277420646f207468697320616374696f6e2e602082015250565b6143fe81613bd8565b811461440957600080fd5b50565b61441581613bea565b811461442057600080fd5b50565b61442c81613bf6565b811461443757600080fd5b50565b61444381613c42565b811461444e57600080fd5b5056fea264697066735822122080446324cb955fdd21d9647b0c13fa9df345da9c4caa6ede921d4dc6496a922664736f6c63430008040033",
  "linkReferences": {},
  "deployedLinkReferences": {}
}