{
  "_format": "hh-sol-artifact-1",
  "contractName": "DAI",
  "sourceName": "contracts/DAI.sol",
  "abi": [
    {
      "inputs": [],
      "stateMutability": "nonpayable",
      "type": "constructor"
    },
    {
      "anonymous": false,
      "inputs": [
        {
          "indexed": true,
          "internalType": "address",
          "name": "owner",
          "type": "address"
        },
        {
          "indexed": true,
          "internalType": "address",
          "name": "spender",
          "type": "address"
        },
        {
          "indexed": false,
          "internalType": "uint256",
          "name": "value",
          "type": "uint256"
        }
      ],
      "name": "Approval",
      "type": "event"
    },
    {
      "anonymous": false,
      "inputs": [
        {
          "indexed": true,
          "internalType": "address",
          "name": "from",
          "type": "address"
        },
        {
          "indexed": true,
          "internalType": "address",
          "name": "to",
          "type": "address"
        },
        {
          "indexed": false,
          "internalType": "uint256",
          "name": "value",
          "type": "uint256"
        }
      ],
      "name": "Transfer",
      "type": "event"
    },
    {
      "anonymous": false,
      "inputs": [
        {
          "indexed": false,
          "internalType": "address",
          "name": "user",
          "type": "address"
        },
        {
          "indexed": false,
          "internalType": "uint256",
          "name": "amount",
          "type": "uint256"
        }
      ],
      "name": "Withdrawn",
      "type": "event"
    },
    {
      "inputs": [
        {
          "internalType": "address",
          "name": "owner",
          "type": "address"
        },
        {
          "internalType": "address",
          "name": "spender",
          "type": "address"
        }
      ],
      "name": "allowance",
      "outputs": [
        {
          "internalType": "uint256",
          "name": "",
          "type": "uint256"
        }
      ],
      "stateMutability": "view",
      "type": "function"
    },
    {
      "inputs": [
        {
          "internalType": "address",
          "name": "spender",
          "type": "address"
        },
        {
          "internalType": "uint256",
          "name": "amount",
          "type": "uint256"
        }
      ],
      "name": "approve",
      "outputs": [
        {
          "internalType": "bool",
          "name": "",
          "type": "bool"
        }
      ],
      "stateMutability": "nonpayable",
      "type": "function"
    },
    {
      "inputs": [
        {
          "internalType": "uint256",
          "name": "_value",
          "type": "uint256"
        }
      ],
      "name": "approveSilo",
      "outputs": [],
      "stateMutability": "nonpayable",
      "type": "function"
    },
    {
      "inputs": [
        {
          "internalType": "address",
          "name": "account",
          "type": "address"
        }
      ],
      "name": "balanceOf",
      "outputs": [
        {
          "internalType": "uint256",
          "name": "",
          "type": "uint256"
        }
      ],
      "stateMutability": "view",
      "type": "function"
    },
    {
      "inputs": [
        {
          "internalType": "address",
          "name": "_silo",
          "type": "address"
        }
      ],
      "name": "changeSiloAddress",
      "outputs": [],
      "stateMutability": "nonpayable",
      "type": "function"
    },
    {
      "inputs": [],
      "name": "decimals",
      "outputs": [
        {
          "internalType": "uint8",
          "name": "",
          "type": "uint8"
        }
      ],
      "stateMutability": "view",
      "type": "function"
    },
    {
      "inputs": [
        {
          "internalType": "address",
          "name": "spender",
          "type": "address"
        },
        {
          "internalType": "uint256",
          "name": "subtractedValue",
          "type": "uint256"
        }
      ],
      "name": "decreaseAllowance",
      "outputs": [
        {
          "internalType": "bool",
          "name": "",
          "type": "bool"
        }
      ],
      "stateMutability": "nonpayable",
      "type": "function"
    },
    {
      "inputs": [
        {
          "internalType": "address",
          "name": "spender",
          "type": "address"
        },
        {
          "internalType": "uint256",
          "name": "addedValue",
          "type": "uint256"
        }
      ],
      "name": "increaseAllowance",
      "outputs": [
        {
          "internalType": "bool",
          "name": "",
          "type": "bool"
        }
      ],
      "stateMutability": "nonpayable",
      "type": "function"
    },
    {
      "inputs": [],
      "name": "name",
      "outputs": [
        {
          "internalType": "string",
          "name": "",
          "type": "string"
        }
      ],
      "stateMutability": "view",
      "type": "function"
    },
    {
      "inputs": [],
      "name": "symbol",
      "outputs": [
        {
          "internalType": "string",
          "name": "",
          "type": "string"
        }
      ],
      "stateMutability": "view",
      "type": "function"
    },
    {
      "inputs": [],
      "name": "totalSupply",
      "outputs": [
        {
          "internalType": "uint256",
          "name": "",
          "type": "uint256"
        }
      ],
      "stateMutability": "view",
      "type": "function"
    },
    {
      "inputs": [
        {
          "internalType": "address",
          "name": "to",
          "type": "address"
        },
        {
          "internalType": "uint256",
          "name": "amount",
          "type": "uint256"
        }
      ],
      "name": "transfer",
      "outputs": [
        {
          "internalType": "bool",
          "name": "",
          "type": "bool"
        }
      ],
      "stateMutability": "nonpayable",
      "type": "function"
    },
    {
      "inputs": [
        {
          "internalType": "address",
          "name": "from",
          "type": "address"
        },
        {
          "internalType": "address",
          "name": "to",
          "type": "address"
        },
        {
          "internalType": "uint256",
          "name": "amount",
          "type": "uint256"
        }
      ],
      "name": "transferFrom",
      "outputs": [
        {
          "internalType": "bool",
          "name": "",
          "type": "bool"
        }
      ],
      "stateMutability": "nonpayable",
      "type": "function"
    },
    {
      "inputs": [],
      "name": "withdraw",
      "outputs": [],
      "stateMutability": "nonpayable",
      "type": "function"
    }
  ],
  "bytecode": "0x608060405233600660006101000a81548173ffffffffffffffffffffffffffffffffffffffff021916908373ffffffffffffffffffffffffffffffffffffffff1602179055503480156200005257600080fd5b506040518060400160405280601581526020017f4d616769632044414920666f72206861636b65727300000000000000000000008152506040518060400160405280600381526020017f44414900000000000000000000000000000000000000000000000000000000008152508160039080519060200190620000d792919062000298565b508060049080519060200190620000f092919062000298565b5050506200010f3369d3c21bcecceda10000006200011560201b60201c565b620004f4565b600073ffffffffffffffffffffffffffffffffffffffff168273ffffffffffffffffffffffffffffffffffffffff16141562000188576040517f08c379a00000000000000000000000000000000000000000000000000000000081526004016200017f9062000380565b60405180910390fd5b6200019c600083836200028e60201b60201c565b8060026000828254620001b09190620003d0565b92505081905550806000808473ffffffffffffffffffffffffffffffffffffffff1673ffffffffffffffffffffffffffffffffffffffff1681526020019081526020016000206000828254620002079190620003d0565b925050819055508173ffffffffffffffffffffffffffffffffffffffff16600073ffffffffffffffffffffffffffffffffffffffff167fddf252ad1be2c89b69c2b068fc378daa952ba7f163c4a11628f55a4df523b3ef836040516200026e9190620003a2565b60405180910390a36200028a600083836200029360201b60201c565b5050565b505050565b505050565b828054620002a69062000437565b90600052602060002090601f016020900481019282620002ca576000855562000316565b82601f10620002e557805160ff191683800117855562000316565b8280016001018555821562000316579182015b8281111562000315578251825591602001919060010190620002f8565b5b50905062000325919062000329565b5090565b5b80821115620003445760008160009055506001016200032a565b5090565b600062000357601f83620003bf565b91506200036482620004cb565b602082019050919050565b6200037a816200042d565b82525050565b600060208201905081810360008301526200039b8162000348565b9050919050565b6000602082019050620003b960008301846200036f565b92915050565b600082825260208201905092915050565b6000620003dd826200042d565b9150620003ea836200042d565b9250827fffffffffffffffffffffffffffffffffffffffffffffffffffffffffffffffff038211156200042257620004216200046d565b5b828201905092915050565b6000819050919050565b600060028204905060018216806200045057607f821691505b602082108114156200046757620004666200049c565b5b50919050565b7f4e487b7100000000000000000000000000000000000000000000000000000000600052601160045260246000fd5b7f4e487b7100000000000000000000000000000000000000000000000000000000600052602260045260246000fd5b7f45524332303a206d696e7420746f20746865207a65726f206164647265737300600082015250565b61186280620005046000396000f3fe608060405234801561001057600080fd5b50600436106100ea5760003560e01c80633ccfd60b1161008c578063a457c2d711610066578063a457c2d71461024d578063a9059cbb1461027d578063d3c7a8f6146102ad578063dd62ed3e146102c9576100ea565b80633ccfd60b146101f557806370a08231146101ff57806395d89b411461022f576100ea565b806323b872dd116100c857806323b872dd1461015b578063313ce5671461018b578063356a8075146101a957806339509351146101c5576100ea565b806306fdde03146100ef578063095ea7b31461010d57806318160ddd1461013d575b600080fd5b6100f76102f9565b6040516101049190611204565b60405180910390f35b61012760048036038101906101229190610f9c565b61038b565b60405161013491906111e9565b60405180910390f35b6101456103ae565b6040516101529190611346565b60405180910390f35b61017560048036038101906101709190610f4d565b6103b8565b60405161018291906111e9565b60405180910390f35b6101936103e7565b6040516101a09190611361565b60405180910390f35b6101c360048036038101906101be9190610fd8565b6103f0565b005b6101df60048036038101906101da9190610f9c565b610439565b6040516101ec91906111e9565b60405180910390f35b6101fd6104e3565b005b61021960048036038101906102149190610ee8565b610532565b6040516102269190611346565b60405180910390f35b61023761057a565b6040516102449190611204565b60405180910390f35b61026760048036038101906102629190610f9c565b61060c565b60405161027491906111e9565b60405180910390f35b61029760048036038101906102929190610f9c565b6106f6565b6040516102a491906111e9565b60405180910390f35b6102c760048036038101906102c29190610ee8565b610719565b005b6102e360048036038101906102de9190610f11565b6107ed565b6040516102f09190611346565b60405180910390f35b606060038054610308906114e2565b80601f0160208091040260200160405190810160405280929190818152602001828054610334906114e2565b80156103815780601f1061035657610100808354040283529160200191610381565b820191906000526020600020905b81548152906001019060200180831161036457829003601f168201915b5050505050905090565b600080610396610874565b90506103a381858561087c565b600191505092915050565b6000600254905090565b6000806103c3610874565b90506103d0858285610a47565b6103db858585610ad3565b60019150509392505050565b60006012905090565b6000670de0b6b3a76400008261040691906113ee565b9050610434600560009054906101000a900473ffffffffffffffffffffffffffffffffffffffff168261038b565b505050565b600080610444610874565b90506104d8818585600160008673ffffffffffffffffffffffffffffffffffffffff1673ffffffffffffffffffffffffffffffffffffffff16815260200190815260200160002060008973ffffffffffffffffffffffffffffffffffffffff1673ffffffffffffffffffffffffffffffffffffffff168152602001908152602001600020546104d39190611398565b61087c565b600191505092915050565b6104f6336802b5e3af16b1880000610d54565b7f7084f5476618d8e60b11ef0d7d3f06914655adb8793e28ff7f018d4c76d505d53360326040516105289291906111c0565b60405180910390a1565b60008060008373ffffffffffffffffffffffffffffffffffffffff1673ffffffffffffffffffffffffffffffffffffffff168152602001908152602001600020549050919050565b606060048054610589906114e2565b80601f01602080910402602001604051908101604052809291908181526020018280546105b5906114e2565b80156106025780601f106105d757610100808354040283529160200191610602565b820191906000526020600020905b8154815290600101906020018083116105e557829003601f168201915b5050505050905090565b600080610617610874565b90506000600160008373ffffffffffffffffffffffffffffffffffffffff1673ffffffffffffffffffffffffffffffffffffffff16815260200190815260200160002060008673ffffffffffffffffffffffffffffffffffffffff1673ffffffffffffffffffffffffffffffffffffffff168152602001908152602001600020549050838110156106dd576040517f08c379a00000000000000000000000000000000000000000000000000000000081526004016106d490611306565b60405180910390fd5b6106ea828686840361087c565b60019250505092915050565b600080610701610874565b905061070e818585610ad3565b600191505092915050565b600660009054906101000a900473ffffffffffffffffffffffffffffffffffffffff1673ffffffffffffffffffffffffffffffffffffffff163373ffffffffffffffffffffffffffffffffffffffff16146107a9576040517f08c379a00000000000000000000000000000000000000000000000000000000081526004016107a0906112a6565b60405180910390fd5b80600560006101000a81548173ffffffffffffffffffffffffffffffffffffffff021916908373ffffffffffffffffffffffffffffffffffffffff16021790555050565b6000600160008473ffffffffffffffffffffffffffffffffffffffff1673ffffffffffffffffffffffffffffffffffffffff16815260200190815260200160002060008373ffffffffffffffffffffffffffffffffffffffff1673ffffffffffffffffffffffffffffffffffffffff16815260200190815260200160002054905092915050565b600033905090565b600073ffffffffffffffffffffffffffffffffffffffff168373ffffffffffffffffffffffffffffffffffffffff1614156108ec576040517f08c379a00000000000000000000000000000000000000000000000000000000081526004016108e3906112e6565b60405180910390fd5b600073ffffffffffffffffffffffffffffffffffffffff168273ffffffffffffffffffffffffffffffffffffffff16141561095c576040517f08c379a000000000000000000000000000000000000000000000000000000000815260040161095390611246565b60405180910390fd5b80600160008573ffffffffffffffffffffffffffffffffffffffff1673ffffffffffffffffffffffffffffffffffffffff16815260200190815260200160002060008473ffffffffffffffffffffffffffffffffffffffff1673ffffffffffffffffffffffffffffffffffffffff168152602001908152602001600020819055508173ffffffffffffffffffffffffffffffffffffffff168373ffffffffffffffffffffffffffffffffffffffff167f8c5be1e5ebec7d5bd14f71427d1e84f3dd0314c0f7b2291e5b200ac8c7c3b92583604051610a3a9190611346565b60405180910390a3505050565b6000610a5384846107ed565b90507fffffffffffffffffffffffffffffffffffffffffffffffffffffffffffffffff8114610acd5781811015610abf576040517f08c379a0000000000000000000000000000000000000000000000000000000008152600401610ab690611266565b60405180910390fd5b610acc848484840361087c565b5b50505050565b600073ffffffffffffffffffffffffffffffffffffffff168373ffffffffffffffffffffffffffffffffffffffff161415610b43576040517f08c379a0000000000000000000000000000000000000000000000000000000008152600401610b3a906112c6565b60405180910390fd5b600073ffffffffffffffffffffffffffffffffffffffff168273ffffffffffffffffffffffffffffffffffffffff161415610bb3576040517f08c379a0000000000000000000000000000000000000000000000000000000008152600401610baa90611226565b60405180910390fd5b610bbe838383610eb4565b60008060008573ffffffffffffffffffffffffffffffffffffffff1673ffffffffffffffffffffffffffffffffffffffff16815260200190815260200160002054905081811015610c44576040517f08c379a0000000000000000000000000000000000000000000000000000000008152600401610c3b90611286565b60405180910390fd5b8181036000808673ffffffffffffffffffffffffffffffffffffffff1673ffffffffffffffffffffffffffffffffffffffff16815260200190815260200160002081905550816000808573ffffffffffffffffffffffffffffffffffffffff1673ffffffffffffffffffffffffffffffffffffffff1681526020019081526020016000206000828254610cd79190611398565b925050819055508273ffffffffffffffffffffffffffffffffffffffff168473ffffffffffffffffffffffffffffffffffffffff167fddf252ad1be2c89b69c2b068fc378daa952ba7f163c4a11628f55a4df523b3ef84604051610d3b9190611346565b60405180910390a3610d4e848484610eb9565b50505050565b600073ffffffffffffffffffffffffffffffffffffffff168273ffffffffffffffffffffffffffffffffffffffff161415610dc4576040517f08c379a0000000000000000000000000000000000000000000000000000000008152600401610dbb90611326565b60405180910390fd5b610dd060008383610eb4565b8060026000828254610de29190611398565b92505081905550806000808473ffffffffffffffffffffffffffffffffffffffff1673ffffffffffffffffffffffffffffffffffffffff1681526020019081526020016000206000828254610e379190611398565b925050819055508173ffffffffffffffffffffffffffffffffffffffff16600073ffffffffffffffffffffffffffffffffffffffff167fddf252ad1be2c89b69c2b068fc378daa952ba7f163c4a11628f55a4df523b3ef83604051610e9c9190611346565b60405180910390a3610eb060008383610eb9565b5050565b505050565b505050565b600081359050610ecd816117fe565b92915050565b600081359050610ee281611815565b92915050565b600060208284031215610efa57600080fd5b6000610f0884828501610ebe565b91505092915050565b60008060408385031215610f2457600080fd5b6000610f3285828601610ebe565b9250506020610f4385828601610ebe565b9150509250929050565b600080600060608486031215610f6257600080fd5b6000610f7086828701610ebe565b9350506020610f8186828701610ebe565b9250506040610f9286828701610ed3565b9150509250925092565b60008060408385031215610faf57600080fd5b6000610fbd85828601610ebe565b9250506020610fce85828601610ed3565b9150509250929050565b600060208284031215610fea57600080fd5b6000610ff884828501610ed3565b91505092915050565b61100a81611448565b82525050565b6110198161145a565b82525050565b6110288161149d565b82525050565b60006110398261137c565b6110438185611387565b93506110538185602086016114af565b61105c81611572565b840191505092915050565b6000611074602383611387565b915061107f82611583565b604082019050919050565b6000611097602283611387565b91506110a2826115d2565b604082019050919050565b60006110ba601d83611387565b91506110c582611621565b602082019050919050565b60006110dd602683611387565b91506110e88261164a565b604082019050919050565b6000611100603683611387565b915061110b82611699565b604082019050919050565b6000611123602583611387565b915061112e826116e8565b604082019050919050565b6000611146602483611387565b915061115182611737565b604082019050919050565b6000611169602583611387565b915061117482611786565b604082019050919050565b600061118c601f83611387565b9150611197826117d5565b602082019050919050565b6111ab81611486565b82525050565b6111ba81611490565b82525050565b60006040820190506111d56000830185611001565b6111e2602083018461101f565b9392505050565b60006020820190506111fe6000830184611010565b92915050565b6000602082019050818103600083015261121e818461102e565b905092915050565b6000602082019050818103600083015261123f81611067565b9050919050565b6000602082019050818103600083015261125f8161108a565b9050919050565b6000602082019050818103600083015261127f816110ad565b9050919050565b6000602082019050818103600083015261129f816110d0565b9050919050565b600060208201905081810360008301526112bf816110f3565b9050919050565b600060208201905081810360008301526112df81611116565b9050919050565b600060208201905081810360008301526112ff81611139565b9050919050565b6000602082019050818103600083015261131f8161115c565b9050919050565b6000602082019050818103600083015261133f8161117f565b9050919050565b600060208201905061135b60008301846111a2565b92915050565b600060208201905061137660008301846111b1565b92915050565b600081519050919050565b600082825260208201905092915050565b60006113a382611486565b91506113ae83611486565b9250827fffffffffffffffffffffffffffffffffffffffffffffffffffffffffffffffff038211156113e3576113e2611514565b5b828201905092915050565b60006113f982611486565b915061140483611486565b9250817fffffffffffffffffffffffffffffffffffffffffffffffffffffffffffffffff048311821515161561143d5761143c611514565b5b828202905092915050565b600061145382611466565b9050919050565b60008115159050919050565b600073ffffffffffffffffffffffffffffffffffffffff82169050919050565b6000819050919050565b600060ff82169050919050565b60006114a882611486565b9050919050565b60005b838110156114cd5780820151818401526020810190506114b2565b838111156114dc576000848401525b50505050565b600060028204905060018216806114fa57607f821691505b6020821081141561150e5761150d611543565b5b50919050565b7f4e487b7100000000000000000000000000000000000000000000000000000000600052601160045260246000fd5b7f4e487b7100000000000000000000000000000000000000000000000000000000600052602260045260246000fd5b6000601f19601f8301169050919050565b7f45524332303a207472616e7366657220746f20746865207a65726f206164647260008201527f6573730000000000000000000000000000000000000000000000000000000000602082015250565b7f45524332303a20617070726f766520746f20746865207a65726f20616464726560008201527f7373000000000000000000000000000000000000000000000000000000000000602082015250565b7f45524332303a20696e73756666696369656e7420616c6c6f77616e6365000000600082015250565b7f45524332303a207472616e7366657220616d6f756e742065786365656473206260008201527f616c616e63650000000000000000000000000000000000000000000000000000602082015250565b7f4f6e6c7920746865206f776e6572206f662074686520636f6e7472616374206360008201527f616e2063616c6c20746869732066756e6374696f6e2e00000000000000000000602082015250565b7f45524332303a207472616e736665722066726f6d20746865207a65726f20616460008201527f6472657373000000000000000000000000000000000000000000000000000000602082015250565b7f45524332303a20617070726f76652066726f6d20746865207a65726f2061646460008201527f7265737300000000000000000000000000000000000000000000000000000000602082015250565b7f45524332303a2064656372656173656420616c6c6f77616e63652062656c6f7760008201527f207a65726f000000000000000000000000000000000000000000000000000000602082015250565b7f45524332303a206d696e7420746f20746865207a65726f206164647265737300600082015250565b61180781611448565b811461181257600080fd5b50565b61181e81611486565b811461182957600080fd5b5056fea264697066735822122009428461dd7e0921e831ab0195023412c619cc4223615b988266bf4d805d440f64736f6c63430008040033",
  "linkReferences": {},
  "deployedLinkReferences": {}
}